:020000040000FA
:030000000200E318
:030013000209C718
:03001B00020A8A4C
:030033000208D3ED
:03003B00020A2393
:03004B000209A106
:0300630002076E23
:03006B000207B3D6
:03007300020AE698
:03007B0002084335
:1000830002096300000080FB120113B900030200A0
:10009300CDE4900F0078C179048002F0A3D8FCD995
:1000A300FA9012C0AA82AB8390011678317901804D
:1000B30015E493A3AC82AD838A828B83F0A3AA82D7
:1000C300AB838C828D83D8E9D9E775820F75830F53
:1000D30074001200F575828675830074001200F5B2
:1000E30075D0007581BF75100075110F759F0002E3
:1000F300008BC09FF59FE473D09F22D083D082C032
:100103009FE493C0E0740193C0E0740293F59F22CF
:10011300790122FF0000000000000000000000B889
:100123000B0000000000004A01000000C2010001B2
:10013300000000010000006D4EC64139300000FF91
:10014300FFFF7F1200FE4D0B001200FEF20B0012A8
:1001530000FE530C001200FE720D001200FEFF0D94
:10016300001200FE970E001200FEDE13001200FEC6
:10017300EF13001200FE0B14001200FE16140012FF
:1001830000FEAB0E001200FED50E001200FE7F1320
:10019300001200FE8B13001200FE6614001200FE14
:1001A300A014001200FE0315001200FE0815001231
:1001B30000FE2614001200FE4614001200FE1C135B
:1001C300001200FE2C13001200FE5813001200FE52
:1001D3000410001200FE3310001200FE491000123A
:1001E30000FE6010001200FE7710001200FEA31044
:1001F300001200FEC710001200FED810001200FE0D
:10020300E110001200FEEA10001200FEFF100012BF
:1002130000FE1411001200FE3311001200FE4611FD
:10022300001200FE5312001200FE9B12001200FE89
:10023300B512001200FED61400E49366701308741E
:10024300019366700C087402936670050874039337
:100253006622C3E4939608740193960874029396F6
:10026300087403939622080808EAC0E0EBC0E0860E
:10027300F0E7A4FA180986F0E7A42AFA180986F029
:10028300E7A42AFA180986F0E7A42AFA1986F0E700
:10029300A4FBE5F02AFA190886F0E7A42BFBE5F0A6
:1002A3003AFA190886F0E7A42BFBE5F03AFA181896
:1002B3000986F0E7A4C5F02BFBE43AFA1908E7C571
:1002C300F0C6A426F6E5F03BFBE43AFA1886F0E71D
:1002D300A4F6E5F00826F6E43B08F6E43A08F6D07F
:1002E300E0FBD0E0FA22E4CFC0E0E4CEC0E0E4CD0E
:1002F300C0E0E4CCC0E075F020C3E633F608E63393
:10030300F608E633F608E633F6181818EC33FCED76
:1003130033FDEE33FEEF33FFC3EC9709ED9709EEA0
:100323009709EF97191919400FFFEC97FC09ED97FF
:10033300FD09EE97FE191906D5F0BEECF709EDF7A6
:1003430009EEF709EFF7191919D0E0FCD0E0FDD059
:10035300E0FED0E0FF221203C11818181202E912BE
:1003630003B0191919221203B0191919080808E65C
:1003730018181820E7E01202E91203C1181818220E
:10038300090909E719191920E7DC080808E618180C
:100393001820E7030202E91203C11818181202E930
:1003A3001203C11818181203B019191922E4C397BC
:1003B300F709E497F709E497F709E497F722E4C309
:1003C30096F608E496F608E496F608E496F62260B4
:1003D30016080808C6C313C618C613C618C613C61C
:1003E30018C613C6D5E0EA22E026F608A3E036F6DF
:1003F30008A3E036F608A3E036F622C3E0C696F675
:1004030008A3E0C696F608A3E0C696F608A3E0C6DE
:1004130096F622E647F60809E647F60809E647F6A0
:100423000809E647F622E0F608A3E0F608A3E0F69B
:1004330008A3E0F622E6F008A3E6F008A3E6F00836
:10044300A3E6F022E0FAA3E0FBA3E0FCA3E0FD2295
:10045300CAC0E0E6F0A308DAFAD0E0FA22CAC0E0A4
:10046300E0A3C582CCC582C583CDC583F0A3C58275
:10047300CCC582C583CDC583DAE6D0E0CA22700439
:1004830022600D18C6C333C608C633C6D5E0F418B8
:1004930022251010AF08F510400215118008F51041
:1004A30040021511D2AF22C0D0251010AF08F510AD
:1004B300500205118008F51050020511D2AFD0D0BB
:1004C300222510F58210AF08F5104002151180089F
:1004D300F51040021511D2AF851183222510F58244
:1004E300E43511F58322E4732510C582C0E0E511DC
:1004F30034FFC583C0E0E510C3958224F810AF082C
:100503008583118582108008858311858210D2AF7F
:10051300CEF0A3E520F0A37808E608F0A3DEFAEF17
:10052300F0A3E58124FAF8E608F0A3E608F0A3E6D1
:1005330008F0A30808E608F0A3E608F0A315811560
:1005430081D0E0FED0E0F8158115811581E8C0E087
:10055300EEC0E022851183851082E0A3FEE0A3F5BF
:10056300207808E0A3F608DFFAE0A3FFE0A3C0E0E9
:10057300E0A3C0E0E0A3C0E0E0A3C0E0E0A3C0E0EC
:1005830010AF0885821085831180088582108583CA
:1005930011D2AFD083D0820200FBC0D02510C58218
:1005A300C0E0E51134FFC583C0E0E510C3958224A4
:1005B300F310AF0885831185821080088583118528
:1005C3008210D2AFC8F0A3E9F0A3EAF0A3EBF0A343
:1005D3007908E709F0A3D8FAECF0A3EDF0A3EEF065
:1005E300A3EFF0A3D0E0F0A3D0E0F0A3D0E0F0A31A
:1005F300E520F0A3E5F0F0A322851183851082E0C6
:10060300C0E0A3E0F9A3E0FAA3E0FBA37808E0F6D7
:1006130008A3DFFAE0FCA3E0FDA3E0FEA3E0FFA351
:10062300E0C0E0A3E0C0E0A3E0F5D0A3E0F520A3A1
:10063300E0A3F5F010AF088583118582108008854B
:100643008311858210D2AFD082D083D0E0F8D0E07E
:100653003274028000C0E0F4041204C4D0E0120437
:10066300532274048000CCC0E0EDC0E0E510C39CCD
:10067300CCAD1150011D10AF068C108D1180068C6E
:10068300108D11D2AF120460D0E0FDD0E0FC22D077
:1006930083D082ECC0E0EDC0E0EEC0E0EFC0E0E468
:1006A30093A3FCE493A3FDE493A3FEE493A3FFEFDE
:1006B3004E4D4C601512070EEC24FFFCED34FFFD8C
:1006C300EE34FFFEEF34FFFF80E5E493A3FCE493F5
:1006D300A3FDE493A3FEE493A3FFEF4E4D4C6015FB
:1006E30012074BEC24FFFCED34FFFDEE34FFFEEF6D
:1006F30034FFFF80E5D0E0FFD0E0FED0E0FDD0E0A6
:10070300FCE493A3C0E0E493C0E022C0E0C0F0881F
:10071300F0120255A8F0400712023CA8F0701AA389
:10072300A3A3A3120255A8F0A3A3A3A34013D0F03D
:10073300D0E0D0E0D0E00206F8A3A3A3A3A3A3A331
:10074300A3A3A3D0F0D0E022C0E0C0F088F012024F
:100753003CA8F0A3A3A3A3700BD0F0D0E0D0E0D0CB
:10076300E00206F8A3A3D0F0D0E022C0E074F212B6
:10077300059DC2DBC2C4900FFDE02401F0A3E03469
:1007830000F0900FFDE064A17004A3E0640770150E
:10079300900FFD7400F0A37400F0900FFC7401F04F
:1007A3001201768006900FFC7400F07F010205FCB5
:1007B300C0E074F112059DC2C5E589607E7E0080AC
:1007C30074750801750900EE7808120481E508AF15
:1007D30008E5895F605EEEF87900E875F002A4C869
:1007E300AAF075F000A42AFA75F002E9A42AF974B4
:1007F3008628F582741039F583E0F8A3E0F9E84917
:10080300602EEEF87900E875F002A4C8AAF075F03E
:1008130000A42AFA75F002E9A42AF9748628F5825D
:10082300741039F583E0F8A3E0F58388821204E9B4
:10083300EFF452890EEEC3940840867F020205FC52
:10084300C0E074F112059DC2EBE58A607E7E0080F4
:1008530074750801750900EE7808120481E508AF84
:1008630008E58A5F605EEEF87900E875F002A4C8D7
:10087300AAF075F000A42AFA75F002E9A42AF97423
:100883009628F582741039F583E0F8A3E0F9E84976
:10089300602EEEF87900E875F002A4C8AAF075F0AE
:1008A30000A42AFA75F002E9A42AF9749628F582BD
:1008B300741039F583E0F8A3E0F58388821204E924
:1008C300EFF4528A0EEEC3940840867F020205FCC1
:1008D300C0E074F112059DC2E8E58B607E7E008066
:1008E30074750801750900EE7808120481E508AFF4
:1008F30008E58B5F605EEEF87900E875F002A4C846
:10090300AAF075F000A42AFA75F002E9A42AF97492
:10091300A628F582741039F583E0F8A3E0F9E849D5
:10092300602EEEF87900E875F002A4C8AAF075F01D
:1009330000A42AFA75F002E9A42AF974A628F5821C
:10094300741039F583E0F8A3E0F58388821204E993
:10095300EFF4528B0EEEC3940540867F020205FC32
:10096300C0E074F212059DA2AFE433FEC2AFE5E925
:10097300A2E650209010B0E0F8A3E0F9E849600E39
:100983009010B0E0F8A3E0F58388821204E9759B28
:100993000053E9BFEEA2E092AF7F010205FCC0E085
:1009A30074F212059D9010B2E0F8A3E0F9E84960F3
:1009B3000E9010B2E0F8A3E0F58388821204E97F79
:1009C300010205FCC0E0C0D0E8C0E0E9C0E0C0829D
:1009D300C083E5C1C0E0901135E0F8790074B42814
:1009E300F582741039F583D0E0F0901134E0F8907B
:1009F3001135E0687006E595901136F0901135E0F9
:100A03002401901135F0C394804006901135740091
:100A1300F0D083D082D0E0F9D0E0F8D0D0D0E0326B
:100A2300C0E0C0D0E8C0E0C008C009C082C0839065
:100A330011B7E0F89011B8E068700B539AFB90116E
:100A4300B97401F08031C2E99011B7E0F50874017F
:100A530025089011B7F075090074372508F58274DD
:100A6300113509F583E0F5C19011B7E0C3948040D7
:100A7300069011B77400F0D083D082D009D008D08B
:100A8300E0F8D0D0D0E032C0E0C0D0E8C0E0E9C0A8
:100A9300E0C082C083E5F9C0E090123BE0F8790042
:100AA30074BA28F582741139F583D0E0F090123AC4
:100AB300E0F890123BE0687006E59590123CF090E8
:100AC300123BE0240190123BF0C394804006901245
:100AD3003B7400F0D083D082D0E0F9D0E0F8D0D0DE
:100AE300D0E032C0E0C0D0E8C0E0C008C009C08296
:100AF300C0839012BDE0F89012BEE068700B539A69
:100B0300F79012BF7401F08031C2EA9012BDE0F594
:100B130008740125089012BDF0750900743D25087D
:100B2300F58274123509F583E0F5F99012BDE0C33F
:100B3300948040069012BD7400F0D083D082D00917
:100B4300D008D0E0F8D0D0D0E03274F71204EBE94B
:100B5300FEEAF8EBF9E8FAE9FB740B2E8A828B8341
:100B6300F0900F07E0F8A3E0F5838882A3A3A3A383
:100B7300A3E0600678617988800478417988E88AFF
:100B8300828B83A3F0E98A828B83A3A3F0900F0067
:100B9300E08A828B83A3A3A3F0900F07E0F8A3E07E
:100BA300F5838882A3A3E0F8A3E0F98A828B83A369
:100BB300A3A3A3E8F0A3E9F08A828B83A3A3A3A34F
:100BC300A3A3ECF0A3EDF0900F07E0F8A3E0F58307
:100BD3008882E0F8A3E0F98A828B83A3A3A3A3A36B
:100BE300A3A3A3E8F0A3E9F0790A7F0102055774F0
:100BF300F21204EBECFEEDFF8908A908EAFCEBFD19
:100C03007A097B0F120146E9FB7A0080348A0A7560
:100C13000B00EE250AF582EF350BF583E0C0E08B80
:100C23000A750B008A0C750D00E50C250AF8E50D15
:100C3300350BF9E82409F582E9340FF583D0E0F0A8
:100C43000AEAC3950840C6E5082BF97F0602055753
:100C530074F71204EB7E7C7F0F1202061201A67951
:100C630001EEFAEFFB1201EE8E828F83E0C2E7F012
:100C73008E828F83E0640570538E828F83E0F97ACE
:100C83007D7B0F1201EE8E828F83A3E0A2E55004D9
:100C9300D2F08002C2F0A2F0E492E09012C8F078A1
:100CA30080790F88828983A3E0A2E74003020D675E
:100CB3008E828F83A3A3A3E0FA900F00E06A600300
:100CC300020D677401900F01F0020D678E828F830E
:100CD300E024F59012C5F08E828F83E0F97A7D7B54
:100CE3000F1201EE8E828F83A3E0A2E55004D2F0AF
:100CF3008002C2F0A2F0E492E09012C8F08E828FDC
:100D030083A3A3A3A3A3A3A3A3E0F8A3E0F990124F
:100D1300C1E8F0A3E9F09012C67486F0A3740FF053
:100D23009012C5E0F83395E0F99012C6E028F8A3D5
:100D3300E039F988828983E09012C9F08882898337
:100D4300A3E0A2E750128E828F83A3E054DF6441B5
:100D5300700674019012CAF08E828F83A3A3A3E05E
:100D63009012C0F01201AC12020C7F0102055774FD
:100D7300F41204EBEAFEEBFF1201D0E96401700404
:100D8300790180731201AC900F07EEF0A3EFF0909E
:100D930012C67400F0A37400F07401900F02F09077
:100DA30012D07808120429900F037808120438909F
:100DB3000F07E0F8A3E0F5838882A3A3A3A3E0F9D8
:100DC3001201D6900F07E0F8A3E0F5838882E0FADA
:100DD300A3E0FB1201DC900F07E0F8A3E0F58388A2
:100DE30082A3A3E0FAA3E0FB1201E27A527B011291
:100DF30002121201A679007F0402055774F412044B
:100E0300EBEAFEEBFF8C0A8D0B8908900F02E07072
:100E1300031201FAE508C3946750058508098003A6
:100E2300750967850908120218120206A908AC0A97
:100E3300AD0BEEFAEFFB12014CE9F97A097B0F12C5
:100E430001E812020C1201F4E9900F07E0F8A3E0A5
:100E5300F5838882A3A3A3A3A3E0601C7400900F6F
:100E630001F07A4A7B021201C4900F01E06004741E
:100E73000080027401FE80027E00900F02E0700386
:100E8300120200EE7007900F00E02401F0EEF97FEC
:100E930004020557C082C0837401900F02F012014F
:100EA300FAD083D0820200FBC082C083E9F87900C4
:100EB30080108A828B83E029F98A828B83A3AA829A
:100EC300AB83E8FC74FF2CF8EC70E7D083D082028C
:100ED30000FBC082C08390100174C2F0A374D0F0F1
:100EE3009010037410F0900FFF74CCF0A374BDF056
:100EF3009010047401F07AFF7B0F120158E964012A
:100F030060F4120164D083D0820200FB12019A12B2
:100F1300018812016A12017012017CE9901085F0B8
:100F2300901085E0640170F01201948A0A8B0B859E
:100F33000A08850B09750A80750B00780A12065496
:100F43007C007D007A057B1012023674021204AA1B
:100F530090100574CCF09010067401F09010077493
:100F630007F09010087401F09010097403F0A808BA
:100F7300A909E875F00AA4C8AAF075F000A42AFA32
:100F830075F00AE509A42AF9E4E9F890100AF07566
:100F9300F00AE508A490100BF0901007E0F97A0529
:100FA3007B10120182E990100CF0AA08AB09E4FC53
:100FB300FD12022A9012CC1206659012D012044739
:100FC30012023074041204AA8A088B098C0A8D0B4E
:100FD300AA08AB091201CA901007E02401F97C05A5
:100FE3007D107AF37BB412015EE979011201B27AC2
:100FF300647B001201CA79011201B8120170020F59
:101003001BC082C083906189E04460F0906190745A
:10101300D5F09061FA7409F09061B27415F09061A3
:10102300AE7400F012020C7900D083D0820200FB70
:10103300C082C08375F005E9A424D490618FF0D0F9
:1010430083D0820200FBC082C083EA906174F0E423
:10105300EBFA906175F0D083D0820200FBC082C0AE
:1010630083EA906172F0E4EBFA906173F0D083D07D
:10107300820200FB74F61204EB75E1EE7591FD78C4
:101083000080138808750900EA2508F582EB350905
:10109300F583E0F5D908E8C39940E87F02020557D4
:1010A300C082C0838011E5D98A828B83F08A828BC8
:1010B30083A3AA82AB8319E9C3940150E9D083D0F7
:1010C300820200FB75E1E9E591A2E150FA7591FD19
:1010D30079000200FB75E1EC75E1E30200FB75E1C9
:1010E300EF75E1EC0200FBC082C0839061A3E0C214
:1010F300E6F0539AFED083D0820200FBC082C08305
:101103009061A3E0D2E6F0439A01D083D08202003B
:10111300FBC082C083A2AFE433F8C2AF9010B0EA41
:10112300F0A3EBF0E8A2E092AFD083D0820200FB01
:10113300C082C083906193E0542270F8D083D08240
:101143000200FB74F41204EB8A088B098C0A8D0BE2
:1011530053F1FE43F30C53F2F375868075C4807824
:1011630008120692000000000C000000B00400000A
:10117300B91160090000C111C0120000C911802516
:101183000000D11140380000D911004B0000E111DB
:1011930080700000E91100960000F11100E10000E9
:1011A300F911002C0100011200C201000912008490
:1011B30003001112191275C23B75C505805E75C215
:1011C3003B75C506805675C23B75C507804E75C213
:1011D3003B75C508804675C2D875C508803E75C283
:1011E3003B75C509803675C2D875C509802E75C291
:1011F3003B75C50A802675C2D875C50A801E75C29F
:101203003B75C50B801675C2D875C50B800E75C2AC
:10121300D875C50C800675C23B75C50A75C40243F3
:101223008640D2AA75C1009011347400F090113534
:101233007400F09011B77400F09011B87400F0903E
:1012430011367400F09011B97400F07F0402055751
:1012530074F01204EB9012E078081204299012E45F
:10126300780C1204297808790C1202699012E87834
:10127300081203EB9012E078081204389012EC780D
:101283000C1204297808790C1202E9AA0CAB0DACF4
:101293000EAD0F7F0802055774F41204EB8A088B16
:1012A300098C0A8D0B9012E078081204387F04022F
:1012B300055774F01204EB74FC12049485108285B4
:1012C3001183EAF0A3EBF0A3ECF0A3EDF074141296
:1012D30004DF78081204291202248A0C8B0D8C0E69
:1012E3008D0F85108285118378081203FE9012DC1E
:1012F30078081203EB780C79081203838510828532
:10130300118378081203EBAA08AB09AC0AAD0B747E
:10131300041204AA7F08020557C082C08379001211
:1013230001A0D083D0820200FBEBC313FBEA13FAC4
:10133300EAF8EBF9E824FFFAE934FFFBE849601225
:10134300000000000000000000000000000000009A
:1013530080DE0200FB74F71204EBEAFEEBFFEEF80B
:10136300EFF9E824FFFEE934FFFFE84960097AE872
:101373007B031201C480E77F0102055743F2014357
:10138300F30153FDFE0200FB74F01204EB12018E15
:10139300C28D75B690A28D50FCE5BAF50CE4F50D3F
:1013A300F50EF50FE5BBF508750900E4C508F50969
:1013B300E4F50AF50B780C79081204169012D47828
:1013C30008120429780C7908120269740F780C1238
:1013D30003D2AA0CAB0D7F0802055743EBE053EB96
:1013E300EF53EBF743EB04C2BC0200FBC082C083A4
:1013F30043EB0853EBFC43EB10D2BC900FFC74009F
:10140300F0D083D0820200FB53EBF753EBEFC2BC67
:101413000200FBC082C083900FFCE0F9D083D0822E
:101423000200FBE914600B14600C14600D14600ED1
:10143300800ED290800AD2918006D2938002D294F9
:101443000200FBE914600B14600C14600D14600EB1
:10145300800EC290800AC2918006C2938002C29419
:101463000200FBC082C0831201BE53F4FEC290434C
:10147300FE0153F4FDC29143FE0253F4F7C29343BA
:10148300FE0853F4EFC29443FE109012D81204479F
:1014930012021E1201A6D083D0820200FBE5C654BD
:1014A30080F853BEFBE59DA2E550FAE59DA2E2401C
:1014B300F4007401697007744948F5C68005E97042
:1014C3000288C6E5C6F8E59EFAE86A70F943BE04E9
:1014D3000200FB74F71204EB74091204DFE0F8A3B3
:1014E300E0F98A828B838003ECF0A3E8FEE9FFEE48
:1014F30024FF18EF34FFF9EE4F70ED7F010205571B
:0A150300D2AF0200FBC2AF0200FBF2
:04000005000000E314
:00000001FF
