:020000040000FA
:030000000200E318
:0300130002145084
:03001B00021513B8
:0300330002135C59
:03003B000214AC00
:03004B0002142A72
:030063000211F790
:03006B0002123C42
:0300730002156F04
:03007B000212CCA2
:100083000213EC00000080FB120113B9000302000D
:10009300CDE4900F0078C579048002F0A3D8FCD991
:1000A300FA9012C4AA82AB839001167892790280E7
:1000B30015E493A3AC82AD838A828B83F0A3AA82D7
:1000C300AB838C828D83D8E9D9E77582EE75833E45
:1000D30074001200F575828675830074001200F5B2
:1000E30075D0007581BF75100075110F759F0002E3
:1000F300008BC09FF59FE473D09F22D083D082C032
:100103009FE493C0E0740193C0E0740293F59F22CF
:10011300790122FF00000000000000000000000041
:10012300C20100010000000A0000000500000014E5
:100133000000000300000000000000E8030000537B
:100143004854335820CEC2B6C83D2566A1E62C20BC
:10015300CAAAB6C83D256625250D0A005348543161
:100163005820CEC2B6C83A2564A1E620CAAAB6C8AA
:100173003A256425250D0A0053485420CEC2B6C83B
:100183003A2564A1E620CAAAB6C83A256425250DF6
:100193000A00C2B6B5E344657720506F696E743ABE
:1001A30025352E3166A1E60A00000020410000A09B
:1001B3004008000000803E000002000000C5FE026F
:1001C300C0BD52163DF624D6B50AD7233CACC5A70D
:1001D30038666620C20000C8C10100C8420000C8DA
:1001E30042CDCCCC3D000000C0925CDE3EC3F58C1A
:1001F30041B81E73435348543358205365726961A1
:100203006C204E756D626572203D20256C750D0A5C
:100213000050C30000A0860100000034C200002F7C
:100223004300FF7F47CEC2CAAAB6C8B4ABB8D0C694
:10023300F7A3ACCEC2B6C8A3BA2564A1E62C20CAE4
:10024300AAB6C8A3BA256425250D0A00F304353FD1
:10025300000080BF0000803F1872313F2292D43EDD
:10026300DD9B2A3F04000040D85BDE3E3031323351
:1002730034353637383941424344454600286E7594
:100283006C6C20706F696E74657229003F3F3F008C
:100293000000807FF9021550B743BA5100E7DB2E07
:1002A300100000001200FEA832001200FE4D3300C1
:1002B3001200FEAE33001200FECD34001200FE5ACF
:1002C30035001200FEF235001200FEBB430012009F
:1002D300FECC43001200FEEB43001200FEF6430087
:1002E3001200FEAA41001200FE4644001200FE80E6
:1002F30044001200FE6738001200FE83380012002B
:10030300FE9F38001200FEB238001200FEE93800EA
:100313001200FE2039001200FE9439001200FE2E56
:100323003A001200FE5F3A001200FE01450012007F
:10033300FE0645001200FE0644001200FE2644009D
:100343001200FE9A42001200FEAA42001200FED6DC
:1003530042001200FEDA3F001200FE0940001200C4
:10036300FE1F40001200FE3640001200FE4D40000A
:100373001200FE7940001200FE9D40001200FEAE06
:1003830040001200FEB740001200FEC04000120001
:10039300FED540001200FEEA40001200FE094100B3
:1003A3001200FEA83C001200FEB53D001200FE063E
:1003B30036001200FE2A36001200FE252600120027
:1003C300FE8926001200FEA726001200FEC32600A7
:1003D3001200FED626001200FE5727001200FED0A0
:1003E30027001200FE2128001200FE5328001200ED
:1003F300FE6B28001200FE0229001200FEF12A0003
:100403001200FE002C001200FE5F2D001200FEB24F
:100413002D001200FEC22D001200FE6E2E001200EF
:10042300FEBE2E001200FE802F001200FE6B300075
:100433001200FE9730001200FEB430001200FECE10
:1004430030001200FEEA30001200FEF83000120005
:10045300FE1E31001200FEB731001200FEFE310015
:100463001200FE1D32001200FE6A32001200FE8AE4
:100473003E001200FEB43E001200FEFD42001200D8
:10048300FE973A001200FE2442001200FEB644001A
:100493001200FE5E43001200FE6F43001200FEE3F3
:1004A30044001200FE1C41001200FE4641001200EF
:1004B300FED615001200FEF41A00000022E4936633
:1004C30070130874019366700C08740293667005C8
:1004D300087403936622C008C3E096F50808A3E0F6
:1004E30096420808A3E096420808A3E0964208A2B1
:1004F300D265D033E5087001D3D00822C3E796084C
:1005030009E7960809E7960809E79622C008C3E0B9
:1005130096F50808A3E096420808A3E09642080867
:10052300A3E09645087001D3D00822C3E49396084C
:1005330074019396087402939608740393962208A1
:100543000808E630E711120D7E12055A080808C69E
:100553004480C618181822181818E9799EC608CAC4
:10056300C608CBC608CCC6C370207996CACBCC705C
:1005730019798ECBCC70137986CC700EF9802ACA88
:1005830033CACB33CBCC33CC331930E7F2CCCBCA21
:100593003350147004EA30E00DE4CA3ACACB3BCBC3
:1005A300CC3CCC500209C3E913C6CC182313C6CBE9
:1005B30018C6CA18C6F9221205FA20F01430E72B20
:1005C30074FFFCFBFA747F8022E4FCFBFA748080E6
:1005D3001AB48008BC00F2BB00EF800F50EBF9E4C3
:1005E300C39AFAE49BFBE49CFCE499C6CC18C6CB03
:1005F30018C6CA18C6F922E4C9C608CAC608CBC6B3
:10060300D3330308CCC63392F0C3947F402E94189F
:100613004019C9B90704CACBCC225025C309CA3330
:10062300CACB33CBCC33CC33D9F422F4600DC9CC51
:10063300C313CB13CBCA13CAD9F6CC22E4FCFBFAFF
:100643002214FCFBFA22E6C3331846184618462246
:10065300E7C33319471947194722181818E60846FC
:1006630008700AE608C3337005E633F4220822193A
:100673001919E7094709700AE709C3337005E73316
:10068300F4220922E6084608C3134608336002E64B
:1006930033F422E7094709C3134709336002E733F9
:1006A300F42212068760251206966020120649700E
:1006B30003020653080808E76670101819E7667006
:1006C3000A1819E76670041819E76622F42212065D
:1006D30087601C12069660171206497007120653AC
:1006E3007001D322C0D01206537006D0D0B322C3F8
:1006F3002233D0D0501430E0F6C3E7960809E796CA
:100703000809E7960809E796B32220E0D5E697089B
:1007130009E6970809E6970809E697B322120687C0
:10072300601B120696601612064970071206536084
:100733000CB322C0D01206537005D0D022C322338B
:10074300D0D0501330E0EBC3E7960809E7960809C9
:10075300E7960809E7962220E0E4E6970809E6977A
:100763000809E6970809E6972200120687604F12E8
:1007730006966012E7548066F612065D7011120643
:1007830053703B090909F4F618F618F618F6221205
:100793000672701512064908080860EAE6447FF6F7
:1007A30018768018E4F618F6221206496016120627
:1007B300537012E4F608F608F608E65480F60909C1
:1007C3000918181822EAC0E0EBC0E0ECC0E0EDC065
:1007D300E0E687F0A4FBACF008E687F0A42CFCE489
:1007E30035F0FA1809E687F0A42C4B60027401CAAD
:1007F30035F0FCE433FB09E687F0D2F7A42CCB35C4
:10080300F0FC1908E687F0A42BCC35F0FBE433FDAC
:100813000819E687F0D2E7A42C4ACB35F0CD340093
:10082300FC09E687F0D2E7A42DCC35F0FDE433FADA
:100833000918E687F0D2F7A42CCD35F0CA3400FCB2
:1008430008E687F0D2E7D2F7A42ACC35F07A7E20E7
:10085300E70B0ACB33CBCD33CDCC33CC33CB3350B7
:10086300147004ED30E00ED2F1E4CD3DCDCC3CCCA0
:100873003B5005DA05C2F1EB547FC63308E63392E9
:10088300F0FBE73309E733C39A502D2B70190C0D96
:100893004C4D70151806E608C333700D20F10AA2FB
:1008A300F013F6E418800B4024E4F630F00276806F
:1008B30018F618F618F68024D33B14501074FFA2D0
:1008C300F013F6187680E418F618F6800FA2F013EA
:1008D300F618E63303F618ECF618EDF6D0E0FDD083
:1008E300E0FCD0E0FBD0E0FA221206966046120646
:1008F30087603DE9687008F618F618F618F6227452
:100903008067F7120920090909748067F722120624
:1009130087601D1206967005191919801A12065D53
:10092300701F120672C37003E66733191919400763
:100933001818182208080874FFF618F618F618F69F
:10094300221206726017120653702192F0120649A2
:100953007019501720F014080808090909E7F61858
:1009630019E7F61819E7F61819E7F622120649608F
:10097300E6E869701F0808E62480F608E436F618EE
:10098300547FB47F0CE654806007F6E418F618F63B
:1009930022181822E9C6CC08C6CD08C6CE08C6CF91
:1009A300C0E0E8C0E0EAC0E0EBC0E009E9F809E72D
:1009B300FA09E7FBE6F918E6F8C3EC98ED99EE9A25
:1009C300EBC2E7F5F0EFC2E795F0500E600CEBCF0A
:1009D300FBEACEFAE9CDF9E8CCF8EAA2E7D2E7FAE6
:1009E300EB33FB13F5F0EEA2E7D2E7FEEF33FFC5DF
:1009F300F013A2E730E601B313C5F0C3C0E0C0F0C3
:100A03007F00C39BFB605B9418600C401AD0E0230B
:100A1300F9D0E0F8020AEF8AF0E9486003D2F0E483
:100A2300AFF0FAF9F8803BEB30E40D89F0EA6003AC
:100A3300D2F0E4AFF0F9CAF8EB30E30D88F0EF60E1
:100A430002D2F0AFF0E4CAC9F8EB54076014FBC359
:100A5300EA13FAE913F9E813F8EF135002D2E0FFAF
:100A6300DBEDD0E0C0E030E739C3E49FFFF5F0EC05
:100A730098FC42F0ED99FD42F0EE9AFE42F0D0E090
:100A8300F9D0E0F8E5F0607AE923F9EE20E742D8FF
:100A9300028067C3EF33FFEC33FCED33FDEE33FE2F
:100AA30080EAEC28FCED39FDEE3AFED0E023F9D0E4
:100AB300E0F84002801BC3EE13FEED13FDEC13FCC4
:100AC300EF135002D2E0FF08B800067F7F74FF8067
:100AD3002EEF3350178CF020F00260100CBC000C8A
:100AE3000DBD00080EBE000408E860DFE933E8131B
:100AF300FFEE2313FE4F4D4C8008E95480FFE4FEC4
:100B0300FDFCEE33EF33F47004FCFD7E80D0E0FB9C
:100B1300D0E0FAD0E0F8D0E0CFC618CEC618CDC6E4
:100B230018CCC6F922120687700418181822120668
:100B330096700D74FFF61819F61819F61819F6229F
:100B4300E7548066F6120649700F12065370F014CC
:100B5300F608F608F608F680D1120653700CF6086C
:100B6300F608768008E6447F80EC120675700C1256
:100B7300066060BFE65480F6E480BB120660700531
:100B830019191980A5E869700C763F18768018F654
:100B930018F6E8F922E6CDC0E018ECC0E0E633CD64
:100BA30033CDD313F6E719FCE7191933CC33C394C8
:100BB3007F400ECD9D502408E65480F6E418F6805D
:100BC3000FF4043D14501408E6447FF6187680E4CD
:100BD30018F618F6D0E0FCD0E0FD22CCD313CCFD00
:100BE30018E4C6CBC0E018E4C6CAC0E00808ED08A4
:100BF300C633E613F618E433C675F003C3CA97CABF
:100C030009CB97CB199C40047D08802EBD000302BD
:100C13000CD116B6FF050606081618C3CA33CACB8D
:100C230033CB33CA27CA09CB37CB193CC37D0880E2
:100C33003E187D0820E75CC633C6CA33CACB33CB24
:100C430033DDF1D5F0EB30E77BCA97CA09CB974A7E
:100C5300CB199C406F4B7025E620E0218066187D00
:100C630008C3CA97CA09CB97CB199CD3C633C6CA44
:100C730033CACB33CB3350C9DDE7D5F0E1D3E4C678
:100C830036C608C636C608C636C608C636C61818D7
:100C9300188031C3CA97CA09CB97CB199CB3409725
:100CA300C633C6CA33CACB33CB33DD34D5F02EC6F5
:100CB300A2E0C640C8CA27CA09CB37194A70BECBBF
:100CC3003CB480B90808E63308E633601F181818E7
:100CD300D0E0FAD0E0FBD0E0FCD0E0FD22187D08A4
:100CE300CA27CA09CB37CB193CD3808013F618E443
:100CF300B67F11F618B6FF0EF618C60470D20808B0
:100D0300768080CAF618F618F680C5E4CFC0E0E412
:100D1300CEC0E0E4CDC0E0E4CCC0E075F020C3E693
:100D230033F608E633F608E633F608E633F6181822
:100D330018EC33FCED33FDEE33FEEF33FFC3EC97DA
:100D430009ED9709EE9709EF97191919400FFFEC71
:100D530097FC09ED97FD09EE97FE191906D5F0BE2C
:100D6300ECF709EDF709EEF709EFF7191919D0E0D8
:100D7300FCD0E0FDD0E0FED0E0FF22181818E4C359
:100D830096F608E496F608E496F608E496F62270DA
:100D930009080808226016181818C6C333C608C6FF
:100DA30033C608C633C608C633C6D5E0EA22E026F2
:100DB300F608A3E036F608A3E036F608A3E036F615
:100DC30022E647F60809E647F60809E647F6080962
:100DD300E647F622E0F608A3E0F608A3E0F608A348
:100DE300E0F622E6F008A3E6F008A3E6F008A3E69F
:100DF300F022E0FAA3E0FBA3E0FCA3E0FD22EAF08B
:100E0300A3EBF0A3ECF0A3EDF022CAC0E0E6F0A35D
:100E130008DAFAD0E0FA22CAC0E0E0A3C582CCC562
:100E230082C583CDC583F0A3C582CCC582C583CDDE
:100E3300C583DAE6D0E0CA22C3E498F8E499F9124C
:100E43000E7C8026C3E49AFAE49BFBE920E7E912CF
:100E53000E7CE498F8E499F922C3E498F8E499F94C
:100E6300120E7CE498F8E499F9C3E49AFAE49BFB44
:100E730022EB20E7CFE920E7E0B90010BB0008E848
:100E83008AF084F8AAF022E4FBC8FA22EB70227BF2
:100E930010C833C8C933C9335007C39AC3DBF280C0
:100EA300069A50012ADBEAC833F4C8C933F4C9FAF5
:100EB3002275F008E4C833C8C933C933C99AC99B3A
:100EC3005004C92AC93BD5F0ECFBC833F4C8E4C9C4
:100ED300FA22700422600D18C6C333C608C633C68F
:100EE300D5E0F41822251010AF08F51040021511B3
:100EF3008008F51040021511D2AF22C0D025101082
:100F0300AF08F510500205118008F51050020511C5
:100F1300D2AFD0D0222510F58210AF08F5104002D1
:100F230015118008F51040021511D2AF85118322E7
:100F3300C5822510C582C583351110AF07F511850C
:100F430082108007F511858210D2AFC58322251048
:100F5300F582E43511F58322C5822510C582C58348
:100F63003511C58322E4732510C582C0E0E5113431
:100F7300FFC583C0E0E510C3958224F810AF088550
:100F830083118582108008858311858210D2AFCEAC
:100F9300F0A3E520F0A37808E608F0A3DEFAEFF06B
:100FA300A3E58124FAF8E608F0A3E608F0A3E6082F
:100FB300F0A30808E608F0A3E608F0A3158115815D
:100FC300D0E0FED0E0F8158115811581E8C0E0EE90
:100FD300C0E022851183851082E0A3FEE0A3F52003
:100FE3007808E0A3F608DFFAE0A3FFE0A3C0E0E09F
:100FF300A3C0E0E0A3C0E0E0A3C0E0E0A3C0E01032
:10100300AF0885821085831180088582108583113E
:10101300D2AFD083D0820200FBC0D02510C582C0DE
:10102300E0E51134FFC583C0E0E510C3958224F3E6
:1010330010AF08858311858210800885831185820E
:1010430010D2AFC8F0A3E9F0A3EAF0A3EBF0A379C1
:1010530008E709F0A3D8FAECF0A3EDF0A3EEF0A3B0
:10106300EFF0A3D0E0F0A3D0E0F0A3D0E0F0A3E54D
:1010730020F0A3E5F0F0A322851183851082E0C060
:10108300E0A3E0F9A3E0FAA3E0FBA37808E0F60805
:10109300A3DFFAE0FCA3E0FDA3E0FEA3E0FFA3E0EF
:1010A300C0E0A3E0C0E0A3E0F5D0A3E0F520A3E017
:1010B300A3F5F010AF08858311858210800885831E
:1010C30011858210D2AFD082D083D0E0F8D0E03245
:1010D30074048006740280027401C0E0F404120FE9
:1010E30018D0E0120E0D227404800474028000CC28
:1010F300C0E0EDC0E0E510C39CCCAD1150011D1064
:10110300AF068C108D1180068C108D11D2AF120E8C
:101113001AD0E0FDD0E0FC22D083D082ECC0E0ED19
:10112300C0E0EEC0E0EFC0E0E493A3FCE493A3FDD2
:10113300E493A3FEE493A3FFEF4E4D4C601512110D
:1011430097EC24FFFCED34FFFDEE34FFFEEF34FF9C
:10115300FF80E5E493A3FCE493A3FDE493A3FEE4FF
:1011630093A3FFEF4E4D4C60151211D4EC24FFFCFA
:10117300ED34FFFDEE34FFFEEF34FFFF80E5D0E0FA
:10118300FFD0E0FED0E0FDD0E0FCE493A3C0E0E4B8
:1011930093C0E022C0E0C0F088F012052EA8F04012
:1011A300071204C0A8F0701AA3A3A3A312052EA8C4
:1011B300F0A3A3A3A34013D0F0D0E0D0E0D0E0028B
:1011C3001181A3A3A3A3A3A3A3A3A3A3D0F0D0E0BC
:1011D30022C0E0C0F088F01204C0A8F0A3A3A3A328
:1011E300700BD0F0D0E0D0E0D0E0021181A3A3D007
:1011F300F0D0E022C0E074F212101CC2DBC2C49033
:101203000FFDE02401F0A3E03400F0900FFDE06453
:10121300A17004A3E064077015900FFD7400F0A3A0
:101223007400F0900FFC7401F01202D78006900F47
:10123300FC7400F07F0102107BC0E074F112101CFB
:10124300C2C5E589607E7E0080747508017509005A
:10125300EE7808120ED5E508AF08E5895F605EEE0B
:10126300F87900E875F002A4C8AAF075F000A42A82
:10127300FA75F002E9A42AF974FF28F582740F398C
:10128300F583E0F8A3E0F9E849602EEEF87900E889
:1012930075F002A4C8AAF075F000A42AFA75F0024A
:1012A300E9A42AF974FF28F582740F39F583E0F86D
:1012B300A3E0F5838882120F68EFF452890EEEC320
:1012C300940840867F0202107BC0E074F112101C68
:1012D300C2EBE58A607E7E008074750801750900A3
:1012E300EE7808120ED5E508AF08E58A5F605EEE7A
:1012F300F87900E875F002A4C8AAF075F000A42AF2
:10130300FA75F002E9A42AF9740F28F582741039EA
:10131300F583E0F8A3E0F9E849602EEEF87900E8F8
:1013230075F002A4C8AAF075F000A42AFA75F002B9
:10133300E9A42AF9740F28F582741039F583E0F8CB
:10134300A3E0F5838882120F68EFF4528A0EEEC38E
:10135300940840867F0202107BC0E074F112101CD7
:10136300C2E8E58B607E7E00807475080175090014
:10137300EE7808120ED5E508AF08E58B5F605EEEE8
:10138300F87900E875F002A4C8AAF075F000A42A61
:10139300FA75F002E9A42AF9741F28F5827410394A
:1013A300F583E0F8A3E0F9E849602EEEF87900E868
:1013B30075F002A4C8AAF075F000A42AFA75F00229
:1013C300E9A42AF9741F28F582741039F583E0F82B
:1013D300A3E0F5838882120F68EFF4528B0EEEC3FD
:1013E300940540867F0202107BC0E074F212101C49
:1013F300A2AFE433FEC2AFE5E9A2E6502090102984
:10140300E0F8A3E0F9E849600E901029E0F8A3E0C2
:10141300F5838882120F68759B0053E9BFEEA2E043
:1014230092AF7F0102107BC0E074F212101C901087
:101433002BE0F8A3E0F9E849600E90102BE0F8A345
:10144300E0F5838882120F687F0102107BC0E0C041
:10145300D0E8C0E0E9C0E0C082C083E5C1C0E0904D
:1014630010AEE0F87900742D28F582741039F583F5
:10147300D0E0F09010ADE0F89010AEE0687006E5B3
:10148300959010AFF09010AEE024019010AEF0C331
:10149300948040069010AE7400F0D083D082D0E0E8
:1014A300F9D0E0F8D0D0D0E032C0E0C0D0E8C0E05E
:1014B300C008C009C082C083901130E0F890113198
:1014C300E068700B539AFB9011327401F08031C2C3
:1014D300E9901130E0F50874012508901130F0759A
:1014E300090074B02508F58274103509F583E0F519
:1014F300C1901130E0C3948040069011307400F025
:10150300D083D082D009D008D0E0F8D0D0D0E03258
:10151300C0E0C0D0E8C0E0E9C0E0C082C083E5F924
:10152300C0E09011B4E0F87900743328F5827411A7
:1015330039F583D0E0F09011B3E0F89011B4E0688E
:101543007006E5959011B5F09011B4E02401901167
:10155300B4F0C3948040069011B47400F0D083D0EB
:1015630082D0E0F9D0E0F8D0D0D0E032C0E0C0D0F3
:10157300E8C0E0C008C009C082C083901236E0F81A
:10158300901237E068700B539AF79012387401F099
:101593008031C2EA901236E0F508740125089012F2
:1015A30036F075090074B62508F58274113509F50E
:1015B30083E0F5F9901236E0C3948040069012362A
:1015C3007400F0D083D082D009D008D0E0F8D0D016
:1015D300D0E03274F0120F6A74FD120EE874021236
:1015E3000F51E9F08A088B098C0A8D0B7415120FC1
:1015F30051E0FEA3E0FF851082851183E4F0A3F0A0
:101603008E828F83A3AA82AB83901441780C120D30
:10161300D77808790C1206A570188E828F837469A7
:10162300121AB5746EF0A37466F0A30A0AAB8302B0
:101633001A50780879081206A560118E828F837478
:101643006E121AB57461F0A3746E80DD9014057880
:101653000C120DD77808790C1206D150030217002B
:101663009012E8780C120DD77808790C1206A56051
:10167300030217547417120F51E070030217968573
:101683001082851183C082C0837413120F511224F8
:10169300F3D083D082121A8E502C85108285118349
:1016A300C3E094FCA3E094FFA2D265D03340177447
:1016B30002120F51E41225C7F97413120F51C3E03C
:1016C30098F0A3E099F07413120F51121AAB741827
:1016D300120F51E070030217937417120F51E402B3
:1016E3001795901445780C120DD77808790C120BC6
:1016F30028851082851183E0240A12260490144958
:10170300780C120DD77808790C1206D140D49013B7
:101713005A780C120DD77808790C1206D1400302BF
:10172300167790135A780C120DD77808790C120B90
:10173300281225FB80D8901445780C120DD7780811
:10174300790C12076C851082851183E024F6121A36
:10175300AE90144D780C120DD77808790C1207202F
:1017630040D4901405780C120DD77808790C120721
:1017730020400302167790135A780C120DD778087D
:10178300790C12076C851082851183121AAB80D2F3
:101793007401F07402120F51E060077A007B0002BB
:1017A30018A2121A9A507D8E828F837430F0EAFE4B
:1017B300EBFF7413120F51E0FCA3E0FDEC4D700836
:1017C3007418120F51E0600B8E828F83742EF0A376
:1017D3000EAF837A007B0080118E828F8374301268
:1017E3001AD67413120F51121AABEA24FF1AEB34F0
:1017F300FFFB851082851183121A82500B7413121A
:101803000F511224F74970D185108285118374FF1B
:10181300C39CF874FF9DF9121A8E50030219707A53
:10182300010217A08510828511831224F3C3E49863
:10183300FAE499FB806985080C85090D850A0E85F4
:101843000B0F780C1205BAAC0CE50D3395E0F50ED1
:10185300F50F780C1205427808790C1208EC9013F6
:101863005A780C120DD77808790C12076CEC121AFF
:10187300D0EAF8EBF9E824010AE93400FBE84970FF
:101883001E7413120F511224F74970087418120FA3
:1018930051E0600B8E828F83742EF0A30EAF83749E
:1018A30013120F51121A82508D90135E780C120D81
:1018B300D77808790C1206D140030219707C01EE27
:1018C30024FFF8EF34FFF97415120F51E0F508A364
:1018D300E0F50988828983E0642E6010E02CF064CF
:1018E3003A70077430F07C0180027C00E8FAE9FB6F
:1018F300EA24FF18EB34FFF9C3E5089AE5099B4096
:10190300D2ECA2E050677402120F51E06036EEF899
:10191300EF800A121A6DE824FF18E934FFF9C3E5D2
:101923000898E509995018121A5AE0642E70E4E8F1
:1019330024FEF582E934FFF583121A67F980D71282
:1019430025FB801E8E828F83A3AE82AF83EEF8EFDA
:101953008006121A5A121A67F9C3E50898E509991D
:1019630040F07415120F511225127431F0741712CE
:101973000F51E07005801A1EAF83EE24FFF582EF4E
:1019830034FFF583E0643060EEE0642E70031EAF35
:10199300837402120F51E07003021A4C121AD2A37D
:1019A300A983121A9A8E828F835014742DF00EE934
:1019B300FF85108285118312253B121AC38006749A
:1019C3002BF00EE9FF7C007D00EE240AFEEF3400CD
:1019D300FFEC24010CED3400FD121A74120E74EAAC
:1019E300121AD0121A74120E74121ADD4970E2C35D
:1019F300EC9402ED1224A440D8ECFAEDFBC3E49C72
:101A0300F8E49DF9EE28F582EF39F583E0C0E0C3F1
:101A1300E49AF8E49BF9EE28F8EF39F9E82CF8E9B1
:101A23003DF9E824F5F582E934FFF583D0E0F0ECE5
:101A330024FF1CED34FFFDC3EC9401ED1224A450EC
:101A4300BCEE24F6FEEF34FFFFEEFAEFFB74031255
:101A53000EFE7F08020FD6E824FFFAE934FFFB8A63
:101A6300828B8322121A6D18EB22E088828983F01D
:101A7300228510828511831225487A0A7B0022C3AE
:101A8300E09AA3E09BA2D265D03322C3E098A3E0FF
:101A930099A2D265D03322851082851183C3A3E036
:101AA3009400A2D265D03322E024FFF0A3E034FFF8
:101AB300F022F0EAFEEBFF8E828F8322A3E0340054
:101AC300F9851082851183E8F0A3E9F02224308E92
:101AD300828F83F0A3AE82AF832285108285118328
:101AE300121AE722E8F0A3E9F0851082851183E05A
:101AF3002274F0120F6A74B0120EE88510828511F9
:101B0300831225AD7418120F51ECF0A3EDF0740F8E
:101B1300120F51E4F0A380227460120F511224E3D8
:101B23007404120F51E0F97418120F511225121296
:101B33000F68740F120F511224ACF0122526FA12FB
:101B430025E6120F51EAF074256A6010E070C9743B
:101B53000F120F511224E37450021A5212252664F5
:101B6300257019851082851183E0240108121ABF9C
:101B73007460120F511224E3792580AB740E120F97
:101B830051E4F0740D120F51E4F0740C120F51E490
:101B9300F07405120F51E4F0741E120F51A882A9BC
:101BA300837402120F5180157405120F51E07007F0
:101BB3007405120F51EAF0851082851183121AE31E
:101BC3001224DA12256DFA24E060DD24FD60172467
:101BD300F860DD24FE600624FD600F8011740C1292
:101BE3000F51E00480D0740D80F5740E80F112253E
:101BF3006D642A705B7462120F51122578FB8A821E
:101C03008B83E0FCA3E0FD740A120F51ECF0A3ED0B
:101C1300F0EA24020A0AEB3400FB7462120F511239
:101C230025A5740A120F51121AA0501F740A120F1D
:101C3300511224E3C3E49AFAE49BFB740A120F5192
:101C43001225AD740C120F51E004F0121AC4804A2D
:101C5300740A120F51E4F0A3802D740A120F51126B
:101C630024F775F00AA4F8AAF075F00AE9A42AF992
:101C7300E50828F8E439F9E824D0F8E934FFF974E1
:101C83000A120F5112260B1225C7F5838882E0F53D
:101C93000874D02508C3940A40C0740C120F51E095
:101CA3006007740E120F51E4F0122526642E6003B0
:101CB300021D3F851082851183E0240108A3E034CF
:101CC30000F9121ADD122517E0642A702C746212CF
:101CD3000F5112252CF8A3E0F988828983E0FEA333
:101CE300E0FFE824020808E93400F97462120F5196
:101CF30012256012260BF080477E007F008510823C
:101D030085118312253574D02508C3940A5031EE0A
:101D130075F00AA4FEA8F075F00AEFA428FFE50801
:101D23002EF8E43FF9E824D0FEE934FFFF85108262
:101D3300851183E02401F8121ABF80C17EFF7FFF63
:101D43007A008510828511831224D585108285112E
:101D530083E0FBA3E0F5838B82E024B4600824E4F2
:101D6300600524FC70040A121AC4122526FB1225EE
:101D7300E6120F51EBF0700302234A24BB700302F7
:101D8300221024FE70030221F224EF7003021F3C91
:101D930024F57003021E41147003021FE114700343
:101DA30002221014700302220E1470030221F22483
:101DB300FE7003021FE124FB6024147003021F2C36
:101DC300147003021F3C24FD7003021E7A24FE706C
:101DD30003021F3C24FD7003021F3C02235674625E
:101DE300120F5112259F120F51121ACAEAA2E07460
:101DF3000F5033120F51E0FCA3E0FD3395E0FE7466
:101E030006120F51122580ECF0A3EDF0A3EEF0A320
:101E1300F07462120F51122587120F51122560E8D8
:101E2300F0A3E9021B3D120F511224F37406120FA3
:101E330051122578F5838A82E8F0A3E980D274628F
:101E4300120F51122580E0C0E0741E120F51D0E032
:101E5300F07462120F51122587120F51122560126E
:101E63001ACA741F120F51A882A9837412120F5138
:101E7300E8F0A3E902236D7462120F5112259F1239
:101E83000F51121ACA7406120F5112259F120F51C5
:101E9300E02402FAA3E03400FB7462120F5112250E
:101EA300A57402120F51121ACAE849700C74021277
:101EB3000F51742EF0A37414F01224A250047E1058
:101EC3007F277408120F51E4F0A380087408120FDF
:101ED300511224ACF07402120F511224F388828938
:101EE30083A3AA82AB837402120F511225AD888299
:101EF3008983E0600A7408120F511224FC40CD74E8
:101F030002120F511224C37412120F51121ACA74FF
:101F130008120F5112253BF97412120F51E028F8E1
:101F2300A3E039F97402021E70740D120F51E060C0
:101F330008EE4F70047E017F007462120F51122568
:101F43009F120F511225F3120F51E0647070387411
:101F530006120F51122595120F511225CE120F5151
:101F6300E02402122557120F51122560121ACA904B
:101F73001451120DF5741A120F51120E0174051239
:101F83000F51E4F0022071EAA2E07406501B120F15
:101F930051122512120DF57414120F51120E017401
:101FA30006120F51E024048012120F5112259512CC
:101FB3000F511225CE120F51E02402122557120F92
:101FC300511225601225F3120F51E0646F700590D2
:101FD3001362809EE0647570969012D88094746248
:101FE300120F5112259F120F51121ACAEAA2E0745E
:101FF300065016120F511225127808120DD77406C7
:10200300120F51E02404F8801B120F51122535A33F
:10201300E0F5093395E0F50AF50B7406120F51E06C
:1020230024020808122558120F511225DB120F51F2
:102033007808120DE69012E878081204D94021744A
:1020430005120F51742DF07414120F517808120DEC
:10205300D77808120D817414120F517808120DE607
:102063009012D8120DF5741A120F51120E01744FFB
:10207300120F51A882A9837402120F51121ACA7443
:1020830012120F511225DE120F517808120DD7E5E7
:10209300084509450A450B60097411120F51740173
:1020A30080067411120F51E4F0EE4F7008E0A2E0C5
:1020B30040030221657402120F5112250C120F51B5
:1020C3001225DE120F51780C120DD7741A120F510C
:1020D3007808120DD7780C7908120D0E741D250897
:1020E300F58274143509F583E0C0E07402120F51D0
:1020F300122512D0E0F07414120F51780C120DD780
:10210300741A120F517808120DD7780C7908120D32
:102113000E7414120F51780C120DE67414120F5131
:102123007808120DD7E5084509450A450B70861254
:1021330024A2502E740E120F51E060267405120F64
:1021430051E06004D2F08002C2F0740A120F5112FF
:1021530024B5800E7402120F511225BF120F5112B3
:10216300251F7402120F511224C3744F120F51C052
:1021730082C0837402120F511224E3D083D082E50C
:1021830082C39AFAE5839BFBC3EA9EEB12250540C3
:10219300C3740D120F51E0700302236E7411120FFA
:1021A30051E0A2E0400302236E7404120F51E06475
:1021B300786005E06458701E121A6DE824FF18E970
:1021C30034FFF97402120F511225BF120F51122559
:1021D30012743002236DE0646F600302236E740295
:1021E300120F511225736430700302236E80D4746E
:1021F30008120F517401F0A3E4F07404120F51E0BC
:1022030024FEF0EE4F700F7E018012E4F07408128A
:102213000F51E4F0A3F01224A250047E067F007451
:1022230062120F5112259F120F51121ACA7406120D
:102233000F51122512780C120DD77406120F51E0AC
:102243002404122557120F511225DB120F51780C5B
:10225300120DE69012E87808120DD7780C7908125F
:10226300072050227405120F51742DF07414120FAD
:10227300517808120DD7E50BB2E7F50B7414120F62
:10228300517808120DE6740A120F511224F3741ECA
:10229300120F51E58228F8E58339F97402120F51C0
:1022A300121ACA740D120F51E0F50878081210DBE8
:1022B3007409120F51E0F50878081210DB74041248
:1022C3000F511210EE8E088F0978081210D7740A76
:1022D300120F51E0F9741A120F51120DF51204B1D5
:1022E3007406120EFE7412120F511225AD740E12E3
:1022F3000F51E060767405120F51E06004D2F08054
:1023030002C2F0740A120F511224B57412120F5143
:10231300C082C0837402120F511224F3D083D0827F
:10232300E0C398F8A3E099F9C3E89EE912250550A4
:102333003A7402120F5112250C120F511225BF12BB
:102343000F5112251F80C48510828511831224CC5E
:10235300121AC37402120F51743DF0A37414F07473
:1023630012120F517440F0A37414F07412120F512F
:10237300C082C0837402120F511224F3D083D0821F
:10238300E0C398FEA3E099FF740A120F511224FCD4
:10239300500A7408120F51E4F0A380307405120F31
:1023A30051E06004D2F08002C2F0740A120F51E0CF
:1023B300C39EF8A3E09FF9A2F0E433FAE89AF8E9A0
:1023C3009400F97408120F51E8F0A3E9F0740C12A9
:1023D3000F51E0702B80197460120F511224E9120F
:1023E3000F51122512120F68740F120F511226018A
:1023F3007408120F511225B3120F51121AA050D79D
:102403007405120F51E060507460120F511224E3EF
:102413007405120F51E0F97418120F51122512129C
:102423000F68802C7460120F511224E37402120F90
:102433005112252CF97418120F51122512120F681C
:102443007402120F511224D57402120F51121ACAB8
:10245300740F120F51122601EE24FF1EEF34FFFFFB
:10246300C31224A450BE740C120F51E07003021B5C
:102473003E7408120F511225B3120F51121AA050B5
:1024830003021B3E7460120F511224E9120F511202
:102493002512120F68740F120F5112260180D2C336
:1024A300EF9400A2D265D03322E02401F0A3E034FC
:1024B3000022A2F0E433F8E098FEA3E09400FF22A8
:1024C3001224C7221224CCF922E024FFF8A3E0341B
:1024D300FF22E01224DA222401F8A3E03400F922D7
:1024E300E0FAA3E0FB22E0FAA3E0FB7920741822D0
:1024F30012254822122548E822C3E09EA3E01225B4
:1025030005229FA2D265D033221224C7740222125D
:10251300251622E0F8A3E0F583888222122516749B
:1025230030F0228510828511831225302212254E28
:10253300E022122530F50822122548C3E498F8E476
:10254300992212254EE0F8A3E0F922E0F8A3E0F582
:1025530083888222F8A3E03400F97462221225648E
:1025630022E0FAA3E0F5838A822285108285118313
:10257300122564E022122564E0FAA3E0221225303A
:10258300122517221225302402F8A3E03400F9742F
:102593006222122545E8FAE9FB74142212254574D8
:1025A3000622E0FCA3E0F5838C82EAF0A3EBF022A1
:1025B300E024FFF0A3E034FFF0740822E8F0A3E97D
:1025C300F0740222121AEBF8A3E022EAF0A3EBF074
:1025D300A3E4F0A3F0740622122564E8F0A3E9F063
:1025E300741422851082851183E0240108122619B0
:1025F300E8F0A3E9F0740422851082851183E024B6
:1026030001F0A3E03400F022121AE72401F81226A5
:1026130019E8F0A3E922A3E03400F98510828511BB
:10262300832274F0120F6A74FC120EE885108285FF
:102633001183EAF0A3EBF0A3ECF0A3EDF09012E822
:102643007808120DD7801E000000009012D4780C79
:10265300120DB1901362780C12050F50EA9012D448
:102663007808120DB1851082851183780812050F41
:10267300400A9012E8780C120DD780D77404120E1A
:10268300FE7F08020FD6C082C0831203CD1203E57A
:102693001203EBE9901366120DF51203BBD083D03E
:1026A300820200FB740169600853F4DF43FE20805B
:1026B3000C53F4DF53FEDF53F6DF53F7BF0200FB87
:1026C30053F4BF43FE4053F4DF43FE20D296D2952A
:1026D3000200FB74F7120F6A89087E007F8080274F
:1026E300C2959012D4120DF51203BBD2969012E448
:1026F300120DF51203BBC2969012D4120DF51203FC
:10270300BB75F002EF84FFEFC394014009EF550856
:1027130060CED29580CCD2959012D4120DF51203CF
:10272300BBD29679011203C77F00800A9012D4129C
:102733000DF51203BB0FEFC394FF500AE59054202D
:10274300FE74016E60E679001203C7C296EEF97F4C
:1027530001020FD674F7120F6AE9FE750800D295CD
:1027630079011203C77F808023D2969012E4120D61
:10277300F51203BBA2955003EF4208C29690136A69
:10278300120DF51203BB75F002EF84FFEFC3940142
:1027930050D779001203C7EE7004780180027800E5
:1027A300E8A2E092959012D4120DF51203BBD296D3
:1027B3009012E4120DF51203BBC2969012D4120DBF
:1027C300F51203BBD295A9087F01020FD6C082C0C0
:1027D30083D295C2969012D4120DF51203BBD296F2
:1027E3009012D4120DF51203BBC2959012D4120DA0
:1027F300F51203BBC2969012E4120DF51203BBD27D
:10280300969012D4120DF51203BBD2959012D412E6
:102813000DF51203BBC296D083D0820200FB74F77E
:10282300120F6AD295C2967E0080179012D4120DB1
:10283300F51203BBD2969012D4120DF51203BBC24C
:10284300960EEEC3940940E31203DF7F01020FD615
:1028530074F7120F6A7E001203E5791E1203D3E99F
:102863002EFEF97F01020FD674F2120F6A8A0A8BC9
:102873000B8C0C8D0D89097508001203DFE50960C7
:102883000514600E801679031203D3E92508F508B1
:10289300800A79051203D3E92508F50879011203A3
:1028A300C77E007F0080119012E4120DF51203BB66
:1028B300EE2401FEEF3400FFC3EE94FFEF94FF50CC
:1028C30004A29540E2A2955002050879001203C7BD
:1028D30079011203D9E9850A82850B83A3F0790173
:1028E3001203D9E9850A82850B83F079001203D993
:1028F300E9850C82850D83F0A9087F06020FD67443
:10290300F0120F6A74DE120EE87404120F51EAF02B
:10291300A3EBF0ECFEEDFF90136E120DF5741E1297
:102923000F51120E01901372120DF5741A120F51FA
:10293300120E01901376120DF57416120F51120E2A
:102943000190137A120DF57412120F51120E0190A9
:10295300137E120DF5740E120F51120E0174041230
:102963000F51E0F8A3E0F5838882120DF5851082FC
:10297300851183120E018E828F837808120DD790F2
:10298300137A780C120DD77808790C12076C901310
:1029930082780C120DD77808790C1209117406127B
:1029A3000F517808120DE67416120F517808120DA4
:1029B300D7851082851183780C120DD77808790C8E
:1029C30012076C851082851183780C120DD7780855
:1029D300790C12076CC008C009C00AC00B741A1224
:1029E3000F51780C120DD785108285118378081248
:1029F3000DD7780C790812076CD00BD00AD009D008
:102A0300087808790C120911741E120F51780C12F0
:102A13000DD77808790C120911740A120F5178082E
:102A2300120DE67406120F517808120DD790138613
:102A3300780C120DD77808790C120911C008C00957
:102A4300C00AC00B740E120F517808120DD78510EF
:102A530082851183780C120DD77808790C12076CD4
:102A63007412120F51780C120DD77808790C1209D1
:102A730011D00FD00ED00DD00C780C790812076C42
:102A8300740A120F517808120DD7780C79081209BD
:102A93001190138A7808120DD7780C79081206D191
:102AA300500890138E780C120DD790139278081259
:102AB3000DD7780C79081207205008901392780CE0
:102AC300120DD77406120F51120DF58E828F8312D9
:102AD3000E017404120F51E0F8A3E0F583888278A5
:102AE3000C120DE67422120EFE7F08020FD674F04C
:102AF300120F6A74FC120EE88A088B098C0A8D0B7C
:102B0300AA08AB09AC0AAD0B1204878A088B098C9F
:102B13000A8D0B901396780C120DD77808790C1246
:102B2300091190139A780C120DD77808790C120BAF
:102B330028C008C009C00AC00B7414120F517808CA
:102B4300120DD790139E780C120DD77808790C12BA
:102B5300076CC008C009C00AC00B7414120F517867
:102B63000C120DD79013A27808120DD7780C7908A0
:102B7300120911D00BD00AD009D0087808790C12A9
:102B83000B28D00FD00ED00DD00C780C7908120979
:102B930011851082851183780C120DE685108285CC
:102BA30011837808120DD79013A2780C120DD778E1
:102BB30008790C12076CC008C009C00AC00B750C59
:102BC300C3750DF5750E8C750F41851082851183C4
:102BD3007808120DD7780C79081208ECD00BD00ABC
:102BE300D009D0087808790C120B28AA08AB09ACD5
:102BF3000AAD0B7404120EFE7F08020FD674F01296
:102C03000F6A74F3120EE8740B120F51EAF0A3EB80
:102C1300F07409120F51ECF0A3EDF01203E57E00FE
:102C23007901851082851183AC82AD837405120FFF
:102C330051AA82AB831203F1E92EFE79008510823B
:102C4300851183AC82AD837401120F51AA82AB83C9
:102C53001203F1E92EFE60051203E5805574051297
:102C63000F51E0F508A3E0F509E4F50AF50B780840
:102C730012055D7405120F517808120DE6740112E6
:102C83000F51E0F508A3E0F509E4F50AF50B780820
:102C930012055D7401120F517808120DE6740112CA
:102CA3000F51AC82AD837405120F51AA82AB83120C
:102CB30003F77401120F517808120DD790135A7845
:102CC3000C120DD77808790C12076C90135E780CF0
:102CD300120DD77808790C12091190135A780C1237
:102CE3000DD77808790C120B2878081205BA740BE3
:102CF300120F51E0F8A3E0F5838882E508F0A3E51D
:102D030009F07405120F517808120DD790135A78F1
:102D13000C120DD77808790C12076C90135E780C9F
:102D2300120DD77808790C12091190135A780C12E6
:102D33000DD77808790C120B2878081205BA740994
:102D4300120F51E0F8A3E0F5838882E508F0A3E5CC
:102D530009F0740D120EFE7F08020FD674F7120FDE
:102D63006A74FC120EE8E9FF7E00120301EFF91208
:102D7300040F12042DE99013C2120DF512031F85DF
:102D83001082851183AA82AB83120415E9FE851094
:102D9300828511831210EA7AA67B131204997404B4
:102DA300120EFEEEF97404120EFE7F01020FD6C05E
:102DB30082C083E990123AF0D083D0820200FB7480
:102DC300F0120F6A74FA120EE87404120F51EAF04B
:102DD300A3EBF0120439E9FE7A807B3712044BE946
:102DE300CE4EFEEE700512043FE9FEEE70137C64D6
:102DF3007900851082851183AA82AB83120451E97D
:102E0300FEEE70127C0079017402120F51AA82AB9C
:102E130083120451E9FE120445EE70438510828546
:102E23001183E0F50CA3E0F50DE4F50EF50F741036
:102E3300780C120D927402120F51E0F508A3E0F51D
:102E430009E4F50AF50B780C7908120DC474041221
:102E53000F51E0F8A3E0F5838882780C120DE6EEBB
:102E6300F97406120EFE7F08020FD674F7120F6A6A
:102E7300E9FE7409120F51E0F8740A120F51E0F9D8
:102E8300E86005146018802CE9F50878081210DB57
:102E9300EEF91204217401120EFEE9F98018E9F526
:102EA3000878081210DBEEF91204277401120EFEE3
:102EB300E9F9800279807F01020FD674F3120F6A59
:102EC30074FC120EE88A0A8B0B8C088D09E9FE74D8
:102ED30011120F51E0F50C120439E9FFEF702CEEDB
:102EE300601C14600E1470217A107B2C12044BE9C1
:102EF300FF80187A0D7B2C12044BE9FF800D7A06B4
:102F03007B2C12044BE9FF80027F80EF70051204D3
:102F13003FE9FFEF7012AC0C79007402120F51AA53
:102F230082AB83120451E9FFEF70137C00790185B2
:102F33001082851183AA82AB83120451E9FF120424
:102F430045EF702D7402120F51E0FAA3E0FB120457
:102F530063850A82850B83120E0185108285118396
:102F6300E0FAA3E0FB120469850882850983120E47
:102F730001EFF97404120EFE7F05020FD674F212EC
:102F83000F6A74FC120EE88A0C8B0D8C0A8D0BE908
:102F9300FF7412120F51E0F509120439E9F508E53F
:102FA300087030EF601E14600F1470247A167B24AF
:102FB30012044BE9F508801B7A0B7B2412044BE9BE
:102FC300F508800F7A007B2412044BE9F50880038F
:102FD300750880E508702680099012EC120DF51231
:102FE300031FAE0974FF2EF509EE600A12043FE9D0
:102FF300F508E50870E3E5097003750804E5087052
:10300300277C0079007402120F51AA82AB83120449
:1030130051E942087C007901851082851183AA82D7
:10302300AB83120451E94208120445E508702D747C
:1030330002120F51E0FAA3E0FB120463850C8285B0
:103043000D83120E01851082851183E0FAA3E0FB44
:10305300120469850A82850B83120E01A908740480
:10306300120EFE7F06020FD674F7120F6A1204398E
:10307300E9F5087AA27B3012044BE94208120445B1
:10308300E50870099013C2120DF512031FA9087FFA
:1030930001020FD6C082C0839013C6120DF512032E
:1030A3001F9013C2120DF512031FD083D0820200AA
:1030B300FBC082C08312030790123AE0C333F912B4
:1030C3000313E9F9D083D0820200FBC082C08312CC
:1030D300030790123AE0C3334401F9120313E9F9E9
:1030E300D083D0820200FBC082C08312030DD08341
:1030F300D0820200FB74F7120F6AEAFEEBFFEEF8D0
:10310300EFF9E4E9F8F9120313E9F508EEF912030C
:1031130013E94208A9087F01020FD674F6120F6A59
:1031230074FD120EE88A088B09E9FEECFFFC7900B6
:103133007401120F51AA82AB83120319E9F9E970E2
:10314300127C0079007402120F51AA82AB8312031E
:1031530019E9F9E970137C00EEF985108285118372
:10316300AA82AB83120319E9F9E9701885108285E5
:103173001183E0FC79027401120F51AA82AB83120E
:10318300045DE9F97401120F51E0FA7B00E4CAFB14
:103193007402120F51E0FC7D00EA4CFAEB4DFB8503
:1031A3000882850983EAF0A3EBF07403120EFE7F15
:1031B30002020FD674F6120F6AE9FD79FF780080D8
:1031C3000108E8C39D502F8808750900EA2508F512
:1031D30082EB3509F583E0C969F97C088005E9C309
:1031E30033F91CECC3940140D8E9A2E750F0E9C3DA
:1031F300336431F980EC7F02020FD674F7120F6A41
:10320300E9FEECFFEEF9120457E9F8EF6860047980
:1032130002800279007F01020FD674F0120F6A8ACE
:10322300088B09E4F50AF50B780812055D9013CEB7
:10323300780C120DD77808790C12076C9013D2789A
:103243000C120DD77808790C120B289013CA780C3E
:10325300120DD77808790C120911AA08AB09AC0A28
:10326300AD0B7F08020FD674F0120F6A8A088B0920
:10327300E4F50AF50B780812055D90138E780C12AD
:103283000DD77808790C12076C9013D2780C120DB5
:10329300D77808790C120B28AA08AB09AC0AAD0B36
:1032A3007F08020FD674F7120F6AE9FEEAF8EBF90A
:1032B300E8FAE9FB740B2E8A828B83F0900F07E008
:1032C300F8A3E0F5838882A3A3A3A3A3E060067811
:1032D300617988800478417988E88A828B83A3F0B6
:1032E300E98A828B83A3A3F0900F00E08A828B8309
:1032F300A3A3A3F0900F07E0F8A3E0F5838882A3CC
:10330300A3E0F8A3E0F98A828B83A3A3A3A3E8F045
:10331300A3E9F08A828B83A3A3A3A3A3A3ECF0A3C3
:10332300EDF0900F07E0F8A3E0F5838882E0F8A3BF
:10333300E0F98A828B83A3A3A3A3A3A3A3A3E8F0A7
:10334300A3E9F0790A7F01020FD674F2120F6AEC37
:10335300FEEDFF8908A908EAFCEBFD7A097B0F1251
:1033630002A7E9FB7A0080348A0A750B00EE250A6E
:10337300F582EF350BF583E0C0E08B0A750B008A0D
:103383000C750D00E50C250AF8E50D350BF9E8245D
:1033930009F582E9340FF583D0E0F00AEAC3950812
:1033A30040C6E5082BF97F06020FD674F7120F6AA1
:1033B3007E7C7F0F12038B12032B7901EEFAEFFB56
:1033C3001203738E828F83E0C2E7F08E828F83E0D5
:1033D300640570538E828F83E0F97A7D7B0F12032D
:1033E300738E828F83A3E0A2E55004D2F08002C2E1
:1033F300F0A2F0E492E09012CCF07880790F88820A
:103403008983A3E0A2E740030234C28E828F83A3A1
:10341300A3A3E0FA900F00E06A60030234C27401D0
:10342300900F01F00234C28E828F83E024F5901254
:10343300C9F08E828F83E0F97A7D7B0F1203738E3E
:10344300828F83A3E0A2E55004D2F08002C2F0A2EF
:10345300F0E492E09012CCF08E828F83A3A3A3A317
:10346300A3A3A3A3E0F8A3E0F99012C5E8F0A3E9AE
:10347300F09012CA7486F0A3740FF09012C9E0F8AA
:103483003395E0F99012CAE028F8A3E039F988826D
:103493008983E09012CDF088828983A3E0A2E7506C
:1034A300128E828F83A3E054DF644170067401900F
:1034B30012CEF08E828F83A3A3A3E09012C4F012E6
:1034C30003311203917F01020FD674F4120F6AEADB
:1034D300FEEBFF120355E964017004790180731256
:1034E3000331900F07EEF0A3EFF09012CA7400F0CF
:1034F300A37400F07401900F02F09012E8780812A0
:103503000DD7900F037808120DE6900F07E0F8A38C
:10351300E0F5838882A3A3A3A3E0F912035B900FD2
:1035230007E0F8A3E0F5838882E0FAA3E0FB120347
:1035330061900F07E0F8A3E0F5838882A3A3E0FA84
:10354300A3E0FB1203677AB37B0212039712032BE8
:1035530079007F04020FD674F4120F6AEAFEEBFFC0
:103563008C0A8D0B8908900F02E0700312037FE52C
:1035730008C39467500585080980037509678509A1
:103583000812039D12038BA908AC0AAD0BEEFAEFE8
:10359300FB1202ADE9F97A097B0F12036D12039155
:1035A300120379E9900F07E0F8A3E0F5838882A37B
:1035B300A3A3A3A3E0601C7400900F01F07A4A7BDD
:1035C30002120349900F01E0600474008002740149
:1035D300FE80027E00900F02E07003120385EE70FE
:1035E30007900F00E02401F0EEF97F04020FD6C02C
:1035F30082C0837401900F02F012037FD083D082C4
:103603000200FBC082C0837944120409E9600B12F3
:1036130003C19012397400F080069012397401F0DE
:10362300D083D0820200FB74F0120F6A74F0120E82
:10363300E87402120F51EAF0A3EBF08510828511B2
:1036430083ECF0A3EDF0901239E0700302374D7E66
:103653000075083278081210DB750801780812101B
:10366300DB7900740A120F51AC82AD83740E120F12
:1036730051AA82AB8312041B7402120EFEE9FE6090
:103683000A12042DE9FE60031204337408120F5169
:103693001210EA7410120F511210EA7AF07B121210
:1036A30004997408120EFE740C120F517808120D4F
:1036B300D790135A780C120DD77808790C12076C2F
:1036C30090135E780C120DD77808790C12091190BB
:1036D300135A780C120DD77808790C120B28780836
:1036E3001205BA7402120F51E0F8A3E0F583888241
:1036F300E508F0A3E509F07408120F517808120DDC
:10370300D790135A780C120DD77808790C12076CDE
:1037130090135E780C120DD77808790C120911906A
:10372300135A780C120DD77808790C120B287808E5
:103733001205BA851082851183E0F8A3E0F583882A
:1037430082E508F0A3E509F080747404120F51AC0C
:1037530082AD837406120F51AA82AB8312040374E1
:1037630006120F51E0F8A3E0F9E8F83395E0F97495
:1037730002120F51E0FAA3E0F5838A82E8F0A3E98D
:10378300F07404120F51E0F8A3E0F9E8F87900852A
:103793001082851183E0FAA3E0F5838A82E8F0A31F
:1037A300E9F07404120F511210EE7408120F511243
:1037B30010EE7A0D7B131204997404120EFE851019
:1037C30082851183E0F8A3E0F5838882E0F508A3FE
:1037D300E0F509E4F50AF50B780812055D7808129F
:1037E30010D37406120F51E0F8A3E0F5838882E04A
:1037F300F508A3E0F509E5093395E0F50AF50B783B
:1038030008120542AA08AB09AC0AAD0B1203FD74FA
:1038130004120EFE8A088B098C0A8D0B8510828593
:103823001183E0F8A3E0F58388821210EE7404128A
:103833000F51E0F8A3E0F58388821210EE7A297B1A
:10384300131204997404120EFE78081210D37A43EB
:103853007B131204997404120EFE7410120EFE7F71
:1038630008020FD6740169600853F4DF43FE208019
:103873000C53F4DF53FEDF53F6DF53F7BF0200FBB5
:10388300740169600853F4BF43FE40800C53F4BFD6
:1038930053FEBF53F6BF53F7BF0200FB53F4BF43BE
:1038A300FE4053F4DF43FE20D296D2950200FBC0C4
:1038B30082C083D2959012D4120DF512031FD296B3
:1038C3009012D4120DF512031FC2959012D8120D47
:1038D300F512031FC2969012D8120DF512031FD0D2
:1038E30083D0820200FBC082C083C2969012D4129E
:1038F3000DF512031FC2959012D4120DF512031F7A
:10390300D2969012D8120DF512031FD2959012D8A9
:10391300120DF512031FD083D0820200FB74F7123D
:103923000F6AE9FF7E007508808027D2959012D434
:10393300120DF512031FD2969012DC120DF512032D
:103943001FC2969012D4120DF512031FE508C3137C
:10395300F508E508C394014009E5085F70CDC295F9
:1039630080CBD295D2969012D4120DF512031F7903
:10397300011202F5A29550027E01C2969012E01246
:103983000DF512031F79001202F5EEF97F01020F04
:10399300D674F4120F6AEAFEEBFF890A8C087509E4
:1039A300008E828F837400F0D29579011202F5752F
:1039B3000B808039D2969012D4120DF512031FA9F1
:1039C30008120325E9F5099012E4120DF512031FFD
:1039D300A29550088E828F83E0450BF0C296901219
:1039E300D4120DF512031FE50BC313F50BE50BC33F
:1039F300940150C079001202F5E50A7004C2958063
:103A030002D2959012D4120DF512031FD296901282
:103A1300DC120DF512031FC296D2959012E0120D1F
:103A2300F512031FA9097F04020FD674F0120F6A5F
:103A33008A088B098C0A8D0B9012E8780C120DD72B
:103A4300800C000000009012D4780C120DB178089D
:103A5300790C1204FF40EB7F08020FD674F7120FA4
:103A63006AE9FF7E0079011202FB80099012EC12D1
:103A73000DF512031FA296400F8F0874FF2508FF50
:103A8300E50870E87904800779001202FBEEF97FFC
:103A930001020FD674F0120F6A74F6120EE8851045
:103AA30082851183EAF0A3EBF0A3ECF0A3EDF0859C
:103AB30010828511837808120DD79012D4780C12D6
:103AC3000DD77808790C12072050338510828511A1
:103AD300837808120DD79012E8780C120DD7780866
:103AE300790C1206A59012C2700A7422123C9D7DB5
:103AF300FF023C937421123C9D7D7F023C9374042E
:103B0300120F5185820885830978081210D7740231
:103B1300120F51120DF512047B7402120EFE851062
:103B230082851183120E0185108285118378081214
:103B33000DD79013FD780C120DD77808790C120766
:103B43002050328510828511837808120DD77401B5
:103B5300C31313250AF50AE4350BF50B851082858B
:103B630011837808120DE67404120F51E024FFF05C
:103B7300A3E034FFF08510828511837808120DD7F6
:103B8300901401780C120DD77808790C120911C022
:103B930008C009C00AC00B851082851183780C12F6
:103BA3000DD79014057808120DD7780C79081209EF
:103BB30011D00BD00AD009D0087808790C120B2841
:103BC3008510828511837808120DE6851082851190
:103BD300837808120DD7851082851183780C120D16
:103BE300D77808790C12076C7406120F51780812F3
:103BF3000DE67404120F51E0F5083395E0F509F56D
:103C03000AF50B7808120542901409780C120DD7A7
:103C13007808790C12076CC008C009C00AC00B747D
:103C230006120F517808120DD790140D780C120D4F
:103C3300D77808790C12076C901411780C120DD7F1
:103C43007808790C1209117406120F51780C120DB1
:103C5300D77808790C12076C901415780C120DD7CD
:103C63007808790C120911851082851183780C125A
:103C73000DD77808790C12076CD00FD00ED00DD069
:103C83000C780C7908120911AA0CAB0DAC0EAD0F10
:103C9300740A120EFE7F08020FD6F0A3E4F07AFF37
:103CA3007BFF7C7F2274F4120F6A8A088B098C0ACB
:103CB3008D0B53F1FE43F30C53F2F375868075C4F9
:103CC30080780812111B000000000C000000B004F3
:103CD30000001B3D60090000233DC01200002B3D86
:103CE30080250000333D403800003B3D004B000081
:103CF300433D807000004B3D00960000533D00E1C2
:103D030000005B3D002C0100633D00C201006B3DE0
:103D130000840300733D7B3D75C23B75C505805E22
:103D230075C23B75C506805675C23B75C507804E87
:103D330075C23B75C508804675C2D875C508803EF7
:103D430075C23B75C509803675C2D875C509802E05
:103D530075C23B75C50A802675C2D875C50A801E13
:103D630075C23B75C50B801675C2D875C50B800E21
:103D730075C2D875C50C800675C23B75C50A75C476
:103D830002438640D2AA75C1009010AD7400F09032
:103D930010AE7400F09011307400F0901131740083
:103DA300F09010AF7400F09011327400F07F0402B1
:103DB3000FD674F7120F6A901130E0F8901131E0CA
:103DC300C398501F901130E0F87900901131E0FE54
:103DD3007F00E8C39EF8E99FF9E824FFF8E934FF80
:103DE300F98037901131E0F87900C3E498F8E49949
:103DF300F9901130E0FE7F00E82EF8E93FF9E8245E
:103E03007FF8E93400F9C3E89CE99D5004D2F080BF
:103E130002C2F0A2F0E433F87900E84960067A00C0
:103E23007B00805E780079008012901131E02401DC
:103E3300F0439A04E82401F8E93400F9C3E89CE963
:103E43009D503B8A828B83E0C0E0901131E0FE7F7E
:103E53000074B02EF58274103FF583D0E0F08A82AF
:103E63008B83A3AA82AB839011327400F09011313B
:103E7300E0C3947F40B49011317400F080B3E8FA4A
:103E8300E9FB7F01020FD6C082C083E9F879008085
:103E9300108A828B83E029F98A828B83A3AA82AB5F
:103EA30083E8FC74FF2CF8EC70E7D083D082020027
:103EB300FBC082C08390123D74C2F0A374D0F09013
:103EC300123F7410F090123B74BDF0A374C2F090D3
:103ED30012407401F07A3B7B121202B9E96401606B
:103EE300F41202C5D083D0820200FB74FC120EE8E8
:103EF3001202E91204751202CB1202D11202DDE999
:103F03009012C1F09012C1E0640170F07402120FBC
:103F130051AC82AD83851082851183AA82AB831253
:103F230003B57402120F511210EE7402120F5112E4
:103F330010EE7AD67B131202E37404120EFE750898
:103F43008075090078081210D77C007D007A417BC8
:103F53001212048D7402120EFE90124174CCF09072
:103F630012427401F09012437408F09012447402E8
:103F7300F09012457401F0851082851183E0F8A357
:103F8300E0F9E8901246F09012477402F0740212BE
:103F93000F51E0F8A3E0F9E8901248F0901243E0E3
:103FA300F97A417B1212046FE9901249F09012439F
:103FB300E02401F97C417D127AF37BB41202BFE95C
:103FC30079011203377A647B0012034F79011203DC
:103FD3003D1202D1023EFFC082C083906189E0445A
:103FE30060F090619074D5F09061FA7409F090617B
:103FF300B27415F09061AE7400F01203917900D0A1
:1040030083D0820200FBC082C08375F005E9A4243B
:10401300D490618FF0D083D0820200FBC082C08332
:10402300EA906174F0E4EBFA906175F0D083D0828A
:104033000200FBC082C083EA906172F0E4EBFA9065
:104043006173F0D083D0820200FB74F6120F6A759D
:10405300E1EE7591FD780080138808750900EA2563
:1040630008F582EB3509F583E0F5D908E8C39940F3
:10407300E87F02020FD6C082C0838011E5D98A820D
:104083008B83F08A828B83A3AA82AB8319E9C394BF
:104093000150E9D083D0820200FB75E1E9E591A2EA
:1040A300E150FA7591FD79000200FB75E1EC75E1D1
:1040B300E30200FB75E1EF75E1EC0200FBC082C097
:1040C300839061A3E0C2E6F0539AFED083D08202CC
:1040D30000FBC082C0839061A3E0D2E6F0439A0163
:1040E300D083D0820200FBC082C083A2AFE433F846
:1040F300C2AF901029EAF0A3EBF0E8A2E092AFD0B0
:1041030083D0820200FBC082C083906193E054227B
:1041130070F8D083D0820200FBC082C0838A828B76
:10412300831241A1E9F08A828B83E02401FCA3E09E
:104133003400FD8A828B83ECF0A3EDF0D083D08230
:104143000200FB74F6120F6A74FE120EE8851082E9
:10415300851183EAF0A3EBF0ECFAEDFB740C120F7C
:1041630051E0F508A3E0F50978081210D77402129C
:104173000F5185820885830978081210D77CA57DA5
:10418300041204B77404120EFE8510828511831283
:1041930041A1E4F07402120EFE7F02020FD6E0F892
:1041A300A3E0F58388822274F6120F6A7582FE7586
:1041B30083FE120F3375820C758301120F5BA88285
:1041C300A983851082851183E8F0A3E9F085108225
:1041D30085118385820885830978081210D7EAFC44
:1041E300EBFD7404120F51AA82AB831204AB740269
:1041F300120EFE7402120F51AA82AB8312049FEABD
:10420300FCEBFD7402120F51AA82AB831203A99235
:10421300F0758202758301120F33A2F07F02020F41
:10422300D674F0120F6A8A088B098C0A8D0B9012D0
:10423300D4780C120DD77808790C120720502690E9
:1042430012E8780C120DD77808790C1206A5901293
:10425300C27009742212428F7DFF802B7421124297
:104263008F7D7F80221204818A088B098C0A8D0B33
:10427300901419780C120DD77808790C12076CAAD0
:1042830008AB09AC0AAD0B7F08020FD6F0A3E4F02C
:104293007AFF7BFF7C7F22C082C08379001202EF0A
:1042A300D083D0820200FBEBC313FBEA13FAEAF8D4
:1042B300EBF9E824FFFAE934FFFBE8496012000058
:1042C300000000000000000000000000000080DE8D
:1042D3000200FB74F7120F6AEAFEEBFFEEF8EFF948
:1042E300E824FFFEE934FFFFE84960097AE87B032D
:1042F30012034980E77F01020FD674F0120F6A8A16
:10430300088B098C0A8D0B7410120F51E0F8A3E08F
:10431300F9E8FAE9FB9012E8780C120DD7780879DE
:104323000C1206A5700E8A828B83E4F0A3F0FAFBCD
:10433300FCFD8022EC33ED332482F83395E0F98AD7
:10434300828B83E8F0A3E9F0AA08AB09ED5480441B
:104353003FFDECC2E7FC7F08020FD674F6120F6A2A
:10436300E9FA7B001204BD7F02020FD674F6120F26
:104373006A74FE120EE8740C120F51A882A9838589
:104383001082851183E8F0A3E9F0851082851183FB
:1043930085820885830978081210D7E4F508F509A2
:1043A30078081210D77C937D041204B77404120E9C
:1043B300FE7402120EFE80AF43EBE053EBEF53EBC0
:1043C300F743EB04C2BC0200FBC082C08343EB088B
:1043D30053EBFC43EB10D2BC900FFC7400F01203C0
:1043E300AFD083D0820200FB53EBF753EBEFC2BC99
:1043F3000200FBC082C083900FFCE0F9D083D0821F
:104403000200FBE914600B14600C14600D14600EC1
:10441300800ED290800AD2918006D2938002D294E9
:104423000200FBE914600B14600C14600D14600EA1
:10443300800EC290800AC2918006C2938002C29409
:104443000200FBC082C08312034353F4FEC29043B5
:10445300FE0153F4FDC29143FE0253F4F7C29343AA
:10446300FE0853F4EFC29443FE109012D0120DF5E0
:104473001203A312032BD083D0820200FBE5C654A0
:1044830080F853BEFBE59DA2E550FAE59DA2E2400C
:10449300F4007401697007744948F5C68005E97032
:1044A3000288C6E5C6F8E59EFAE86A70F943BE04D9
:1044B3000200FB74F7120F6A7409120F51E0F8A39C
:1044C300E0F98A828B838003ECF0A3E8FEE9FFEE38
:1044D30024FF18EF34FFF9EE4F70ED7F01020FD682
:1044E300C082C0838A828B838001A3E070FCE58253
:1044F300C39AFAE5839BFBD083D0820200FBD2AF41
:084503000200FBC2AF0200FB45
:04000005000000E314
:00000001FF
