:020000040000FA
:030000000200E318
:0300130002132FA6
:03001B000213F2DB
:0300330002123B7B
:03003B0002138B22
:03004B0002130994
:030063000210D6B2
:03006B0002111B64
:0300730002144E26
:03007B000211ABC4
:100083000212CB00000080FB120113B9000302002F
:10009300CDE4900F0078C179048002F0A3D8FCD995
:1000A300FA9012C0AA82AB8390011678A3790180DB
:1000B30015E493A3AC82AD838A828B83F0A3AA82D7
:1000C300AB838C828D83D8E9D9E77582A875832A9F
:1000D30074001200F575828675830074001200F5B2
:1000E30075D0007581BF75100075110F759F0002E3
:1000F300008BC09FF59FE473D09F22D083D082C032
:100103009FE493C0E0740193C0E0740293F59F22CF
:10011300790122FF0000000000000000000000BB86
:10012300F0D1E6B4ABB8D0C6F72CBAECCDE2CFDF52
:1001330028BBF0D1E629CAFDD7D6C1BFA3BA25642F
:100143006D560D0A00B80B0000000000004A0100C4
:100153000000C20100010000000A000000000020AE
:10016300410000A04008000000010000006D4EC6E1
:100173004139300000FFFFFF7F0000803F30313204
:100183003334353637383941424344454600286EC7
:10019300756C6C20706F696E74657229003F3F3F08
:1001A300000000807FF9021550B743BA5100E7DB26
:1001B3002E100000001200FE0425001200FEA925E7
:1001C300001200FE0A26001200FE2927001200FE7C
:1001D300B627001200FE4E28001200FEA22F0012C6
:1001E30000FEB32F001200FECF2F001200FEDA2F05
:1001F300001200FE662E001200FE442A001200FECA
:100203006E2A001200FE432F001200FE4F2F001231
:1002130000FE2A30001200FE6430001200FEE530BA
:10022300001200FEEA30001200FEEA2F001200FE68
:100233000A30001200FEE02E001200FEF02E001223
:1002430000FE1C2F001200FECD2B001200FEFC2B23
:10025300001200FE122C001200FE292C001200FED8
:10026300402C001200FE6C2C001200FE902C001299
:1002730000FEA12C001200FEAA2C001200FEB32CDB
:10028300001200FEC82C001200FEDD2C001200FE3E
:10029300FC2C001200FE6228001200FE6F290012DF
:1002A30000FE0F2D001200FE572D001200FE712DCF
:1002B300001200FE9A30001200FEC730001200FE4A
:1002C300D82D001200FE022E001200FEB5140012FB
:1002D30000FED31900E493667013087401936670EB
:1002E3000C08740293667005087403936622C008B1
:1002F300C3E096F50808A3E096420808A3E09642F7
:100303000808A3E0964208A2D265D033E50870013D
:10031300D3D00822C3E49396087401939608740219
:100323009396087403939622080808E630E711129F
:100333000C4F120343080808C64480C61818182235
:10034300181818E9799EC608CAC608CBC608CCC6D1
:10035300C370207996CACBCC7019798ECBCC70132D
:100363007986CC700EF9802ACA33CACB33CBCC330F
:10037300CC331930E7F2CCCBCA3350147004EA30D3
:10038300E00DE4CA3ACACB3BCBCC3CCC500209C308
:10039300E913C6CC182313C6CB18C6CA18C6F9224C
:1003A3001203E320F01430E72B74FFFCFBFA747F95
:1003B3008022E4FCFBFA7480801AB48008BC00F24B
:1003C300BB00EF800F50EBF9E4C39AFAE49BFBE424
:1003D3009CFCE499C6CC18C6CB18C6CA18C6F92229
:1003E300E4C9C608CAC608CBC6D3330308CCC63390
:1003F30092F0C3947F402E94184019C9B90704CAD8
:10040300CBCC225025C309CA33CACB33CBCC33CC94
:1004130033D9F422F4600DC9CCC313CB13CBCA1365
:10042300CAD9F6CC22E4FCFBFA2214FCFBFA22E63E
:10043300C33318461846184622E7C33319471947EA
:10044300194722181818E6084608700AE608C33345
:100453007005E633F4220822191919E709470970D0
:100463000AE709C3337005E733F4220922E6084695
:1004730008C3134608336002E633F422E709470949
:10048300C3134709336002E733F422120470602573
:1004930012047F6020120432700302043C0808082F
:1004A300E76670101819E766700A1819E766700492
:1004B3001819E76622F422120470601C12047F608C
:1004C30017120432700712043C7001D322C0D012F9
:1004D300043C7006D0D0B322C32233D0D0501430A2
:1004E300E0F6C3E7960809E7960809E7960809E7DF
:1004F30096B32220E0D5E6970809E6970809E69720
:100503000809E697B322120470601B12047F601679
:10051300120432700712043C600CB322C0D01204E0
:100523003C7005D0D022C32233D0D0501330E0EB3F
:10053300C3E7960809E7960809E7960809E79622AC
:1005430020E0E4E6970809E6970809E6970809E634
:10055300972200120470604F12047F6012E75480E8
:1005630066F6120446701112043C703B090909F443
:10057300F618F618F618F62212045B7015120432F8
:1005830008080860EAE6447FF618768018E4F6184F
:10059300F622120432601612043C7012E4F608F6D6
:1005A30008F608E65480F609090918181822EAC063
:1005B300E0EBC0E0ECC0E0EDC0E0E687F0A4FBAC0C
:1005C300F008E687F0A42CFCE435F0FA1809E68776
:1005D300F0A42C4B60027401CA35F0FCE433FB0930
:1005E300E687F0D2F7A42CCB35F0FC1908E687F0A8
:1005F300A42BCC35F0FBE433FD0819E687F0D2E7F2
:10060300A42C4ACB35F0CD3400FC09E687F0D2E7C1
:10061300A42DCC35F0FDE433FA0918E687F0D2F7C0
:10062300A42CCD35F0CA3400FC08E687F0D2E7D21B
:10063300F7A42ACC35F07A7E20E70B0ACB33CBCD57
:1006430033CDCC33CC33CB3350147004ED30E00EC8
:10065300D2F1E4CD3DCDCC3CCC3B5005DA05C2F123
:10066300EB547FC63308E63392F0FBE73309E733F5
:10067300C39A502D2B70190C0D4C4D70151806E6AE
:1006830008C333700D20F10AA2F013F6E418800BAF
:100693004024E4F630F002768018F618F618F68057
:1006A30024D33B14501074FFA2F013F6187680E4A1
:1006B30018F618F6800FA2F013F618E63303F618AF
:1006C300ECF618EDF6D0E0FDD0E0FCD0E0FBD0E096
:1006D300FA2212047F6046120470603DE9687008D4
:1006E300F618F618F618F622748067F71207090948
:1006F3000909748067F722120470601D12047F7069
:1007030005191919801A120446701F12045BC3706D
:1007130003E667331919194007181818220808083F
:1007230074FFF618F618F618F62212045B60171217
:10073300043C702192F01204327019501720F01407
:10074300080808090909E7F61819E7F61819E7F67A
:100753001819E7F62212043260E6E869701F0808E8
:10076300E62480F608E436F618547FB47F0CE6548A
:10077300806007F6E418F618F622181822E9C6CCAA
:1007830008C6CD08C6CE08C6CFC0E0E8C0E0EAC0C0
:10079300E0EBC0E009E9F809E7FA09E7FBE6F91835
:1007A300E6F8C3EC98ED99EE9AEBC2E7F5F0EFC2E9
:1007B300E795F0500E600CEBCFFBEACEFAE9CDF9EA
:1007C300E8CCF8EAA2E7D2E7FAEB33FB13F5F0EE55
:1007D300A2E7D2E7FEEF33FFC5F013A2E730E6014D
:1007E300B313C5F0C3C0E0C0F07F00C39BFB605BE5
:1007F3009418600C401AD0E023F9D0E0F80208D82E
:100803008AF0E9486003D2F0E4AFF0FAF9F8803BEC
:10081300EB30E40D89F0EA6003D2F0E4AFF0F9CAFB
:10082300F8EB30E30D88F0EF6002D2F0AFF0E4CAEA
:10083300C9F8EB54076014FBC3EA13FAE913F9E8A8
:1008430013F8EF135002D2E0FFDBEDD0E0C0E0304D
:10085300E739C3E49FFFF5F0EC98FC42F0ED99FD16
:1008630042F0EE9AFE42F0D0E0F9D0E0F8E5F06015
:100873007AE923F9EE20E742D8028067C3EF33FF1A
:10088300EC33FCED33FDEE33FE80EAEC28FCED396E
:10089300FDEE3AFED0E023F9D0E0F84002801BC31E
:1008A300EE13FEED13FDEC13FCEF135002D2E0FF49
:1008B30008B800067F7F74FF802EEF3350178CF04B
:1008C30020F00260100CBC000C0DBD00080EBE0031
:1008D3000408E860DFE933E813FFEE2313FE4F4D0E
:1008E3004C8008E95480FFE4FEFDFCEE33EF33F463
:1008F3007004FCFD7E80D0E0FBD0E0FAD0E0F8D0BD
:10090300E0CFC618CEC618CDC618CCC6F92212043D
:100913007070041818182212047F700D74FFF618F3
:1009230019F61819F61819F622E7548066F6120418
:1009330032700F12043C70F014F608F608F608F64D
:1009430080D112043C700CF608F608768008E64461
:100953007F80EC12045E700C12044960BFE6548081
:10096300F6E480BB120449700519191980A5E869DA
:10097300700C763F18768018F618F6E8F922E6CD63
:10098300C0E018ECC0E0E633CD33CDD313F6E7195E
:10099300FCE7191933CC33C3947F400ECD9D50240B
:1009A30008E65480F6E418F6800FF4043D1450145E
:1009B30008E6447FF6187680E418F618F6D0E0FCD3
:1009C300D0E0FD22CCD313CCFD18E4C6CBC0E01895
:1009D300E4C6CAC0E00808ED08C633E613F618E417
:1009E30033C675F003C3CA97CA09CB97CB199C408A
:1009F300047D08802EBD0003020ABA16B6FF050661
:100A030006081618C3CA33CACB33CB33CA27CA095D
:100A1300CB37CB193CC37D08803E187D0820E75CAB
:100A2300C633C6CA33CACB33CB33DDF1D5F0EB3093
:100A3300E77BCA97CA09CB974ACB199C406F4B7087
:100A430025E620E0218066187D08C3CA97CA09CB32
:100A530097CB199CD3C633C6CA33CACB33CB3350D7
:100A6300C9DDE7D5F0E1D3E4C636C608C636C60805
:100A7300C636C608C636C61818188031C3CA97CA00
:100A830009CB97CB199CB34097C633C6CA33CACB9D
:100A930033CB33DD34D5F02EC6A2E0C640C8CA2717
:100AA300CA09CB37194A70BECB3CB480B90808E6F3
:100AB3003308E633601F181818D0E0FAD0E0FBD0F3
:100AC300E0FCD0E0FD22187D08CA27CA09CB37CB4A
:100AD300193CD3808013F618E4B67F11F618B6FFDD
:100AE3000EF618C60470D20808768080CAF618F687
:100AF30018F680C5080808EAC0E0EBC0E086F0E716
:100B0300A4FA180986F0E7A42AFA180986F0E7A4DC
:100B13002AFA180986F0E7A42AFA1986F0E7A4FB53
:100B2300E5F02AFA190886F0E7A42BFBE5F03AFA78
:100B3300190886F0E7A42BFBE5F03AFA18180986A2
:100B4300F0E7A4C5F02BFBE43AFA1908E7C5F0C6B1
:100B5300A426F6E5F03BFBE43AFA1886F0E7A4F6A0
:100B6300E5F00826F6E43B08F6E43A08F6D0E0FBA5
:100B7300D0E0FA22E4CFC0E0E4CEC0E0E4CDC0E0B0
:100B8300E4CCC0E075F020C3E633F608E633F6089C
:100B9300E633F608E633F6181818EC33FCED33FDAC
:100BA300EE33FEEF33FFC3EC9709ED9709EE970998
:100BB300EF97191919400FFFEC97FC09ED97FD0901
:100BC300EE97FE191906D5F0BEECF709EDF709EE1D
:100BD300F709EFF7191919D0E0FCD0E0FDD0E0FEDA
:100BE300D0E0FF22120C52181818120B77120C3E89
:100BF30019191922120C3E191919080808E61818B0
:100C03001820E7E0120B77120C5218181822090962
:100C130009E719191920E7DC080808E6181818204D
:100C2300E703020B77120C52181818120B77120CE9
:100C330052181818120C3E19191922E4C397F70910
:100C4300E497F709E497F709E497F722181818E4EB
:100C5300C396F608E496F608E496F608E496F622B8
:100C63006016080808C6C313C618C613C618C613E9
:100C7300C618C613C6D5E0EA22E026F608A3E03676
:100C8300F608A3E036F608A3E036F622C3E0C696DC
:100C9300F608A3E0C696F608A3E0C696F608A3E016
:100CA300C696F622E647F60809E647F60809E64738
:100CB300F60809E647F622E0F608A3E0F608A3E003
:100CC300F608A3E0F622E6F008A3E6F008A3E6F0B0
:100CD30008A3E6F022E0FAA3E0FBA3E0FCA3E0FD17
:100CE30022EAF0A3EBF0A3ECF0A3EDF022CAC0E0FC
:100CF300E6F0A308DAFAD0E0FA22CAC0E0E0A3C51E
:100D030082CCC582C583CDC583F0A3C582CCC58201
:100D1300C583CDC583DAE6D0E0CA22C3E498F8E4FC
:100D230099F9120D5F8026C3E49AFAE49BFBE9204C
:100D3300E7E9120D5FE498F8E499F922C3E498F81F
:100D4300E499F9120D5FE498F8E499F9C3E49AFA87
:100D5300E49BFB22EB20E7CFE920E7E0B90010BBDF
:100D63000008E88AF084F8AAF022E4FBC8FA22EB30
:100D730070227B10C833C8C933C9335007C39AC321
:100D8300DBF280069A50012ADBEAC833F4C8C93380
:100D9300F4C9FA2275F008E4C833C8C933C933C9A2
:100DA3009AC99B5004C92AC93BD5F0ECFBC833F45C
:100DB300C8E4C9FA22700422600D18C6C333C608FA
:100DC300C633C6D5E0F41822251010AF08F510403D
:100DD3000215118008F51040021511D2AF22C0D0C0
:100DE300251010AF08F510500205118008F51050BA
:100DF300020511D2AFD0D0222510F58210AF08F52D
:100E030010400215118008F51040021511D2AF856C
:100E1300118322C5822510C582C583351110AF0702
:100E2300F5118582108007F511858210D2AFC58335
:100E3300222510F582E43511F58322C5822510C5DC
:100E430082C5833511C58322E4732510C582C0E0B2
:100E5300E51134FFC583C0E0E510C3958224F81083
:100E6300AF088583118582108008858311858210E0
:100E7300D2AFCEF0A3E520F0A37808E608F0A3DE16
:100E8300FAEFF0A3E58124FAF8E608F0A3E608F008
:100E9300A3E608F0A30808E608F0A3E608F0A31504
:100EA300811581D0E0FED0E0F8158115811581E828
:100EB300C0E0EEC0E022851183851082E0A3FEE04E
:100EC300A3F5207808E0A3F608DFFAE0A3FFE0A388
:100ED300C0E0E0A3C0E0E0A3C0E0E0A3C0E0E0A383
:100EE300C0E010AF088582108583118008858210C9
:100EF300858311D2AFD083D0820200FBC0D02510EE
:100F0300C582C0E0E51134FFC583C0E0E510C39599
:100F13008224F310AF0885831185821080088583AE
:100F230011858210D2AFC8F0A3E9F0A3EAF0A3EBD6
:100F3300F0A37908E709F0A3D8FAECF0A3EDF0A346
:100F4300EEF0A3EFF0A3D0E0F0A3D0E0F0A3D0E065
:100F5300F0A3E520F0A3E5F0F0A32285118385102B
:100F630082E0C0E0A3E0F9A3E0FAA3E0FBA37808E2
:100F7300E0F608A3DFFAE0FCA3E0FDA3E0FEA3E0B4
:100F8300FFA3E0C0E0A3E0C0E0A3E0F5D0A3E0F559
:100F930020A3E0A3F5F010AF0885831185821080AC
:100FA30008858311858210D2AFD082D083D0E0F838
:100FB300D0E032740280027401C0E0F404120DFB2D
:100FC300D0E0120CF0227404800474028000CCC0C0
:100FD300E0EDC0E0E510C39CCCAD1150011D10AF96
:100FE300068C108D1180068C108D11D2AF120CFD62
:100FF300D0E0FDD0E0FC22D083D082ECC0E0EDC095
:10100300E0EEC0E0EFC0E0E493A3FCE493A3FDE4CF
:1010130093A3FEE493A3FFEF4E4D4C60151210769D
:10102300EC24FFFCED34FFFDEE34FFFEEF34FFFF55
:1010330080E5E493A3FCE493A3FDE493A3FEE4938C
:10104300A3FFEF4E4D4C60151210B3EC24FFFCEDE3
:1010530034FFFDEE34FFFEEF34FFFF80E5D0E0FF09
:10106300D0E0FED0E0FDD0E0FCE493A3C0E0E49345
:10107300C0E022C0E0C0F088F0120317A8F04007D8
:101083001202D8A8F0701AA3A3A3A3120317A8F0FF
:10109300A3A3A3A34013D0F0D0E0D0E0D0E002108C
:1010A30060A3A3A3A3A3A3A3A3A3A3D0F0D0E022ED
:1010B300C0E0C0F088F01202D8A8F0A3A3A3A370E5
:1010C3000BD0F0D0E0D0E0D0E0021060A3A3D0F0CA
:1010D300D0E022C0E074F2120EFFC2DBC2C4900F54
:1010E300FDE02401F0A3E03400F0900FFDE064A1E3
:1010F3007004A3E064077015900FFD7400F0A374EF
:1011030000F0900FFC7401F01201E88006900FFCD0
:101113007400F07F01020F5EC0E074F1120EFFC293
:10112300C5E589607E7E008074750801750900EE4F
:101133007808120DB8E508AF08E5895F605EEEF840
:101143007900E875F002A4C8AAF075F000A42AFAA1
:1011530075F002E9A42AF9748628F582741039F52A
:1011630083E0F8A3E0F9E849602EEEF87900E8752A
:10117300F002A4C8AAF075F000A42AFA75F002E9F7
:10118300A42AF9748628F582741039F583E0F8A34C
:10119300E0F5838882120E4BEFF452890EEEC3946E
:1011A3000840867F02020F5EC0E074F1120EFFC298
:1011B300EBE58A607E7E008074750801750900EE98
:1011C3007808120DB8E508AF08E58A5F605EEEF8AF
:1011D3007900E875F002A4C8AAF075F000A42AFA11
:1011E30075F002E9A42AF9749628F582741039F58A
:1011F30083E0F8A3E0F9E849602EEEF87900E8759A
:10120300F002A4C8AAF075F000A42AFA75F002E966
:10121300A42AF9749628F582741039F583E0F8A3AB
:10122300E0F5838882120E4BEFF4528A0EEEC394DC
:101233000840867F02020F5EC0E074F1120EFFC207
:10124300E8E58B607E7E008074750801750900EE09
:101253007808120DB8E508AF08E58B5F605EEEF81D
:101263007900E875F002A4C8AAF075F000A42AFA80
:1012730075F002E9A42AF974A628F582741039F5E9
:1012830083E0F8A3E0F9E849602EEEF87900E87509
:10129300F002A4C8AAF075F000A42AFA75F002E9D6
:1012A300A42AF974A628F582741039F583E0F8A30B
:1012B300E0F5838882120E4BEFF4528B0EEEC3944B
:1012C3000540867F02020F5EC0E074F2120EFFA299
:1012D300AFE433FEC2AFE5E9A2E650209010B0E0E0
:1012E300F8A3E0F9E849600E9010B0E0F8A3E0F548
:1012F300838882120E4B759B0053E9BFEEA2E092E6
:10130300AF7F01020F5EC0E074F2120EFF9010B2C5
:10131300E0F8A3E0F9E849600E9010B2E0F8A3E02A
:10132300F5838882120E4B7F01020F5EC0E0C0D0AE
:10133300E8C0E0E9C0E0C082C083E5C1C0E090112D
:1013430035E0F8790074B428F582741039F583D048
:10135300E0F0901134E0F8901135E0687006E595FF
:10136300901136F0901135E02401901135F0C394BB
:101373008040069011357400F0D083D082D0E0F91C
:10138300D0E0F8D0D0D0E032C0E0C0D0E8C0E0C0B8
:1013930008C009C082C0839011B7E0F89011B8E08B
:1013A30068700B539AFB9011B97401F08031C2E954
:1013B3009011B7E0F508740125089011B7F075098D
:1013C3000074372508F58274113509F583E0F5C1FA
:1013D3009011B7E0C3948040069011B77400F0D029
:1013E30083D082D009D008D0E0F8D0D0D0E032C08A
:1013F300E0C0D0E8C0E0E9C0E0C082C083E5F9C046
:10140300E090123BE0F8790074BA28F58274113940
:10141300F583D0E0F090123AE0F890123BE0687068
:1014230006E59590123CF090123BE0240190123BAC
:10143300F0C39480400690123B7400F0D083D082B6
:10144300D0E0F9D0E0F8D0D0D0E032C0E0C0D0E8AE
:10145300C0E0C008C009C082C0839012BDE0F8900C
:1014630012BEE068700B539AF79012BF7401F080BC
:1014730031C2EA9012BDE0F508740125089012BD4F
:10148300F0750900743D2508F58274123509F5835A
:10149300E0F5F99012BDE0C3948040069012BD744C
:1014A30000F0D083D082D009D008D0E0F8D0D0D0DB
:1014B300E03274F0120E4D74FD120DCB7402120E55
:1014C30034E9F08A088B098C0A8D0B7415120E34DB
:1014D300E0FEA3E0FF851082851183E4F0A3F08E84
:1014E300828F83A3AA82AB8390134E780C120CBA1B
:1014F3007808790C12048E70188E828F83746912A7
:101503001994746EF0A37466F0A30A0AAB830219EC
:101513002F7808790812048E60118E828F83746E7F
:101523001219947461F0A3746E80DD901326780C05
:10153300120CBA7808790C1204BA50030215DF9022
:1015430012F6780C120CBA7808790C12048E600328
:101553000216337417120E34E070030216758510E9
:1015630082851183C082C0837413120E341223D276
:10157300D083D08212196D502C851082851183C3BC
:10158300E094FCA3E094FFA2D265D0334017740229
:10159300120E34E41224A6F97413120E34C3E09825
:1015A300F0A3E099F07413120E3412198A7418120E
:1015B3000E34E070030216727417120E34E402162E
:1015C30074901352780C120CBA7808790C12091122
:1015D300851082851183E0240A1224E39013567840
:1015E3000C120CBA7808790C1204BA40D490130A7E
:1015F300780C120CBA7808790C1204BA400302155D
:101603005690130A780C120CBA7808790C12091147
:101613001224DA80D8901352780C120CBA78087915
:101623000C120555851082851183E024F612198D5D
:1016330090135A780C120CBA7808790C12050940E9
:10164300D4901326780C120CBA7808790C12050979
:10165300400302155690130A780C120CBA780879D5
:101663000C12055585108285118312198A80D27454
:1016730001F07402120E34E060077A007B00021757
:1016830081121979507D8E828F837430F0EAFEEBDC
:10169300FF7413120E34E0FCA3E0FDEC4D700874EC
:1016A30018120E34E0600B8E828F83742EF0A30E1B
:1016B300AF837A007B0080118E828F83743012197E
:1016C300B57413120E3412198AEA24FF1AEB34FF8D
:1016D300FB851082851183121961500B7413120E4E
:1016E300341223D64970D185108285118374FFC3C8
:1016F3009CF874FF9DF912196D500302184F7A017B
:1017030002167F8510828511831223D2C3E498FACF
:10171300E499FB806985080C85090D850A0E850B04
:101723000F780C1203A3AC0CE50D3395E0F50EF521
:101733000F780C12032B7808790C1206D590130A34
:10174300780C120CBA7808790C120555EC1219AF03
:10175300EAF8EBF9E824010AE93400FBE849701ED2
:101763007413120E341223D64970087418120E34EF
:10177300E0600B8E828F83742EF0A30EAF837413FD
:10178300120E34121961508D90130E780C120CBA8C
:101793007808790C1204BA400302184F7C01EE2436
:1017A300FFF8EF34FFF97415120E34E0F508A3E0E7
:1017B300F50988828983E0642E6010E02CF0643A96
:1017C30070077430F07C0180027C00E8FAE9FBEAE0
:1017D30024FF18EB34FFF9C3E5089AE5099B40D2CF
:1017E300ECA2E050677402120E34E06036EEF8EFBC
:1017F300800A12194CE824FF18E934FFF9C3E508FD
:1018030098E509995018121939E0642E70E4E82418
:10181300FEF582E934FFF583121946F980D71224C5
:10182300DA801E8E828F83A3AE82AF83EEF8EF80C1
:1018330006121939121946F9C3E50898E5099940C2
:10184300F07415120E341223F17431F07417120E62
:1018530034E07005801A1EAF83EE24FFF582EF3467
:10186300FFF583E0643060EEE0642E70031EAF8307
:101873007402120E34E0700302192B1219B1A3A9DA
:10188300831219798E828F835014742DF00EE9FF21
:1018930085108285118312241A1219A28006742BD3
:1018A300F00EE9FF7C007D00EE240AFEEF3400FF1A
:1018B300EC24010CED3400FD121953120D57EA12FA
:1018C30019AF121953120D571219BC4970E2C3EC28
:1018D3009402ED12238340D8ECFAEDFBC3E49CF8A9
:1018E300E49DF9EE28F582EF39F583E0C0E0C3E427
:1018F3009AF8E49BF9EE28F8EF39F9E82CF8E93D7A
:10190300F9E824F5F582E934FFF583D0E0F0EC241F
:10191300FF1CED34FFFDC3EC9401ED12238350BC97
:10192300EE24F6FEEF34FFFFEEFAEFFB7403120D25
:10193300E17F08020EB9E824FFFAE934FFFB8A824B
:101943008B832212194C18EB22E088828983F022C0
:101953008510828511831224277A0A7B0022C3E033
:101963009AA3E09BA2D265D03322C3E098A3E09967
:10197300A2D265D03322851082851183C3A3E0945C
:1019830000A2D265D03322E024FFF0A3E034FFF0BD
:1019930022F0EAFEEBFF8E828F8322A3E03400F96C
:1019A300851082851183E8F0A3E9F02224308E822A
:1019B3008F83F0A3AE82AF832285108285118312B9
:1019C30019C622E8F0A3E9F0851082851183E0228D
:1019D30074F0120E4D74B0120DCB851082851183F5
:1019E30012248C7418120E34ECF0A3EDF0740F1261
:1019F3000E34E4F0A380227460120E341223C274F6
:101A030004120E34E0F97418120E341223F1120E7C
:101A13004B740F120E3412238BF0122405FA122486
:101A2300C5120E34EAF074256A6010E070C9740FB1
:101A3300120E341223C27450021931122405642584
:101A43007019851082851183E024010812199E7490
:101A530060120E341223C2792580AB740E120E3439
:101A6300E4F0740D120E34E4F0740C120E34E4F04E
:101A73007405120E34E4F0741E120E34A882A98386
:101A83007402120E3480157405120E34E07007745C
:101A930005120E34EAF08510828511831219C212E1
:101AA30023B912244CFA24E060DD24FD601724F8E6
:101AB30060DD24FE600624FD600F8011740C120E9D
:101AC30034E00480D0740D80F5740E80F112244C40
:101AD300642A705B7462120E34122457FB8A828B61
:101AE30083E0FCA3E0FD740A120E34ECF0A3EDF0E6
:101AF300EA24020A0AEB3400FB7462120E34122445
:101B030084740A120E3412197F501F740A120E3491
:101B13001223C2C3E49AFAE49BFB740A120E341232
:101B2300248C740C120E34E004F01219A3804A744E
:101B33000A120E34E4F0A3802D740A120E34122319
:101B4300D675F00AA4F8AAF075F00AE9A42AF9E513
:101B53000828F8E439F9E824D0F8E934FFF9740ADD
:101B6300120E341224EA1224A6F5838882E0F508C3
:101B730074D02508C3940A40C0740C120E34E0607C
:101B830007740E120E34E4F0122405642E6003026F
:101B93001C1E851082851183E0240108A3E0340014
:101BA300F91219BC1223F6E0642A702C7462120E27
:101BB3003412240BF8A3E0F988828983E0FEA3E0C2
:101BC300FFE824020808E93400F97462120E3412A3
:101BD300243F1224EAF080477E007F00851082852F
:101BE300118312241474D02508C3940A5031EE755E
:101BF300F00AA4FEA8F075F00AEFA428FFE5082E6A
:101C0300F8E43FF9E824D0FEE934FFFF851082852C
:101C13001183E02401F812199E80C17EFF7FFF7AB1
:101C2300008510828511831223B485108285118368
:101C3300E0FBA3E0F5838B82E024B4600824E46036
:101C43000524FC70040A1219A3122405FB1224C5EF
:101C5300120E34EBF0700302222924BB700302201E
:101C6300EF24FE70030220D124EF7003021E1B2415
:101C7300F57003021D20147003021EC014700302CA
:101C830020EF1470030220ED1470030220D124FE10
:101C93007003021EC024FB6024147003021E0B1485
:101CA3007003021E1B24FD7003021D5924FE7003E2
:101CB300021E1B24FD7003021E1B022235746212D6
:101CC3000E3412247E120E341219A9EAA2E0740F04
:101CD3005033120E34E0FCA3E0FD3395E0FE7406AE
:101CE300120E3412245FECF0A3EDF0A3EEF0A3F098
:101CF3007462120E34122466120E3412243FE8F07A
:101D0300A3E9021A1C120E341223D27406120E34E3
:101D1300122457F5838A82E8F0A3E980D274621211
:101D23000E3412245FE0C0E0741E120E34D0E0F0D3
:101D33007462120E34122466120E3412243F1219E6
:101D4300A9741F120E34A882A9837412120E34E8E8
:101D5300F0A3E902224C7462120E3412247E120E96
:101D6300341219A97406120E3412247E120E34E0B2
:101D73002402FAA3E03400FB7462120E34122484AA
:101D83007402120E341219A9E849700C7402120E6F
:101D930034743BF0A37413F012238150047E107F3C
:101DA300277408120E34E4F0A380087408120E346A
:101DB30012238BF07402120E341223D28882898389
:101DC300A3AA82AB837402120E3412248C888289F4
:101DD30083E0600A7408120E341223DB40CD7402D0
:101DE300120E341223A27412120E341219A974089B
:101DF300120E3412241AF97412120E34E028F8A3C6
:101E0300E039F97402021D4F740D120E34E06008BC
:101E1300EE4F70047E017F007462120E3412247E32
:101E2300120E341224D2120E34E064707038740629
:101E3300120E34122474120E341224AD120E34E036
:101E43002402122436120E3412243F1219A99013BD
:101E53005E120CD8741A120E34120CE47405120EAE
:101E630034E4F0021F50EAA2E07406501B120E3451
:101E73001223F1120CD87414120E34120CE47406EB
:101E8300120E34E024048012120E34122474120E43
:101E9300341224AD120E34E02402122436120E340E
:101EA30012243F1224D2120E34E0646F7005901393
:101EB30012809EE06475709690130680947462128B
:101EC3000E3412247E120E341219A9EAA2E074060B
:101ED3005016120E341223F17808120CBA7406123B
:101EE3000E34E02404F8801B120E34122414A3E0F1
:101EF300F5093395E0F50AF50B7406120E34E02468
:101F0300020808122437120E341224BA120E34783F
:101F130008120CC99012F678081202F140217405D8
:101F2300120E34742DF07414120E347808120CBA95
:101F33007808120C527414120E347808120CC990DB
:101F43001306120CD8741A120E34120CE4744F12C6
:101F53000E34A882A9837402120E341219A97412C2
:101F6300120E341224BD120E347808120CBAE5088E
:101F73004509450A450B60097411120E347401803A
:101F8300067411120E34E4F0EE4F7008E0A2E04044
:101F9300030220447402120E341223EB120E341285
:101FA30024BD120E34780C120CBA741A120E347843
:101FB30008120CBA780C7908120B77742A2508F5E5
:101FC3008274133509F583E0C0E07402120E3412F3
:101FD30023F1D0E0F07414120E34780C120CBA749E
:101FE3001A120E347808120CBA780C7908120B778F
:101FF3007414120E34780C120CC97414120E347843
:1020030008120CBAE5084509450A450B70861223E8
:1020130081502E740E120E34E060267405120E34B5
:10202300E06004D2F08002C2F0740A120E3412236C
:1020330094800E7402120E3412249E120E34122354
:10204300FE7402120E341223A2744F120E34C08295
:10205300C0837402120E341223C2D083D082E5826D
:10206300C39AFAE5839BFBC3EA9EEB1223E440C3C6
:10207300740D120E34E0700302224D7411120E34EB
:10208300E0A2E0400302224D7404120E34E06478AF
:102093006005E06458701E12194CE824FF18E934F7
:1020A300FFF97402120E3412249E120E341223F11D
:1020B300743002224CE0646F600302224D740212FA
:1020C3000E341224526430700302224D80D47408FB
:1020D300120E347401F0A3E4F07404120E34E024FD
:1020E300FEF0EE4F700F7E018012E4F07408120EC2
:1020F30034E4F0A3F012238150047E067F0074625F
:10210300120E3412247E120E341219A97406120E02
:10211300341223F1780C120CBA7406120E34E02434
:1021230004122436120E341224BA120E34780C120E
:102133000CC99012F67808120CBA780C79081205BB
:102143000950227405120E34742DF07414120E34D7
:102153007808120CBAE50BB2E7F50B7414120E34BF
:102163007808120CC9740A120E341223D2741E1288
:102173000E34E58228F8E58339F97402120E34121D
:1021830019A9740D120E34E0F5087808120FBA7409
:1021930009120E34E0F5087808120FBA7404120E0F
:1021A30034120FCD8E088F097808120FB6740A12F5
:1021B3000E34E0F9741A120E34120CD81202CC74D5
:1021C30006120DE17412120E3412248C740E120EC8
:1021D30034E060767405120E34E06004D2F08002BD
:1021E300C2F0740A120E341223947412120E34C005
:1021F30082C0837402120E341223D2D083D082E0C1
:10220300C398F8A3E099F9C3E89EE91223E4503A8E
:102213007402120E341223EB120E3412249E120E89
:10222300341223FE80C48510828511831223AB12DE
:1022330019A27402120E34744AF0A37413F07412C8
:10224300120E34744DF0A37413F07412120E34C0D2
:1022530082C0837402120E341223D2D083D082E060
:10226300C398FEA3E099FF740A120E341223DB50C5
:102273000A7408120E34E4F0A380307405120E348D
:10228300E06004D2F08002C2F0740A120E34E0C39C
:102293009EF8A3E09FF9A2F0E433FAE89AF8E994F0
:1022A30000F97408120E34E8F0A3E9F0740C120E6E
:1022B30034E0702B80197460120E341223C8120E8E
:1022C300341223F1120E4B740F120E341224E074E5
:1022D30008120E34122492120E3412197F50D7743E
:1022E30005120E34E060507460120E341223C2746F
:1022F30005120E34E0F97418120E341223F1120E83
:102303004B802C7460120E341223C27402120E34EA
:1023130012240BF97418120E341223F1120E4B749B
:1023230002120E341223B47402120E341219A97459
:102333000F120E341224E0EE24FF1EEF34FFFFC30E
:1023430012238350BE740C120E34E07003021A1D64
:102353007408120E34122492120E3412197F500391
:10236300021A1D7460120E341223C8120E34122383
:10237300F1120E4B740F120E341224E080D2C3EF0D
:102383009400A2D265D03322E02401F0A3E034000C
:1023930022A2F0E433F8E098FEA3E09400FF2212B7
:1023A30023A6221223ABF922E024FFF8A3E034FF93
:1023B30022E01223B9222401F8A3E03400F922E039
:1023C300FAA3E0FB22E0FAA3E0FB792074182212BF
:1023D300242722122427E822C3E09EA3E01223E449
:1023E300229FA2D265D033221223A6740222122383
:1023F300F522E0F8A3E0F5838882221223F57430F6
:10240300F02285108285118312240F2212242DE0DD
:102413002212240FF50822122427C3E498F8E49922
:102423002212242DE0F8A3E0F922E0F8A3E0F583DB
:10243300888222F8A3E03400F97462221224432232
:10244300E0FAA3E0F5838A82228510828511831244
:102453002443E022122443E0FAA3E02212240F12C1
:1024630023F62212240F2402F8A3E03400F9746245
:1024730022122424E8FAE9FB741422122424740699
:1024830022E0FCA3E0F5838C82EAF0A3EBF022E0E8
:1024930024FFF0A3E034FFF0740822E8F0A3E9F08E
:1024A3007402221219CAF8A3E022EAF0A3EBF0A304
:1024B300E4F0A3F0740622122443E8F0A3E9F074D5
:1024C3001422851082851183E02401081224F8E880
:1024D300F0A3E9F0740422851082851183E02401BE
:1024E300F0A3E03400F0221219C62401F81224F8F4
:1024F300E8F0A3E922A3E03400F985108285118373
:102503002274F7120E4DE9FEEAF8EBF9E8FAE9FB5B
:10251300740B2E8A828B83F0900F07E0F8A3E0F50B
:10252300838882A3A3A3A3A3E0600678617988804C
:102533000478417988E88A828B83A3F0E98A828BC5
:1025430083A3A3F0900F00E08A828B83A3A3A3F05D
:10255300900F07E0F8A3E0F5838882A3A3E0F8A334
:10256300E0F98A828B83A3A3A3A3E8F0A3E9F08A0B
:10257300828B83A3A3A3A3A3A3ECF0A3EDF0900FFB
:1025830007E0F8A3E0F5838882E0F8A3E0F98A8204
:102593008B83A3A3A3A3A3A3A3A3E8F0A3E9F07945
:1025A3000A7F01020EB974F2120E4DECFEEDFF89A3
:1025B30008A908EAFCEBFD7A097B0F1201B8E9FBD5
:1025C3007A0080348A0A750B00EE250AF582EF350E
:1025D3000BF583E0C0E08B0A750B008A0C750D00C8
:1025E300E50C250AF8E50D350BF9E82409F582E930
:1025F300340FF583D0E0F00AEAC3950840C6E50836
:102603002BF97F06020EB974F7120E4D7E7C7F0FF5
:1026130012027E12021E7901EEFAEFFB1202668E9F
:10262300828F83E0C2E7F08E828F83E0640570536C
:102633008E828F83E0F97A7D7B0F1202668E828F02
:1026430083A3E0A2E55004D2F08002C2F0A2F0E43A
:1026530092E09012C8F07880790F88828983A3E092
:10266300A2E7400302271E8E828F83A3A3A3E0FA6F
:10267300900F00E06A600302271E7401900F01F0BF
:1026830002271E8E828F83E024F59012C5F08E827E
:102693008F83E0F97A7D7B0F1202668E828F83A38C
:1026A300E0A2E55004D2F08002C2F0A2F0E492E08E
:1026B3009012C8F08E828F83A3A3A3A3A3A3A3A383
:1026C300E0F8A3E0F99012C1E8F0A3E9F09012C694
:1026D3007486F0A3740FF09012C5E0F83395E0F917
:1026E3009012C6E028F8A3E039F988828983E09044
:1026F30012C9F088828983A3E0A2E750128E828FE9
:1027030083A3E054DF6441700674019012CAF08E13
:10271300828F83A3A3A3E09012C0F01202241202BB
:10272300847F01020EB974F4120E4DEAFEEBFF1220
:102733000248E96401700479018073120224900F46
:1027430007EEF0A3EFF09012C67400F0A37400F04C
:102753007401900F02F09012F67808120CBA900FE1
:10276300037808120CC9900F07E0F8A3E0F58388FB
:1027730082A3A3A3A3E0F912024E900F07E0F8A3EC
:10278300E0F5838882E0FAA3E0FB120254900F077E
:10279300E0F8A3E0F5838882A3A3E0FAA3E0FB12A9
:1027A300025A7AC47B0112028A12021E79007F0444
:1027B300020EB974F4120E4DEAFEEBFF8C0A8D0B78
:1027C3008908900F02E07003120272E508C3946750
:1027D3005005850809800375096785090812029069
:1027E30012027EA908AC0AAD0BEEFAEFFB1201BE92
:1027F300E9F97A097B0F12026012028412026CE972
:10280300900F07E0F8A3E0F5838882A3A3A3A3A313
:10281300E0601C7400900F01F07A4A7B0212023CC4
:10282300900F01E06004740080027401FE80027E58
:1028330000900F02E07003120278EE7007900F0011
:10284300E02401F0EEF97F04020EB9C082C0837464
:1028530001900F02F0120272D083D0820200FB7447
:10286300F4120E4D8A088B098C0A8D0B53F1FE432B
:10287300F30C53F2F375868075C4807808120FFA4F
:10288300000000000C000000B0040000D52860091F
:102893000000DD28C0120000E52880250000ED2897
:1028A30040380000F528004B0000FD288070000030
:1028B3000529009600000D2900E100001529002CD0
:1028C30001001D2900C201002529008403002D29D0
:1028D300352975C23B75C505805E75C23B75C50656
:1028E300805675C23B75C507804E75C23B75C508DA
:1028F300804675C2D875C508803E75C23B75C5094B
:10290300803675C2D875C509802E75C23B75C50A58
:10291300802675C2D875C50A801E75C23B75C50B66
:10292300801675C2D875C50B800E75C2D875C50CD7
:10293300800675C23B75C50A75C402438640D2AA98
:1029430075C1009011347400F09011357400F0904B
:1029530011B77400F09011B87400F0901136740040
:10296300F09011B97400F07F04020EB974F7120EDF
:102973004D9011B7E0F89011B8E0C398501F901133
:10298300B7E0F879009011B8E0FE7F00E8C39EF845
:10299300E99FF9E824FFF8E934FFF980379011B88B
:1029A300E0F87900C3E498F8E499F99011B7E0FEF0
:1029B3007F00E82EF8E93FF9E8247FF8E93400F9CD
:1029C300C3E89CE99D5004D2F08002C2F0A2F0E477
:1029D30033F87900E84960067A007B00805E78006E
:1029E300790080129011B8E02401F0439A04E8249E
:1029F30001F8E93400F9C3E89CE99D503B8A828BD6
:102A030083E0C0E09011B8E0FE7F0074372EF582BA
:102A130074113FF583D0E0F08A828B83A3AA82AB43
:102A2300839011B97400F09011B8E0C3947F40B45F
:102A33009011B87400F080B3E8FAE9FB7F01020E4D
:102A4300B9C082C083E9F8790080108A828B83E061
:102A530029F98A828B83A3AA82AB83E8FC74FF2CB7
:102A6300F8EC70E7D083D0820200FBC082C0839071
:102A7300100174C2F0A374D0F09010037410F0909E
:102A83000FFF74CCF0A374BDF09010047401F07ABE
:102A9300FF7B0F1201CAE9640160F41201D6D083EF
:102AA300D0820200FB1202121202001201DC120198
:102AB300E21201EEE9901085F0901085E064017058
:102AC300F012020C8A0A8B0B850A08850B0985080C
:102AD3000A85090BE50A75F00AA4C50AA8F075F082
:102AE30000A428F875F00AE50BA428F50B780A1260
:102AF3000FB67ACC7B121201F47402120DE1750A3F
:102B030080750B00780A120FB67C007D007A057B76
:102B1300101202B47402120DE190100574CCF090FF
:102B230010067401F09010077407F09010087401F8
:102B3300F09010097403F0A808A909E875F00AA435
:102B4300C8AAF075F000A42AFA75F00AE509A42AC8
:102B5300F9E4E9F890100AF075F00AE508A490107A
:102B63000BF0901007E0F97A057B101201FAE99057
:102B7300100CF0AA08AB09E4FCFD1202A89012F2B3
:102B8300120FC99012F6120CD81202AE7404120D71
:102B9300E18A088B098C0A8D0BAA08AB0912024241
:102BA300901007E02401F97C057D107AF37BB412C1
:102BB30001D0E9790112022A7A647B001202427978
:102BC300011202301201E2022AB4C082C083906172
:102BD30089E04460F090619074D5F09061FA7409D3
:102BE300F09061B27415F09061AE7400F01202843B
:102BF3007900D083D0820200FBC082C08375F005C8
:102C0300E9A424D490618FF0D083D0820200FBC06A
:102C130082C083EA906174F0E4EBFA906175F0D0BE
:102C230083D0820200FBC082C083EA906172F0E429
:102C3300EBFA906173F0D083D0820200FB74F6123A
:102C43000E4D75E1EE7591FD7800801388087509C6
:102C530000EA2508F582EB3509F583E0F5D908E8A4
:102C6300C39940E87F02020EB9C082C0838011E598
:102C7300D98A828B83F08A828B83A3AA82AB83193E
:102C8300E9C3940150E9D083D0820200FB75E1E9E6
:102C9300E591A2E150FA7591FD79000200FB75E11F
:102CA300EC75E1E30200FB75E1EF75E1EC0200FB7B
:102CB300C082C0839061A3E0C2E6F0539AFED08342
:102CC300D0820200FBC082C0839061A3E0D2E6F011
:102CD300439A01D083D0820200FBC082C083A2AF9B
:102CE300E433F8C2AF9010B0EAF0A3EBF0E8A2E04F
:102CF30092AFD083D0820200FBC082C083906193E5
:102D0300E0542270F8D083D0820200FB74F0120EDC
:102D13004D9013167808120CBA90131A780C120CF3
:102D2300BA7808790C120AF790131E7808120C7CF3
:102D33009013167808120CC9901322780C120CBA4F
:102D43007808790C120B77AA0CAB0DAC0EAD0F7F84
:102D530008020EB974F4120E4D8A088B098C0A8D81
:102D63000B9013167808120CC97F04020EB974F085
:102D7300120E4D74FC120DCB851082851183EAF07F
:102D8300A3EBF0A3ECF0A3EDF07414120E34780867
:102D9300120CBA1202A28A0C8B0D8C0E8D0F8510A9
:102DA300828511837808120C8F9013027808120C15
:102DB3007C780C7908120C118510828511837808B0
:102DC300120C7CAA08AB09AC0AAD0B7404120DE11A
:102DD3007F08020EB9C082C0838A828B83122E5D64
:102DE300E9F08A828B83E02401FCA3E03400FD8AAE
:102DF300828B83ECF0A3EDF0D083D0820200FB74CE
:102E0300F6120E4D74FE120DCB851082851183EAE6
:102E1300F0A3EBF0ECFAEDFB740C120E34E0F508C2
:102E2300A3E0F5097808120FB67402120E348582F6
:102E3300088583097808120FB67CC07D021202D27E
:102E43007404120DE1851082851183122E5DE4F066
:102E53007402120DE17F02020EB9E0F8A3E0F583DC
:102E630088822274F6120E4D7582FE7583FE120E51
:102E73001675820C758301120E3EA882A9838510F4
:102E830082851183E8F0A3E9F0851082851183859B
:102E930082088583097808120FB6EAFCEBFD7404F7
:102EA300120E34AA82AB831202C67402120DE174AD
:102EB30002120E34AA82AB831202BAEAFCEBFD744F
:102EC30002120E34AA82AB8312029C92F075820224
:102ED300758301120E16A2F07F02020EB9C082C0E2
:102EE300837900120218D083D0820200FBEBC31354
:102EF300FBEA13FAEAF8EBF9E824FFFAE934FFFBFB
:102F0300E84960120000000000000000000000001B
:102F13000000000080DE0200FB74F7120E4DEAFE93
:102F2300EBFFEEF8EFF9E824FFFEE934FFFFE84991
:102F330060097AE87B0312023C80E77F01020EB945
:102F430043F20143F30153FDFE0200FB74F0120E42
:102F53004D120206C28D75B690A28D50FCE5BAF5EE
:102F63000CE4F50DF50EF50FE5BBF508750900E466
:102F7300C508F509E4F50AF50B780C7908120CA7D6
:102F83009012FA7808120CBA780C7908120AF774BE
:102F93000F780C120C63AA0CAB0D7F08020EB94319
:102FA300EBE053EBEF53EBF743EB04C2BC0200FB44
:102FB300C082C08343EB0853EBFC43EB10D2BC90BD
:102FC3000FFC7400F0D083D0820200FB53EBF75365
:102FD300EBEFC2BC0200FBC082C083900FFCE0F9A0
:102FE300D083D0820200FBE914600B14600C1460E0
:102FF3000D14600E800ED290800AD2918006D29377
:103003008002D2940200FBE914600B14600C14607C
:103013000D14600E800EC290800AC2918006C29386
:103023008002C2940200FBC082C08312023653F4B2
:10303300FEC29043FE0153F4FDC29143FE0253F4DA
:10304300F7C29343FE0853F4EFC29443FE10901269
:10305300FE120CD812029612021ED083D0820200F6
:10306300FBE5C65480F853BEFBE59DA2E550FAE5A7
:103073009DA2E240F4007401697007744948F5C6E3
:103083008005E9700288C6E5C6F8E59EFAE86A702D
:10309300F943BE040200FB74F7120E4D7409120EBD
:1030A30034E0F8A3E0F98A828B838003ECF0A3E891
:1030B300FEE9FFEE24FF18EF34FFF9EE4F70ED7FCA
:1030C30001020EB9C082C0838A828B838001A3E090
:1030D30070FCE582C39AFAE5839BFBD083D082021E
:0C30E30000FBD2AF0200FBC2AF0200FBFA
:04000005000000E314
:00000001FF
