:020000040000FA
:030000000200E318
:030013000213E0F5
:03001B000214A329
:030033000212ECCA
:03003B0002143C70
:03004B000213BAE3
:0300630002118700
:03006B000211CCB3
:030073000214FF75
:03007B0002125C12
:1000830002137C00000080FB120113B9000302007D
:10009300CDE4900F0078C579048002F0A3D8FCD991
:1000A300FA9012C4AA82AB83900116786B7902800E
:1000B30015E493A3AC82AD838A828B83F0A3AA82D7
:1000C300AB838C828D83D8E9D9E77582DE75833D56
:1000D30074001200F575828675830074001200F5B2
:1000E30075D0007581BF75100075110F759F0002E3
:1000F300008BC09FF59FE473D09F22D083D082C032
:100103009FE493C0E0740193C0E0740293F59F22CF
:10011300790122FF00000000000000000000000041
:10012300C20100010000000A0000000500000014E5
:100133000000000300000000000000E8030000537B
:100143004854335820CEC2B6C83D2566A1E62C20BC
:10015300CAAAB6C83D256625250D0A005348543161
:100163005820CEC2B6C83A2564A1E620CAAAB6C8AA
:100173003A256425250D0A0053485420CEC2B6C83B
:100183003A2564A1E620CAAAB6C83A256425250DF6
:100193000A00C2B6B5E344657720506F696E743ABE
:1001A30025352E3166A1E60A00000020410000A09B
:1001B3004008000000803E000002000000C5FE026F
:1001C300C0BD52163DF624D6B50AD7233CACC5A70D
:1001D30038666620C20000C8C10100C8420000C8DA
:1001E30042CDCCCC3D000000C0925CDE3EC3F58C1A
:1001F30041B81E73435348543358205365726961A1
:100203006C204E756D626572203D20256C750D0A5C
:100213000050C30000A0860100000034C200002F7C
:100223004300FF7F47F304353F000080BF00008099
:100233003F1872313F2292D43EDD9B2A3F040000D7
:1002430040D85BDE3E3031323334353637383941CE
:10025300424344454600286E756C6C20706F696E8E
:1002630074657229003F3F3F000000807FF902154B
:1002730050B743BA5100E7DB2E100000001200FE16
:100283003832001200FEDD32001200FE3E3300124F
:1002930000FE5D34001200FEEA34001200FE8235D7
:1002A300001200FE4B41001200FE5C41001200FEF2
:1002B3007841001200FE8341001200FED341001278
:1002C30000FE0D42001200FEF737001200FE133845
:1002D300001200FE2F38001200FE4238001200FE0A
:1002E3007938001200FEB038001200FE24390012E3
:1002F30000FEBE39001200FEEF39001200FE70420C
:10030300001200FE7542001200FE9341001200FE2F
:10031300B341001200FE2A40001200FE3A400012D0
:1003230000FE6640001200FE383C001200FE673CEF
:10033300001200FE7D3C001200FE943C001200FE01
:10034300AB3C001200FED73C001200FEFB3C001247
:1003530000FE0C3D001200FE153D001200FE1E3D86
:10036300001200FE333D001200FE483D001200FE65
:10037300673D001200FEA73E001200FE96350012F4
:1003830000FEBA35001200FEB525001200FE192644
:10039300001200FE3726001200FE5326001200FE54
:1003A3006626001200FEE726001200FE60270012F8
:1003B30000FEB127001200FEE327001200FEFB2718
:1003C300001200FE9228001200FE812A001200FE95
:1003D300902B001200FEEF2C001200FE422D0012A3
:1003E30000FE522D001200FEFE2D001200FE4E2EC6
:1003F300001200FE102F001200FEFB2F001200FE61
:100403002730001200FE4430001200FE5E3000125E
:1004130000FE7A30001200FE8830001200FEAE307B
:10042300001200FE4731001200FE8E31001200FE62
:10043300AD31001200FEFA31001200FE7A3D0012C7
:1004430000FEA43D001200FE8D40001200FE273A7C
:10045300001200FEB43F001200FE4342001200FEF1
:10046300EE40001200FEFF40001200FE661500126F
:1004730000FE841A00000022E493667013087401DE
:100483009366700C08740293667005087403936690
:1004930022C008C3E096F50808A3E096420808A323
:1004A300E096420808A3E0964208A2D265D033E55D
:1004B300087001D3D00822C3E7960809E796080914
:1004C300E7960809E79622C008C3E096F50808A353
:1004D300E096420808A3E096420808A3E096450880
:1004E3007001D3D00822C3E493960874019396084D
:1004F30074029396087403939622080808E630E77B
:1005030011120D39120515080808C64480C61818BB
:100513001822181818E9799EC608CAC608CBC60857
:10052300CCC6C370207996CACBCC7019798ECBCC4C
:1005330070137986CC700EF9802ACA33CACB33CBB9
:10054300CC33CC331930E7F2CCCBCA33501470041C
:10055300EA30E00DE4CA3ACACB3BCBCC3CCC5002E8
:1005630009C3E913C6CC182313C6CB18C6CA18C6C9
:10057300F9221205B520F01430E72B74FFFCFBFAC7
:10058300747F8022E4FCFBFA7480801AB48008BC78
:1005930000F2BB00EF800F50EBF9E4C39AFAE49B3F
:1005A300FBE49CFCE499C6CC18C6CB18C6CA18C693
:1005B300F922E4C9C608CAC608CBC6D3330308CC9C
:1005C300C63392F0C3947F402E94184019C9B907DB
:1005D30004CACBCC225025C309CA33CACB33CBCCF4
:1005E30033CC33D9F422F4600DC9CCC313CB13CB72
:1005F300CA13CAD9F6CC22E4FCFBFA2214FCFBFA98
:1006030022E6C33318461846184622E7C333194770
:100613001947194722181818E6084608700AE60809
:10062300C3337005E633F4220822191919E7094781
:1006330009700AE709C3337005E733F4220922E698
:10064300084608C3134608336002E633F422E70979
:100653004709C3134709336002E733F42212064202
:1006630060251206516020120604700302060E086C
:100673000808E76670101819E766700A1819E76624
:1006830070041819E76622F422120642601C12064F
:10069300516017120604700712060E7001D322C0B0
:1006A300D012060E7006D0D0B322C32233D0D0505E
:1006B3001430E0F6C3E7960809E7960809E79608B9
:1006C30009E796B32220E0D5E6970809E6970809DB
:1006D300E6970809E697B322120642601B120651F9
:1006E3006016120604700712060E600CB322C0D007
:1006F30012060E7005D0D022C32233D0D05013304F
:10070300E0EBC3E7960809E7960809E7960809E7C7
:10071300962220E0E4E6970809E6970809E6970899
:1007230009E6972200120642604F1206516012E753
:10073300548066F6120618701112060E703B0909F2
:1007430009F4F618F618F618F62212062D7015128B
:10075300060408080860EAE6447FF618768018E481
:10076300F618F622120604601612060E7012E4F64C
:1007730008F608F608E65480F6090909181818223D
:10078300EAC0E0EBC0E0ECC0E0EDC0E0E687F0A437
:10079300FBACF008E687F0A42CFCE435F0FA18096A
:1007A300E687F0A42C4B60027401CA35F0FCE433F5
:1007B300FB09E687F0D2F7A42CCB35F0FC1908E649
:1007C30087F0A42BCC35F0FBE433FD0819E687F062
:1007D300D2E7A42C4ACB35F0CD3400FC09E687F0F0
:1007E300D2E7A42DCC35F0FDE433FA0918E687F0FF
:1007F300D2F7A42CCD35F0CA3400FC08E687F0D23A
:10080300E7D2F7A42ACC35F07A7E20E70B0ACB3364
:10081300CBCD33CDCC33CC33CB3350147004ED304C
:10082300E00ED2F1E4CD3DCDCC3CCC3B5005DA0516
:10083300C2F1EB547FC63308E63392F0FBE733098A
:10084300E733C39A502D2B70190C0D4C4D701518AE
:1008530006E608C333700D20F10AA2F013F6E4187C
:10086300800B4024E4F630F002768018F618F61870
:10087300F68024D33B14501074FFA2F013F61876BD
:1008830080E418F618F6800FA2F013F618E6330387
:10089300F618ECF618EDF6D0E0FDD0E0FCD0E0FB66
:1008A300D0E0FA221206516046120642603DE96822
:1008B3007008F618F618F618F622748067F712080F
:1008C300DB090909748067F722120642601D1206CC
:1008D300517005191919801A120618701F12062D66
:1008E300C37003E66733191919400718181822084B
:1008F300080874FFF618F618F618F62212062D608B
:100903001712060E702192F0120604701950172068
:10091300F014080808090909E7F61819E7F6181981
:10092300E7F61819E7F62212060460E6E869701F75
:100933000808E62480F608E436F618547FB47F0CE2
:10094300E654806007F6E418F618F622181822E930
:10095300C6CC08C6CD08C6CE08C6CFC0E0E8C0E006
:10096300EAC0E0EBC0E009E9F809E7FA09E7FBE6CA
:10097300F918E6F8C3EC98ED99EE9AEBC2E7F5F0B7
:10098300EFC2E795F0500E600CEBCFFBEACEFAE92D
:10099300CDF9E8CCF8EAA2E7D2E7FAEB33FB13F59B
:1009A300F0EEA2E7D2E7FEEF33FFC5F013A2E73084
:1009B300E601B313C5F0C3C0E0C0F07F00C39BFBE7
:1009C300605B9418600C401AD0E023F9D0E0F80281
:1009D3000AAA8AF0E9486003D2F0E4AFF0FAF9F822
:1009E300803BEB30E40D89F0EA6003D2F0E4AFF032
:1009F300F9CAF8EB30E30D88F0EF6002D2F0AFF004
:100A0300E4CAC9F8EB54076014FBC3EA13FAE91309
:100A1300F9E813F8EF135002D2E0FFDBEDD0E0C0AA
:100A2300E030E739C3E49FFFF5F0EC98FC42F0EDCA
:100A330099FD42F0EE9AFE42F0D0E0F9D0E0F8E5FD
:100A4300F0607AE923F9EE20E742D8028067C3EF2A
:100A530033FFEC33FCED33FDEE33FE80EAEC28FC90
:100A6300ED39FDEE3AFED0E023F9D0E0F840028004
:100A73001BC3EE13FEED13FDEC13FCEF135002D278
:100A8300E0FF08B800067F7F74FF802EEF33501716
:100A93008CF020F00260100CBC000C0DBD00080EA1
:100AA300BE000408E860DFE933E813FFEE2313FE1A
:100AB3004F4D4C8008E95480FFE4FEFDFCEE33EF1C
:100AC30033F47004FCFD7E80D0E0FBD0E0FAD0E08C
:100AD300F8D0E0CFC618CEC618CDC618CCC6F922BA
:100AE300120642700418181822120651700D74FF72
:100AF300F61819F61819F61819F622E7548066F64F
:100B0300120604700F12060E70F014F608F608F6BB
:100B130008F680D112060E700CF608F608768008E7
:100B2300E6447F80EC120630700C12061B60BFE6B1
:100B33005480F6E480BB12061B700519191980A5B1
:100B4300E869700C763F18768018F618F6E8F922F3
:100B5300E6CDC0E018ECC0E0E633CD33CDD313F6D9
:100B6300E719FCE7191933CC33C3947F400ECD9DAD
:100B7300502408E65480F6E418F6800FF4043D147C
:100B8300501408E6447FF6187680E418F618F6D079
:100B9300E0FCD0E0FD22CCD313CCFD18E4C6CBC0DF
:100BA300E018E4C6CAC0E00808ED08C633E613F649
:100BB30018E433C675F003C3CA97CA09CB97CB1998
:100BC3009C40047D08802EBD0003020C8C16B6FFEA
:100BD300050606081618C3CA33CACB33CB33CA2754
:100BE300CA09CB37CB193CC37D08803E187D08204A
:100BF300E75CC633C6CA33CACB33CB33DDF1D5F09A
:100C0300EB30E77BCA97CA09CB974ACB199C406F55
:100C13004B7025E620E0218066187D08C3CA97CA79
:100C230009CB97CB199CD3C633C6CA33CACB33CBB4
:100C33003350C9DDE7D5F0E1D3E4C636C608C6367E
:100C4300C608C636C608C636C61818188031C3CAC1
:100C530097CA09CB97CB199CB34097C633C6CA33FF
:100C6300CACB33CB33DD34D5F02EC6A2E0C640C8A1
:100C7300CA27CA09CB37194A70BECB3CB480B9081E
:100C830008E63308E633601F181818D0E0FAD0E0FE
:100C9300FBD0E0FCD0E0FD22187D08CA27CA09CBAF
:100CA30037CB193CD3808013F618E4B67F11F618BE
:100CB300B6FF0EF618C60470D20808768080CAF60E
:100CC30018F618F680C5E4CFC0E0E4CEC0E0E4CD6A
:100CD300C0E0E4CCC0E075F020C3E633F608E633A9
:100CE300F608E633F608E633F6181818EC33FCED8D
:100CF30033FDEE33FEEF33FFC3EC9709ED9709EEB7
:100D03009709EF97191919400FFFEC97FC09ED9715
:100D1300FD09EE97FE191906D5F0BEECF709EDF7BC
:100D230009EEF709EFF7191919D0E0FCD0E0FDD06F
:100D3300E0FED0E0FF22181818E4C396F608E49604
:100D4300F608E496F608E496F622700908080822E5
:100D53006016181818C6C333C608C633C608C63388
:100D6300C608C633C6D5E0EA22E026F608A3E03675
:100D7300F608A3E036F608A3E036F622E647F608BF
:100D830009E647F60809E647F60809E647F622E0CA
:100D9300F608A3E0F608A3E0F608A3E0F622E6F0DF
:100DA30008A3E6F008A3E6F008A3E6F022E0FAA31E
:100DB300E0FBA3E0FCA3E0FD22EAF0A3EBF0A3EC4D
:100DC300F0A3EDF022CAC0E0E6F0A308DAFAD0E01F
:100DD300FA22CAC0E0E0A3C582CCC582C583CDC5D3
:100DE30083F0A3C582CCC582C583CDC583DAE6D0A3
:100DF300E0CA22C3E498F8E499F9120E378026C3B7
:100E0300E49AFAE49BFBE920E7E9120E37E498F849
:100E1300E499F922C3E498F8E499F9120E37E498B7
:100E2300F8E499F9C3E49AFAE49BFB22EB20E7CFB9
:100E3300E920E7E0B90010BB0008E88AF084F8AACB
:100E4300F022E4FBC8FA22EB70227B10C833C8C936
:100E530033C9335007C39AC3DBF280069A50012A81
:100E6300DBEAC833F4C8C933F4C9FA2275F008E4DD
:100E7300C833C8C933C933C99AC99B5004C92AC9DD
:100E83003BD5F0ECFBC833F4C8E4C9FA2270042262
:100E9300600D18C6C333C608C633C6D5E0F418229E
:100EA300251010AF08F510400215118008F5104009
:100EB300021511D2AF22C0D0251010AF08F5105083
:100EC3000205118008F51050020511D2AFD0D022CF
:100ED3002510F58210AF08F510400215118008F5B2
:100EE3001040021511D2AF851183222510F582E43B
:100EF3003511F58322E4732510C582C0E0E5113472
:100F0300FFC583C0E0E510C3958224F810AF0885C0
:100F130083118582108008858311858210D2AFCE1C
:100F2300F0A3E520F0A37808E608F0A3DEFAEFF0DB
:100F3300A3E58124FAF8E608F0A3E608F0A3E6089F
:100F4300F0A30808E608F0A3E608F0A315811581CD
:100F5300D0E0FED0E0F8158115811581E8C0E0EE00
:100F6300C0E022851183851082E0A3FEE0A3F52073
:100F73007808E0A3F608DFFAE0A3FFE0A3C0E0E00F
:100F8300A3C0E0E0A3C0E0E0A3C0E0E0A3C0E010A2
:100F9300AF088582108583118008858210858311AF
:100FA300D2AFD083D0820200FBC0D02510C582C04F
:100FB300E0E51134FFC583C0E0E510C3958224F357
:100FC30010AF08858311858210800885831185827F
:100FD30010D2AFC8F0A3E9F0A3EAF0A3EBF0A37932
:100FE30008E709F0A3D8FAECF0A3EDF0A3EEF0A321
:100FF300EFF0A3D0E0F0A3D0E0F0A3D0E0F0A3E5BE
:1010030020F0A3E5F0F0A322851183851082E0C0D0
:10101300E0A3E0F9A3E0FAA3E0FBA37808E0F60875
:10102300A3DFFAE0FCA3E0FDA3E0FEA3E0FFA3E05F
:10103300C0E0A3E0C0E0A3E0F5D0A3E0F520A3E087
:10104300A3F5F010AF08858311858210800885838E
:1010530011858210D2AFD082D083D0E0F8D0E032B5
:1010630074048006740280027401C0E0F404120E5A
:10107300D3D0E0120DC8227404800474028000CC23
:10108300C0E0EDC0E0E510C39CCCAD1150011D10D4
:10109300AF068C108D1180068C108D11D2AF120DFE
:1010A300D5D0E0FDD0E0FC22D083D082ECC0E0EDCF
:1010B300C0E0EEC0E0EFC0E0E493A3FCE493A3FD43
:1010C300E493A3FEE493A3FFEF4E4D4C601512117E
:1010D30027EC24FFFCED34FFFDEE34FFFEEF34FF7D
:1010E300FF80E5E493A3FCE493A3FDE493A3FEE470
:1010F30093A3FFEF4E4D4C6015121164EC24FFFCDB
:10110300ED34FFFDEE34FFFEEF34FFFF80E5D0E06A
:10111300FFD0E0FED0E0FDD0E0FCE493A3C0E0E428
:1011230093C0E022C0E0C0F088F01204E9A8F040C8
:101133000712047BA8F0701AA3A3A3A31204E9A8BF
:10114300F0A3A3A3A34013D0F0D0E0D0E0D0E002FB
:101153001111A3A3A3A3A3A3A3A3A3A3D0F0D0E09C
:1011630022C0E0C0F088F012047BA8F0A3A3A3A3DD
:10117300700BD0F0D0E0D0E0D0E0021111A3A3D0E7
:10118300F0D0E022C0E074F2120FACC2DBC2C49014
:101193000FFDE02401F0A3E03400F0900FFDE064C4
:1011A300A17004A3E064077015900FFD7400F0A311
:1011B3007400F0900FFC7401F01202B08006900FDF
:1011C300FC7400F07F0102100BC0E074F1120FAC4D
:1011D300C2C5E589607E7E008074750801750900CB
:1011E300EE7808120E90E508AF08E5895F605EEEC1
:1011F300F87900E875F002A4C8AAF075F000A42AF3
:10120300FA75F002E9A42AF974FF28F582740F39FC
:10121300F583E0F8A3E0F9E849602EEEF87900E8F9
:1012230075F002A4C8AAF075F000A42AFA75F002BA
:10123300E9A42AF974FF28F582740F39F583E0F8DD
:10124300A3E0F5838882120EF8EFF452890EEEC301
:10125300940840867F0202100BC0E074F1120FACB9
:10126300C2EBE58A607E7E00807475080175090013
:10127300EE7808120E90E508AF08E58A5F605EEE2F
:10128300F87900E875F002A4C8AAF075F000A42A62
:10129300FA75F002E9A42AF9740F28F5827410395B
:1012A300F583E0F8A3E0F9E849602EEEF87900E869
:1012B30075F002A4C8AAF075F000A42AFA75F0022A
:1012C300E9A42AF9740F28F582741039F583E0F83C
:1012D300A3E0F5838882120EF8EFF4528A0EEEC370
:1012E300940840867F0202100BC0E074F1120FAC29
:1012F300C2E8E58B607E7E00807475080175090085
:10130300EE7808120E90E508AF08E58B5F605EEE9D
:10131300F87900E875F002A4C8AAF075F000A42AD1
:10132300FA75F002E9A42AF9741F28F582741039BA
:10133300F583E0F8A3E0F9E849602EEEF87900E8D8
:1013430075F002A4C8AAF075F000A42AFA75F00299
:10135300E9A42AF9741F28F582741039F583E0F89B
:10136300A3E0F5838882120EF8EFF4528B0EEEC3DE
:10137300940540867F0202100BC0E074F2120FAC9A
:10138300A2AFE433FEC2AFE5E9A2E65020901029F4
:10139300E0F8A3E0F9E849600E901029E0F8A3E033
:1013A300F5838882120EF8759B0053E9BFEEA2E025
:1013B30092AF7F0102100BC0E074F2120FAC9010D9
:1013C3002BE0F8A3E0F9E849600E90102BE0F8A3B6
:1013D300E0F5838882120EF87F0102100BC0E0C093
:1013E300D0E8C0E0E9C0E0C082C083E5C1C0E090BE
:1013F30010AEE0F87900742D28F582741039F58366
:10140300D0E0F09010ADE0F89010AEE0687006E523
:10141300959010AFF09010AEE024019010AEF0C3A1
:10142300948040069010AE7400F0D083D082D0E058
:10143300F9D0E0F8D0D0D0E032C0E0C0D0E8C0E0CE
:10144300C008C009C082C083901130E0F890113108
:10145300E068700B539AFB9011327401F08031C233
:10146300E9901130E0F50874012508901130F0750A
:10147300090074B02508F58274103509F583E0F589
:10148300C1901130E0C3948040069011307400F095
:10149300D083D082D009D008D0E0F8D0D0D0E032C9
:1014A300C0E0C0D0E8C0E0E9C0E0C082C083E5F995
:1014B300C0E09011B4E0F87900743328F582741118
:1014C30039F583D0E0F09011B3E0F89011B4E068FF
:1014D3007006E5959011B5F09011B4E024019011D8
:1014E300B4F0C3948040069011B47400F0D083D05C
:1014F30082D0E0F9D0E0F8D0D0D0E032C0E0C0D064
:10150300E8C0E0C008C009C082C083901236E0F88A
:10151300901237E068700B539AF79012387401F009
:101523008031C2EA901236E0F50874012508901262
:1015330036F075090074B62508F58274113509F57E
:1015430083E0F5F9901236E0C3948040069012369A
:101553007400F0D083D082D009D008D0E0F8D0D086
:10156300D0E03274F0120EFA74FD120EA37402125C
:101573000EEEE9F08A088B098C0A8D0B7415120E96
:10158300EEE0FEA3E0FF851082851183E4F0A3F073
:101593008E828F83A3AA82AB8390141A780C120DC8
:1015A300927808790C12066070188E828F837469A2
:1015B300121A45746EF0A37466F0A30A0AAB830291
:1015C30019E07808790812066060118E828F83749F
:1015D3006E121A457461F0A3746E80DD9013DE7889
:1015E3000C120D927808790C12068C500302169097
:1015F3009012E8780C120D927808790C120660604C
:10160300030216E47417120EEEE070030217268528
:101613001082851183C082C0837413120EEE1224CC
:1016230083D083D082121A1E502C85108285118399
:10163300C3E094FCA3E094FFA2D265D033401774B7
:1016430002120EEEE4122557F97413120EEEC3E0E4
:1016530098F0A3E099F07413120EEE121A3B74186B
:10166300120EEEE070030217237417120EEEE4025B
:10167300172590141E780C120D927808790C120A13
:10168300E3851082851183E0240A122594901422A5
:10169300780C120D927808790C12068C40D49013B2
:1016A3005A780C120D927808790C12068C400302BA
:1016B300160790135A780C120D927808790C120AB7
:1016C300E312258B80D890141E780C120D927808A3
:1016D300790C120727851082851183E024F6121AEC
:1016E3003E901426780C120D927808790C1206DBC2
:1016F30040D49013DE780C120D927808790C120600
:10170300DB400302160790135A780C120D927808E7
:10171300790C120727851082851183121A3B80D218
:101723007401F07402120EEEE060077A007B00028F
:101733001832121A2A507D8E828F837430F0EAFE9B
:10174300EBFF7413120EEEE0FCA3E0FDEC4D70080A
:101753007418120EEEE0600B8E828F83742EF0A34A
:101763000EAF837A007B0080118E828F83743012D8
:101773001A667413120EEE121A3BEA24FF1AEB34A4
:10178300FFFB851082851183121A12500B741312FA
:101793000EEE1224874970D185108285118374FF60
:1017A300C39CF874FF9DF9121A1E50030219007AA4
:1017B30001021730851082851183122483C3E498B4
:1017C300FAE499FB806985080C85090D850A0E8565
:1017D3000B0F780C120575AC0CE50D3395E0F50E87
:1017E300F50F780C1204FD7808790C1208A79013F2
:1017F3005A780C120D927808790C120727EC121AFA
:1018030060EAF8EBF9E824010AE93400FBE84970DF
:101813001E7413120EEE1224874970087418120EE8
:10182300EEE0600B8E828F83742EF0A30EAF837471
:1018330013120EEE121A12508D90135E780C120DC5
:10184300927808790C12068C40030219007C01EE91
:1018530024FFF8EF34FFF97415120EEEE0F508A338
:10186300E0F50988828983E0642E6010E02CF0643F
:101873003A70077430F07C0180027C00E8FAE9FBDF
:10188300EA24FF18EB34FFF9C3E5089AE5099B4006
:10189300D2ECA2E050677402120EEEE06036EEF86E
:1018A300EF800A1219FDE824FF18E934FFF9C3E5B4
:1018B3000898E5099950181219EAE0642E70E4E8D3
:1018C30024FEF582E934FFF5831219F7F980D71264
:1018D300258B801E8E828F83A3AE82AF83EEF8EFBB
:1018E30080061219EA1219F7F9C3E50898E5099970
:1018F30040F07415120EEE1224A27431F074171214
:101903000EEEE07005801A1EAF83EE24FFF582EF22
:1019130034FFF583E0643060EEE0642E70031EAFA5
:10192300837402120EEEE070030219DC121A62A332
:10193300A983121A2A8E828F835014742DF00EE914
:10194300FF8510828511831224CB121A53800674EB
:101953002BF00EE9FF7C007D00EE240AFEEF34003D
:10196300FFEC24010CED3400FD121A04120E2FEAD1
:10197300121A60121A04120E2F121A6D4970E2C362
:10198300EC9402ED12243440D8ECFAEDFBC3E49C52
:10199300F8E49DF9EE28F582EF39F583E0C0E0C362
:1019A300E49AF8E49BF9EE28F8EF39F9E82CF8E922
:1019B3003DF9E824F5F582E934FFF583D0E0F0EC56
:1019C30024FF1CED34FFFDC3EC9401ED12243450CD
:1019D300BCEE24F6FEEF34FFFFEEFAEFFB740312C6
:1019E3000EB97F08020F66E824FFFAE934FFFB8A89
:1019F300828B83221219FD18EB22E088828983F0FF
:101A0300228510828511831224D87A0A7B0022C38F
:101A1300E09AA3E09BA2D265D03322C3E098A3E06F
:101A230099A2D265D03322851082851183C3A3E0A6
:101A33009400A2D265D03322E024FFF0A3E034FF68
:101A4300F022F0EAFEEBFF8E828F8322A3E03400C4
:101A5300F9851082851183E8F0A3E9F02224308E02
:101A6300828F83F0A3AE82AF832285108285118398
:101A7300121A7722E8F0A3E9F0851082851183E03A
:101A83002274F0120EFA74B0120EA385108285111F
:101A93008312253D7418120EEEECF0A3EDF0740FD3
:101AA300120EEEE4F0A380227460120EEE12247381
:101AB3007404120EEEE0F97418120EEE1224A21240
:101AC3000EF8740F120EEE12243CF01224B6FA1222
:101AD3002576120EEEEAF074256A6010E070C97480
:101AE3000F120EEE12247374500219E21224B6641C
:101AF300257019851082851183E0240108121A4F7D
:101B03007460120EEE122473792580AB740E120EDC
:101B1300EEE4F0740D120EEEE4F0740C120EEEE42B
:101B2300F07405120EEEE4F0741E120EEEA882A9F4
:101B3300837402120EEE80157405120EEEE0700728
:101B43007405120EEEEAF0851082851183121A7362
:101B530012246A1224FDFA24E060DD24FD601724B8
:101B6300F860DD24FE600624FD600F8011740C1202
:101B73000EEEE00480D0740D80F5740E80F1122413
:101B8300FD642A705B7462120EEE122508FB8A82D2
:101B93008B83E0FCA3E0FD740A120EEEECF0A3EDE0
:101BA300F0EA24020A0AEB3400FB7462120EEE120E
:101BB3002535740A120EEE121A30501F740A120ED3
:101BC300EE122473C3E49AFAE49BFB740A120EEE3A
:101BD30012253D740C120EEEE004F0121A54804AE2
:101BE300740A120EEEE4F0A3802D740A120EEE12A4
:101BF300248775F00AA4F8AAF075F00AE9A42AF973
:101C0300E50828F8E439F9E824D0F8E934FFF97451
:101C13000A120EEE12259B122557F5838882E0F5F2
:101C23000874D02508C3940A40C0740C120EEEE069
:101C33006007740E120EEEE4F01224B6642E6003F5
:101C4300021CCF851082851183E0240108A3E034B0
:101C530000F9121A6D1224A7E0642A702C74621220
:101C63000EEE1224BCF8A3E0F988828983E0FEA378
:101C7300E0FFE824020808E93400F97462120EEE6A
:101C83001224F012259BF080477E007F008510828E
:101C93008511831224C574D02508C3940A5031EEEC
:101CA30075F00AA4FEA8F075F00AEFA428FFE50872
:101CB3002EF8E43FF9E824D0FEE934FFFF851082D3
:101CC300851183E02401F8121A4F80C17EFF7FFF44
:101CD3007A0085108285118312246585108285110F
:101CE30083E0FBA3E0F5838B82E024B4600824E463
:101CF300600524FC70040A121A541224B6FB122540
:101D030076120EEEEBF070030222DA24BB700302AC
:101D130021A024FE700302218224EF7003021ECC53
:101D230024F57003021DD1147003021F7114700394
:101D33000221A014700302219E1470030221822445
:101D4300FE7003021F7124FB6024147003021EBC87
:101D5300147003021ECC24FD7003021E0A24FE70BD
:101D630003021ECC24FD7003021ECC0222E6746221
:101D7300120EEE12252F120EEE121A5AEAA2E07478
:101D83000F5033120EEEE0FCA3E0FD3395E0FE743A
:101D930006120EEE122510ECF0A3EDF0A3EEF0A365
:101DA300F07462120EEE122517120EEE1224F0E8F2
:101DB300F0A3E9021ACD120EEE1224837406120E5A
:101DC300EE122508F5838A82E8F0A3E980D27462D3
:101DD300120EEE122510E0C0E0741E120EEED0E0DB
:101DE300F07462120EEE122517120EEE1224F01288
:101DF3001A5A741F120EEEA882A9837412120EEEE1
:101E0300E8F0A3E90222FD7462120EEE12252F12EE
:101E13000EEE121A5A7406120EEE12252F120EEE41
:101E2300E02402FAA3E03400FB7462120EEE1225E2
:101E3300357402120EEE121A5AE849700C7402122B
:101E43000EEE7407F0A37414F012243250047E10C3
:101E53007F277408120EEEE4F0A380087408120EB4
:101E6300EE12243CF07402120EEE1224838882894F
:101E730083A3AA82AB837402120EEE12253D8882DD
:101E83008983E0600A7408120EEE12248C40CD742C
:101E930002120EEE1224537412120EEE121A5A7418
:101EA30008120EEE1224CBF97412120EEEE028F88B
:101EB300A3E039F97402021E00740D120EEEE06005
:101EC30008EE4F70047E017F007462120EEE12253D
:101ED3002F120EEE122583120EEEE064707038742A
:101EE30006120EEE122525120EEE12255E120EEECE
:101EF300E024021224E7120EEE1224F0121A5A9072
:101F0300142A120DB0741A120EEE120DBC740512BF
:101F13000EEEE4F0022001EAA2E07406501B120E5A
:101F2300EE1224A2120DB07414120EEE120DBC7434
:101F330006120EEEE024048012120EEE1225251274
:101F43000EEE12255E120EEEE024021224E7120EAC
:101F5300EE1224F0122583120EEEE0646F700590EA
:101F63001362809EE0647570969012D880947462B8
:101F7300120EEE12252F120EEE121A5AEAA2E07476
:101F8300065016120EEE1224A27808120D92740651
:101F9300120EEEE02404F8801B120EEE1224C5A3E9
:101FA300E0F5093395E0F50AF50B7406120EEEE041
:101FB300240208081224E8120EEE12256B120EEE0C
:101FC3007808120DA19012E8780812049440217445
:101FD30005120EEE742DF07414120EEE7808120D25
:101FE300927808120D3C7414120EEE7808120DA1AB
:101FF3009012D8120DB0741A120EEE120DBC744F5B
:10200300120EEEA882A9837402120EEE121A5A74EB
:1020130012120EEE12256E120EEE7808120D92E5D4
:10202300084509450A450B60097411120EEE740147
:1020330080067411120EEEE4F0EE4F7008E0A2E099
:1020430040030220F57402120EEE12249C120EEECF
:1020530012256E120EEE780C120D92741A120EEEF9
:102063007808120D92780C7908120CC974F62508B9
:10207300F58274133509F583E0C0E07402120EEEA5
:102083001224A2D0E0F07414120EEE780C120D920A
:10209300741A120EEE7808120D92780C7908120C4D
:1020A300C97414120EEE780C120DA17414120EEEF4
:1020B3007808120D92E5084509450A450B7086120A
:1020C3002432502E740E120EEEE060267405120EAA
:1020D300EEE06004D2F08002C2F0740A120EEE1237
:1020E3002445800E7402120EEE12254F120EEE12CC
:1020F30024AF7402120EEE122453744F120EEEC06C
:1021030082C0837402120EEE122473D083D082E550
:1021130082C39AFAE5839BFBC3EA9EEB12249540A4
:10212300C3740D120EEEE070030222FE7411120E40
:10213300EEE0A2E040030222FE7404120EEEE0641D
:10214300786005E06458701E1219FDE824FF18E951
:1021530034FFF97402120EEE12254F120EEE122402
:10216300A274300222FDE0646F60030222FE740257
:10217300120EEE122503643070030222FE80D47423
:1021830008120EEE7401F0A3E4F07404120EEEE0F4
:1021930024FEF0EE4F700F7E018012E4F0740812FB
:1021A3000EEEE4F0A3F012243250047E067F007496
:1021B30062120EEE12252F120EEE121A5A74061226
:1021C3000EEE1224A2780C120D927406120EEEE09B
:1021D30024041224E7120EEE12256B120EEE780C75
:1021E300120DA19012E87808120D92780C7908125A
:1021F30006DB50227405120EEE742DF07414120EC9
:10220300EE7808120D92E50BB2E7F50B7414120E7B
:10221300EE7808120DA1740A120EEE122483741EB6
:10222300120EEEE58228F8E58339F97402120EEEF8
:10223300121A5A740D120EEEE0F508780812106B9C
:102243007409120EEEE0F508780812106B7404128C
:102253000EEE12107E8E088F097808121067740A2A
:10226300120EEEE0F9741A120EEE120DB012046C97
:102273007406120EB97412120EEE12253D740E126C
:102283000EEEE060767405120EEEE06004D2F0808C
:1022930002C2F0740A120EEE1224457412120EEEEC
:1022A300C082C0837402120EEE122483D083D082C4
:1022B300E0C398F8A3E099F9C3E89EE91224955086
:1022C3003A7402120EEE12249C120EEE12254F12D5
:1022D3000EEE1224AF80C485108285118312245C14
:1022E300121A537402120EEE7416F0A37414F074DF
:1022F30012120EEE7419F0A37414F07412120EEE8F
:10230300C082C0837402120EEE122483D083D08263
:10231300E0C398FEA3E099FF740A120EEE12248C18
:10232300500A7408120EEEE4F0A380307405120E06
:10233300EEE06004D2F08002C2F0740A120EEEE006
:10234300C39EF8A3E09FF9A2F0E433FAE89AF8E910
:102353009400F97408120EEEE8F0A3E9F0740C127D
:102363000EEEE0702B80197460120EEE12247912B7
:102373000EEE1224A2120EF8740F120EEE12259115
:102383007408120EEE122543120EEE121A3050D7B5
:102393007405120EEEE060507460120EEE12247398
:1023A3007405120EEEE0F97418120EEE1224A21246
:1023B3000EF8802C7460120EEE1224737402120E47
:1023C300EE1224BCF97418120EEE1224A2120EF8A7
:1023D3007402120EEE1224657402120EEE121A5AD1
:1023E300740F120EEE122591EE24FF1EEF34FFFF41
:1023F300C312243450BE740C120EEEE07003021AA2
:10240300CE7408120EEE122543120EEE121A30503D
:1024130003021ACE7460120EEE122479120EEE121B
:1024230024A2120EF8740F120EEE12259180D2C35D
:10243300EF9400A2D265D03322E02401F0A3E0346C
:102443000022A2F0E433F8E098FEA3E09400FF2218
:102453001224572212245CF922E024FFF8A3E0346B
:10246300FF22E012246A222401F8A3E03400F922B7
:10247300E0FAA3E0FB22E0FAA3E0FB792074182240
:102483001224D8221224D8E822C3E09EA3E0122407
:1024930095229FA2D265D0332212245774022212AE
:1024A30024A622E0F8A3E0F5838882221224A674EE
:1024B30030F0228510828511831224C0221224DE7B
:1024C300E0221224C0F508221224D8C3E498F8E4C9
:1024D30099221224DEE0F8A3E0F922E0F8A3E0F564
:1024E30083888222F8A3E03400F97462221224F470
:1024F30022E0FAA3E0F5838A822285108285118384
:102503001224F4E0221224F4E0FAA3E0221224C0FD
:102513001224A7221224C02402F8A3E03400F97481
:1025230062221224D5E8FAE9FB7414221224D5742A
:102533000622E0FCA3E0F5838C82EAF0A3EBF02211
:10254300E024FFF0A3E034FFF0740822E8F0A3E9ED
:10255300F0740222121A7BF8A3E022EAF0A3EBF054
:10256300A3E4F0A3F07406221224F4E8F0A3E9F044
:10257300741422851082851183E02401081225A991
:10258300E8F0A3E9F0740422851082851183E02426
:1025930001F0A3E03400F022121A772401F8122587
:1025A300A9E8F0A3E922A3E03400F985108285119C
:1025B300832274F0120EFA74FC120EA38510828526
:1025C3001183EAF0A3EBF0A3ECF0A3EDF09012E893
:1025D3007808120D92801E000000009012D4780C2F
:1025E300120D6C901362780C1204CA50EA9012D444
:1025F3007808120D6C85108285118378081204CA3D
:10260300400A9012E8780C120D9280D77404120ECF
:10261300B97F08020F66C082C08312039A1203B205
:102623001203B8E9901366120DB0120388D083D059
:10263300820200FB740169600853F4DF43FE2080CB
:102643000C53F4DF53FEDF53F6DF53F7BF0200FBF7
:1026530053F4BF43FE4053F4DF43FE20D296D2959A
:102663000200FB74F7120EFA89087E007F80802730
:10267300C2959012D4120DB0120388D2969012E430
:10268300120DB0120388C2969012D4120DB0120329
:102693008875F002EF84FFEFC394014009EF5508FA
:1026A30060CED29580CCD2959012D4120DB0120385
:1026B30088D29679011203947F00800A9012D41273
:1026C3000DB01203880FEFC394FF500AE590542016
:1026D300FE74016E60E67900120394C296EEF97FF0
:1026E30001020F6674F7120EFAE9FE750800D2951F
:1026F30079011203947F808023D2969012E4120D05
:10270300B0120388A2955003EF4208C29690136A51
:10271300120DB012038875F002EF84FFEFC394012A
:1027230050D77900120394EE700478018002780088
:10273300E8A2E092959012D4120DB0120388D296BB
:102743009012E4120DB0120388C2969012D4120DA7
:10275300B0120388D295A9087F01020F66C082C018
:1027630083D295C2969012D4120DB0120388D296DA
:102773009012D4120DB0120388C2959012D4120D88
:10278300B0120388C2969012E4120DB0120388D2DD
:10279300969012D4120DB0120388D2959012D412CF
:1027A3000DB0120388C296D083D0820200FB74F767
:1027B300120EFAD295C2967E0080179012D4120D93
:1027C300B0120388D2969012D4120DB0120388C2AD
:1027D300960EEEC3940940E31203AC7F01020F6629
:1027E30074F7120EFA7E001203B2791E1203A0E9E7
:1027F3002EFEF97F01020F6674F2120EFA8A0A8B1B
:102803000B8C0C8D0D89097508001203ACE509606A
:102813000514600E801679031203A0E92508F50854
:10282300800A79051203A0E92508F5087901120346
:10283300947E007F0080119012E4120DB012038881
:10284300EE2401FEEF3400FFC3EE94FFEF94FF503C
:1028530004A29540E2A29550020508790012039460
:1028630079011203A6E9850A82850B83A3F0790116
:102873001203A6E9850A82850B83F079001203A669
:10288300E9850C82850D83F0A9087F06020F667423
:10289300F0120EFA74DE120EA37404120EEEEAF0B6
:1028A300A3EBF0ECFEEDFF90136E120DB0741E124D
:1028B3000EEE120DBC901372120DB0741A120EEEBE
:1028C300120DBC901376120DB07416120EEE120D8B
:1028D300BC90137A120DB07412120EEE120DBC904E
:1028E300137E120DB0740E120EEE120DBC74041290
:1028F3000EEEE0F8A3E0F5838882120DB085108216
:10290300851183120DBC8E828F837808120D9290ED
:10291300137A780C120D927808790C12072790130A
:1029230082780C120D927808790C1208CC74061276
:102933000EEE7808120DA17416120EEE7808120D21
:1029430092851082851183780C120D927808790C88
:10295300120727851082851183780C120D9278084F
:10296300790C120727C008C009C00AC00B741A12D9
:102973000EEE780C120D9285108285118378081261
:102983000D92780C7908120727D00BD00AD009D002
:10299300087808790C1208CC741E120EEE780C120B
:1029A3000D927808790C1208CC740A120EEE78088E
:1029B300120DA17406120EEE7808120D9290138672
:1029C300780C120D927808790C1208CCC008C00953
:1029D300C00AC00B740E120EEE7808120D92851009
:1029E30082851183780C120D927808790C120727CF
:1029F3007412120EEE780C120D927808790C1208EC
:102A0300CCD00FD00ED00DD00C780C79081207273C
:102A1300740A120EEE7808120D92780C79081208D7
:102A2300CC90138A7808120D92780C790812068CD0
:102A3300500890138E780C120D929013927808120E
:102A43000D92780C79081206DB5008901392780CDB
:102A5300120D927406120EEE120DB08E828F831237
:102A63000DBC7404120EEEE0F8A3E0F583888278BF
:102A73000C120DA17422120EB97F08020F6674F0B6
:102A8300120EFA74FC120EA38A088B098C0A8D0BA2
:102A9300AA08AB09AC0AAD0B1204548A088B098C43
:102AA3000A8D0B901396780C120D927808790C12FC
:102AB30008CC90139A780C120D927808790C120AAC
:102AC300E3C008C009C00AC00B7414120EEE7808E4
:102AD300120D9290139E780C120D927808790C12B5
:102AE3000727C008C009C00AC00B7414120EEE7881
:102AF3000C120D929013A27808120D92780C79089B
:102B03001208CCD00BD00AD009D0087808790C125F
:102B13000AE3D00FD00ED00DD00C780C7908120830
:102B2300CC851082851183780C120DA185108285C6
:102B330011837808120D929013A2780C120D9278DB
:102B430008790C120727C008C009C00AC00B750C0E
:102B5300C3750DF5750E8C750F4185108285118334
:102B63007808120D92780C79081208A7D00BD00AB6
:102B7300D009D0087808790C120AE3AA08AB09AC8B
:102B83000AAD0B7404120EB97F08020F6674F012BB
:102B93000EFA74F3120EA3740B120EEEEAF0A3EB0B
:102BA300F07409120EEEECF0A3EDF01203B27E0006
:102BB3007901851082851183AC82AD837405120E71
:102BC300EEAA82AB831203BEE92EFE790085108242
:102BD300851183AC82AD837401120EEEAA82AB839E
:102BE3001203BEE92EFE60051203B280557405126E
:102BF3000EEEE0F508A3E0F509E4F50AF50B780815
:102C03001205187405120EEE7808120DA174011244
:102C13000EEEE0F508A3E0F509E4F50AF50B7808F4
:102C23001205187401120EEE7808120DA174011228
:102C33000EEEAC82AD837405120EEEAA82AB831244
:102C430003C47401120EEE7808120D9290135A7891
:102C53000C120D927808790C12072790135E780CEA
:102C6300120D927808790C1208CC90135A780C1232
:102C73000D927808790C120AE37808120575740B23
:102C8300120EEEE0F8A3E0F5838882E508F0A3E5F1
:102C930009F07405120EEE7808120D9290135A780B
:102CA3000C120D927808790C12072790135E780C9A
:102CB300120D927808790C1208CC90135A780C12E2
:102CC3000D927808790C120AE378081205757409D5
:102CD300120EEEE0F8A3E0F5838882E508F0A3E5A1
:102CE30009F0740D120EB97F08020F6674F7120E05
:102CF300FA74FC120EA3E9FF7E001202D4EFF9125C
:102D030003DC1203FAE99013C2120DB01202F2852A
:102D13001082851183AA82AB831203E2E9FE851038
:102D23008285118312107A7AA67B131204667404C7
:102D3300120EB9EEF97404120EB97F01020F66C0C8
:102D430082C083E990123AF0D083D0820200FB74F0
:102D5300F0120EFA74FA120EA37404120EEEEAF0D5
:102D6300A3EBF0120406E9FE7A807B37120418E91C
:102D7300CE4EFEEE700512040CE9FEEE70137C6479
:102D83007900851082851183AA82AB8312041EE920
:102D9300FEEE70127C0079017402120EEEAA82AB71
:102DA3008312041EE9FE120412EE7043851082851D
:102DB3001183E0F50CA3E0F50DE4F50EF50F7410A7
:102DC300780C120D4D7402120EEEE0F508A3E0F537
:102DD30009E4F50AF50B780C7908120D7F740412D7
:102DE3000EEEE0F8A3E0F5838882780C120DA1EED5
:102DF300F97406120EB97F08020F6674F7120EFA01
:102E0300E9FE7409120EEEE0F8740A120EEEE0F910
:102E1300E86005146018802CE9F508780812106B37
:102E2300EEF91203EE7401120EB9E9F98018E9F50F
:102E330008780812106BEEF91203F47401120EB93C
:102E4300E9F9800279807F01020F6674F3120EFAAA
:102E530074FC120EA38A0A8B0B8C088D09E9FE748D
:102E630011120EEEE0F50C120406E9FFEF702CEEE2
:102E7300601C14600E1470217A107B2C120418E964
:102E8300FF80187A0D7B2C120418E9FF800D7A0657
:102E93007B2C120418E9FF80027F80EF7005120477
:102EA3000CE9FFEF7012AC0C79007402120EEEAA5B
:102EB30082AB8312041EE9FFEF70137C0079018556
:102EC3001082851183AA82AB8312041EE9FF1204C8
:102ED30012EF702D7402120EEEE0FAA3E0FB12045F
:102EE30030850A82850B83120DBC85108285118380
:102EF300E0FAA3E0FB120436850882850983120DEC
:102F0300BCEFF97404120EB97F05020F6674F21256
:102F13000EFA74FC120EA38A0C8B0D8C0A8D0BE92E
:102F2300FF7412120EEEE0F509120406E9F508E546
:102F3300087030EF601E14600F1470247A167B241F
:102F4300120418E9F508801B7A0B7B24120418E994
:102F5300F508800F7A007B24120418E9F508800332
:102F6300750880E508702680099012EC120DB012E6
:102F730002F2AE0974FF2EF509EE600A12040CE9A1
:102F8300F508E50870E3E5097003750804E50870C2
:102F9300277C0079007402120EEEAA82AB8312041E
:102FA3001EE942087C007901851082851183AA827B
:102FB300AB8312041EE94208120412E508702D7453
:102FC30002120EEEE0FAA3E0FB120430850C8285B8
:102FD3000D83120DBC851082851183E0FAA3E0FBFB
:102FE300120436850A82850B83120DBCA90874046A
:102FF300120EB97F06020F6674F7120EFA12040658
:10300300E9F5087AA27B30120418E9420812041287
:10301300E50870099013C2120DB01202F2A9087FDD
:1030230001020F66C082C0839013C6120DB0120254
:10303300F29013C2120DB01202F2D083D0820200BA
:10304300FBC082C0831202DA90123AE0C333F91252
:1030530002E6E9F9D083D0820200FBC082C083126A
:1030630002DA90123AE0C3334401F91202E6E9F9B5
:10307300D083D0820200FBC082C0831202E0D083DF
:10308300D0820200FB74F7120EFAEAFEEBFFEEF8B1
:10309300EFF9E4E9F8F91202E6E9F508EEF91202AC
:1030A300E6E94208A9087F01020F6674F6120EFAD8
:1030B30074FD120EA38A088B09E9FEECFFFC79006C
:1030C3007401120EEEAA82AB831202ECE9F9E970E5
:1030D300127C0079007402120EEEAA82AB831202F4
:1030E300ECE9F9E970137C00EEF985108285118310
:1030F300AA82AB831202ECE9F9E970188510828584
:103103001183E0FC79027401120EEEAA82AB8312E2
:10311300042AE9F97401120EEEE0FA7B00E4CAFB1B
:103123007402120EEEE0FC7D00EA4CFAEB4DFB85D7
:103133000882850983EAF0A3EBF07403120EB97FCA
:1031430002020F6674F6120EFAE9FD79FF78008029
:103153000108E8C39D502F8808750900EA2508F582
:1031630082EB3509F583E0C969F97C088005E9C379
:1031730033F91CECC3940140D8E9A2E750F0E9C34A
:10318300336431F980EC7F02020F6674F7120EFA92
:10319300E9FEECFFEEF9120424E9F8EF6860047924
:1031A30002800279007F01020F6674F0120EFA8A20
:1031B300088B09E4F50AF50B78081205189013CE6D
:1031C300780C120D927808790C1207279013D27895
:1031D3000C120D927808790C120AE39013CA780C3A
:1031E300120D927808790C1208CCAA08AB09AC0A24
:1031F300AD0B7F08020F6674F0120EFA8A088B0972
:10320300E4F50AF50B780812051890138E780C1262
:103213000D927808790C1207279013D2780C120DAF
:10322300927808790C120AE3AA08AB09AC0AAD0B31
:103233007F08020F6674F7120EFAE9FEEAF8EBF95B
:10324300E8FAE9FB740B2E8A828B83F0900F07E078
:10325300F8A3E0F5838882A3A3A3A3A3E060067881
:10326300617988800478417988E88A828B83A3F026
:10327300E98A828B83A3A3F0900F00E08A828B8379
:10328300A3A3A3F0900F07E0F8A3E0F5838882A33C
:10329300A3E0F8A3E0F98A828B83A3A3A3A3E8F0B6
:1032A300A3E9F08A828B83A3A3A3A3A3A3ECF0A334
:1032B300EDF0900F07E0F8A3E0F5838882E0F8A330
:1032C300E0F98A828B83A3A3A3A3A3A3A3A3E8F018
:1032D300A3E9F0790A7F01020F6674F2120EFAEC89
:1032E300FEEDFF8908A908EAFCEBFD7A097B0F12C2
:1032F3000280E9FB7A0080348A0A750B00EE250A06
:10330300F582EF350BF583E0C0E08B0A750B008A7D
:103313000C750D00E50C250AF8E50D350BF9E824CD
:1033230009F582E9340FF583D0E0F00AEAC3950882
:1033330040C6E5082BF97F06020F6674F7120EFAF2
:103343007E7C7F0F12035E1202FE7901EEFAEFFB21
:103353001203468E828F83E0C2E7F08E828F83E072
:10336300640570538E828F83E0F97A7D7B0F12039D
:10337300468E828F83A3E0A2E55004D2F08002C27E
:10338300F0A2F0E492E09012CCF07880790F88827A
:103393008983A3E0A2E740030234528E828F83A382
:1033A300A3A3E0FA900F00E06A60030234527401B1
:1033B300900F01F00234528E828F83E024F5901235
:1033C300C9F08E828F83E0F97A7D7B0F1203468EDC
:1033D300828F83A3E0A2E55004D2F08002C2F0A260
:1033E300F0E492E09012CCF08E828F83A3A3A3A388
:1033F300A3A3A3A3E0F8A3E0F99012C5E8F0A3E91F
:10340300F09012CA7486F0A3740FF09012C9E0F81A
:103413003395E0F99012CAE028F8A3E039F98882DD
:103423008983E09012CDF088828983A3E0A2E750DC
:10343300128E828F83A3E054DF644170067401907F
:1034430012CEF08E828F83A3A3A3E09012C4F01256
:1034530003041203647F01020F6674F4120EFAEA86
:10346300FEEBFF120328E9640170047901807312F3
:103473000304900F07EEF0A3EFF09012CA7400F06C
:10348300A37400F07401900F02F09012E878081210
:103493000D92900F037808120DA1900F07E0F8A387
:1034A300E0F5838882A3A3A3A3E0F912032E900F70
:1034B30007E0F8A3E0F5838882E0FAA3E0FB1203B8
:1034C30034900F07E0F8A3E0F5838882A3A3E0FA22
:1034D300A3E0FB12033A7A8C7B0212036A1202FE08
:1034E30079007F04020F6674F4120EFAEAFEEBFF12
:1034F3008C0A8D0B8908900F02E07003120352E5CA
:1035030008C3946750058508098003750967850911
:103513000812037012035EA908AC0AAD0BEEFAEFB2
:10352300FB120286E9F97A097B0F12034012036446
:1035330012034CE9900F07E0F8A3E0F5838882A318
:10354300A3A3A3A3E0601C7400900F01F07A4A7B4D
:103553000212031C900F01E06004740080027401E6
:10356300FE80027E00900F02E07003120358EE709B
:1035730007900F00E02401F0EEF97F04020F66C00C
:1035830082C0837401900F02F0120352D083D08261
:103593000200FBC082C08379441203D6E9600B1298
:1035A300038E9012397400F080069012397401F082
:1035B300D083D0820200FB74F0120EFA74F0120E64
:1035C300A37402120EEEEAF0A3EBF08510828511CC
:1035D30083ECF0A3EDF0901239E070030236D97E4C
:1035E30000750832780812106B75080178081210FC
:1035F3006B7900740A120EEEAC82AD83740E120E58
:10360300EEAA82AB831203E87402120EB9E9FE60DC
:103613000A1203FAE9FE60031204007408120EEEA4
:1036230012107A7410120EEE12107A7AF07B1212C4
:1036330004667408120EB9740C120EEE7808120D9B
:103643009290135A780C120D927808790C1207276E
:1036530090135E780C120D927808790C1208CC90B6
:10366300135A780C120D927808790C120AE3780831
:10367300120575E5087402120EEEE0F8A3E0F58377
:103683008882E508F07408120EEE7808120D929005
:10369300135A780C120D927808790C12072790139D
:1036A3005E780C120D927808790C1208CC90135A9C
:1036B300780C120D927808790C120AE37808120537
:1036C30075E508851082851183E0F8A3E0F583880A
:1036D30082E508F0806C7404120EEEAC82AD837444
:1036E30006120EEEAA82AB831203D07406120EEEFC
:1036F300E0F8A3E0F9E8C0E07402120EEEE0F8A3EC
:10370300E0F5838882D0E0F07404120EEEE0F8A3B3
:10371300E0F9E8C0E0851082851183E0F8A3E0F5C5
:10372300838882D0E0F07404120EEE12107E7408C7
:10373300120EEE12107E7A0D7B13120466740412BD
:103743000EB9851082851183E0F8A3E0F5838882A2
:10375300E0F508E4F509F50AF50B78081205187881
:10376300081210637406120EEEE0F8A3E0F58388E6
:1037730082E0F5083395E0F509F50AF50B780812B0
:1037830004FDAA08AB09AC0AAD0B1203CA740412F8
:103793000EB98A0C8B0D8C0E8D0F851082851183CB
:1037A300E0F8A3E0F5838882E0F50875090078085E
:1037B3001210677404120EEEE0F8A3E0F58388821A
:1037C300E0F5083395E0F50978081210677A297B4C
:1037D300131204667404120EB9780C1210637A4340
:1037E3007B131204667404120EB97410120EB97F9F
:1037F30008020F66740169600853F4DF43FE2080FA
:103803000C53F4DF53FEDF53F6DF53F7BF0200FB25
:10381300740169600853F4BF43FE40800C53F4BF46
:1038230053FEBF53F6BF53F7BF0200FB53F4BF432E
:10383300FE4053F4DF43FE20D296D2950200FBC034
:1038430082C083D2959012D4120DB01202F2D29696
:103853009012D4120DB01202F2C2959012D8120D2A
:10386300B01202F2C2969012D8120DB01202F2D028
:1038730083D0820200FBC082C083C2969012D4120E
:103883000DB01202F2C2959012D4120DB01202F2D0
:10389300D2969012D8120DB01202F2D2959012D88D
:1038A300120DB01202F2D083D0820200FB74F71221
:1038B3000EFAE9FF7E007508808027D2959012D416
:1038C300120DB01202F2D2969012DC120DB0120257
:1038D300F2C2969012D4120DB01202F2E508C3138D
:1038E300F508E508C394014009E5085F70CDC2956A
:1038F30080CBD295D2969012D4120DB01202F279E7
:10390300011202C8A29550027E01C2969012E012E3
:103913000DB01202F279001202C8EEF97F01020F14
:103923006674F4120EFAEAFEEBFF890A8C08750935
:10393300008E828F837400F0D29579011202C875CC
:103943000B808039D2969012D4120DB01202F2A9D4
:10395300081202F8E9F5099012E4120DB01202F20E
:10396300A29550088E828F83E0450BF0C296901289
:10397300D4120DB01202F2E50BC313F50BE50BC322
:10398300940150C079001202C8E50A7004C2958000
:1039930002D2959012D4120DB01202F2D296901266
:1039A300DC120DB01202F2C296D2959012E0120D03
:1039B300B01202F2A9097F04020F6674F0120EFA24
:1039C3008A088B098C0A8D0B9012E8780C120D92E1
:1039D300800C000000009012D4780C120D6C780853
:1039E300790C1204BA40EB7F08020F6674F7120ECB
:1039F300FAE9FF7E0079011202CE80099012EC12DF
:103A03000DB01202F2A296400F8F0874FF2508FF33
:103A1300E50870E87904800779001202CEEEF97F99
:103A230001020F6674F0120EFA74F6120EA38510DB
:103A330082851183EAF0A3EBF0A3ECF0A3EDF0850C
:103A430010828511837808120D929012D4780C128B
:103A53000D927808790C1206DB503385108285119C
:103A6300837808120D929012E8780C120D92780860
:103A7300790C1206609012C2700A7422123C2D7DDA
:103A8300FF023C237421123C2D7D7F023C237404EE
:103A9300120EEE8582088583097808121067740276
:103AA300120EEE120DB01204487402120EB98510F4
:103AB30082851183120DBC851082851183780812CB
:103AC3000D929013D6780C120D927808790C120689
:103AD300DB50328510828511837808120D927401B0
:103AE300C31313250AF50AE4350BF50B85108285FC
:103AF30011837808120DA17404120EEEE024FFF076
:103B0300A3E034FFF08510828511837808120D92AB
:103B13009013DA780C120D927808790C1208CCC045
:103B230008C009C00AC00B851082851183780C1266
:103B33000D929013DE7808120D92780C7908120812
:103B4300CCD00BD00AD009D0087808790C120AE33C
:103B53008510828511837808120DA1851082851145
:103B6300837808120D92851082851183780C120DCB
:103B7300927808790C1207277406120EEE78081251
:103B83000DA17404120EEEE0F5083395E0F509F586
:103B93000AF50B78081204FD9013E2780C120D92CB
:103BA3007808790C120727C008C009C00AC00B7433
:103BB30006120EEE7808120D929013E6780C120D91
:103BC300927808790C1207279013EA780C120D9259
:103BD3007808790C1208CC7406120EEE780C120DCC
:103BE300927808790C1207279013EE780C120D9235
:103BF3007808790C1208CC851082851183780C1211
:103C03000D927808790C120727D00FD00ED00DD063
:103C13000C780C79081208CCAA0CAB0DAC0EAD0FC6
:103C2300740A120EB97F08020F66F0A3E4F07AFF5C
:103C33007BFF7C7F22C082C083906189E04460F077
:103C430090619074D5F09061FA7409F09061B27448
:103C530015F09061AE7400F01203647900D083D044
:103C6300820200FBC082C08375F005E9A424D490CE
:103C7300618FF0D083D0820200FBC082C083EA90C0
:103C83006174F0E4EBFA906175F0D083D0820200A6
:103C9300FBC082C083EA906172F0E4EBFA90617337
:103CA300F0D083D0820200FB74F6120EFA75E1EEB7
:103CB3007591FD780080138808750900EA2508F5D9
:103CC30082EB3509F583E0F5D908E8C39940E87F2D
:103CD30002020F66C082C0838011E5D98A828B837A
:103CE300F08A828B83A3AA82AB8319E9C394015020
:103CF300E9D083D0820200FB75E1E9E591A2E150AE
:103D0300FA7591FD79000200FB75E1EC75E1E302C0
:103D130000FB75E1EF75E1EC0200FBC082C083900C
:103D230061A3E0C2E6F0539AFED083D0820200FB87
:103D3300C082C0839061A3E0D2E6F0439A01D083AE
:103D4300D0820200FBC082C083A2AFE433F8C2AFCB
:103D5300901029EAF0A3EBF0E8A2E092AFD083D071
:103D6300820200FBC082C083906193E0542270F80A
:103D7300D083D0820200FBC082C083E9F87900803F
:103D8300108A828B83E029F98A828B83A3AA82AB70
:103D930083E8FC74FF2CF8EC70E7D083D082020038
:103DA300FBC082C08390123D74C2F0A374D0F09024
:103DB300123F7410F090123B74BDF0A374C2F090E4
:103DC30012407401F07A3B7B12120292E9640160A3
:103DD300F412029ED083D0820200FB74FE120EA363
:103DE3001202BC1204421202A41202AA12037C128F
:103DF30002B6E99012C1F09012C1E0640170F0853F
:103E03001082851183AC82AD837401120EEEAA82F7
:103E1300AB83120382750880750900780812106756
:103E23007C007D007A417B1212045A7402120EB98F
:103E330090124174CCF09012427401F090124374CA
:103E430008F09012447402F09012457401F074016A
:103E5300120EEEE0901246F09012477402F08510B5
:103E630082851183E0901248F0901243E0F97A4181
:103E73007B1212043CE9901249F0901243E02401B2
:103E8300F97C417D127AF37BB4120298E97901122D
:103E9300030A7A647B0012032279011203101202CF
:103EA300AA023DF274F4120EFA8A088B098C0A8D69
:103EB3000B53F1FE43F30C53F2F375868075C48004
:103EC30078081210AB000000000C000000B00400E2
:103ED300001A3F60090000223FC01200002A3F8001
:103EE300250000323F403800003A3F004B000042BB
:103EF3003F807000004A3F00960000523F00E100FF
:103F0300005A3F002C0100623F00C201006A3F00DB
:103F1300840300723F7A3F75C23B75C505805E75A9
:103F2300C23B75C506805675C23B75C507804E7585
:103F3300C23B75C508804675C2D875C508803E75F5
:103F4300C23B75C509803675C2D875C509802E7503
:103F5300C23B75C50A802675C2D875C50A801E7511
:103F6300C23B75C50B801675C2D875C50B800E751F
:103F7300C2D875C50C800675C23B75C50A75C402E7
:103F8300438640D2AA75C1009010AD7400F0901022
:103F9300AE7400F09011307400F09011317400F0A1
:103FA3009010AF7400F09011327400F07F04020F90
:103FB3006674F0120EFA8A088B098C0A8D0B901224
:103FC300D4780C120D927808790C1206DB502690E7
:103FD30012E8780C120D927808790C120660901290
:103FE300C27009742212401F7DFF802B742112407E
:103FF3001F7D7F802212044E8A088B098C0A8D0B49
:104003009013F2780C120D927808790C120727AAF4
:1040130008AB09AC0AAD0B7F08020F66F0A3E4F00E
:104023007AFF7BFF7C7F22C082C08379001202C2A9
:10403300D083D0820200FBEBC313FBEA13FAEAF846
:10404300EBF9E824FFFAE934FFFBE84960120000CA
:10405300000000000000000000000000000080DEFF
:104063000200FB74F7120EFAEAFEEBFFEEF8EFF92B
:10407300E824FFFEE934FFFFE84960097AE87B039F
:1040830012031C80E77F01020F6674F0120EFA8A96
:10409300088B098C0A8D0B7410120EEEE0F8A3E066
:1040A300F9E8FAE9FB9012E8780C120D9278087996
:1040B3000C120660700E8A828B83E4F0A3F0FAFB85
:1040C300FCFD8022EC33ED332482F83395E0F98A4A
:1040D300828B83E8F0A3E9F0AA08AB09ED5480448E
:1040E3003FFDECC2E7FC7F08020F6674F6120EFA7E
:1040F300E9FA7B001204787F02020F6674F6120E4F
:10410300FA74FE120EA3740C120EEEA882A9838514
:104113001082851183E8F0A3E9F08510828511836D
:104123008582088583097808121067E4F508F50984
:1041330078081210677C607D041204727404120EF6
:10414300B97402120EB980AF43EBE053EBEF53EBBC
:10415300F743EB04C2BC0200FBC082C08343EB08FD
:1041630053EBFC43EB10D2BC900FFC7400F0D083F4
:10417300D0820200FB53EBF753EBEFC2BC0200FB10
:10418300C082C083900FFCE0F9D083D0820200FB91
:10419300E914600B14600C14600D14600E800ED2D1
:1041A30090800AD2918006D2938002D2940200FBBF
:1041B300E914600B14600C14600D14600E800EC2C1
:1041C30090800AC2918006C2938002C2940200FBCF
:1041D300C082C08312031653F4FEC29043FE015300
:1041E300F4FDC29143FE0253F4F7C29343FE085316
:1041F300F4EFC29443FE109012D0120DB012037666
:104203001202FED083D0820200FBE5C65480F8532D
:10421300BEFBE59DA2E550FAE59DA2E240F40074E1
:1042230001697007744948F5C68005E9700288C6BC
:10423300E5C6F8E59EFAE86A70F943BE040200FB9E
:1042430074F7120EFA7409120EEEE0F8A3E0F98A7D
:10425300828B838003ECF0A3E8FEE9FFEE24FF18D2
:10426300EF34FFF9EE4F70ED7F01020F66D2AF021C
:0742730000FBC2AF0200FBDB
:04000005000000E314
:00000001FF
